{
  "address": "0x59AEFffD6443b04a16b7Fa3dEEaE517e8Ab3BD33",
  "abi": [
    {
      "inputs": [],
      "name": "MESSAGE_DATA_LENGTH",
      "outputs": [
        {
          "internalType": "uint8",
          "name": "",
          "type": "uint8"
        }
      ],
      "stateMutability": "view",
      "type": "function"
    },
    {
      "inputs": [
        {
          "internalType": "address",
          "name": "_verifier",
          "type": "address"
        },
        {
          "internalType": "address",
          "name": "_vkRegistry",
          "type": "address"
        },
        {
          "internalType": "address",
          "name": "_poll",
          "type": "address"
        },
        {
          "internalType": "address",
          "name": "_owner",
          "type": "address"
        },
        {
          "internalType": "enum DomainObjs.Mode",
          "name": "_mode",
          "type": "uint8"
        }
      ],
      "name": "deploy",
      "outputs": [
        {
          "internalType": "address",
          "name": "messageProcessorAddr",
          "type": "address"
        }
      ],
      "stateMutability": "nonpayable",
      "type": "function"
    }
  ],
  "transactionHash": "0xce17a11d64f6fb8b5b42c32d69d85527531889ea364b115368f667657c45d1a4",
  "args": [],
  "numDeployments": 1,
  "bytecode": "0x608060405234801561001057600080fd5b50612369806100206000396000f3fe608060405234801561001057600080fd5b50600436106100365760003560e01c8063363448731461003b578063683f3dc31461006b575b600080fd5b61004e610049366004610155565b610085565b6040516001600160a01b0390911681526020015b60405180910390f35b610073600a81565b60405160ff9091168152602001610062565b600080868686856040516100989061012c565b6100a594939291906101c2565b604051809103906000f0801580156100c1573d6000803e3d6000fd5b5060405163f2fde38b60e01b81526001600160a01b0386811660048301529192509082169063f2fde38b90602401600060405180830381600087803b15801561010957600080fd5b505af115801561011d573d6000803e3d6000fd5b50929998505050505050505050565b6121248061021083390190565b80356001600160a01b038116811461015057600080fd5b919050565b600080600080600060a0868803121561016d57600080fd5b61017686610139565b945061018460208701610139565b935061019260408701610139565b92506101a060608701610139565b91506080860135600281106101b457600080fd5b809150509295509295909350565b6001600160a01b038581168252848116602083015283166040820152608081016002831061020057634e487b7160e01b600052602160045260246000fd5b8260608301529594505050505056fe610100604052604051620021243803806200212483398101604081905262000027916200011a565b33806200004e57604051631e4fbdf760e01b81526000600482015260240160405180910390fd5b6200005981620000ad565b506001600160a01b0380851660a05283811660c05282166080528060018111156200008857620000886200017c565b60e08160018111156200009f576200009f6200017c565b815250505050505062000192565b600080546001600160a01b038381166001600160a01b0319831681178455604051919092169283917f8be0079c531659141344cd1fd0a4f28419497f9722a3daafe3b4186f6b6457e09190a35050565b80516001600160a01b03811681146200011557600080fd5b919050565b600080600080608085870312156200013157600080fd5b6200013c85620000fd565b93506200014c60208601620000fd565b92506200015c60408601620000fd565b91506060850151600281106200017157600080fd5b939692955090935050565b634e487b7160e01b600052602160045260246000fd5b60805160a05160c05160e051611eef62000235600039600081816101a6015261117a01526000818161016701526110dc0152600081816101da01526112180152600081816102cb01528181610347015281816103cd01528181610465015281816107eb0152818161083c015281816108e00152818161097c01528181610aa001528181610b2d01528181610c4201528181610fb901526110400152611eef6000f3fe608060405234801561001057600080fd5b50600436106101375760003560e01c8063715018a6116100b8578063a11752791161007c578063a1175279146102c6578063b1a263d3146102ed578063bea140b314610300578063d13181b814610313578063d1849f481461031c578063f2fde38b1461032f57600080fd5b8063715018a61461026b5780637a38d18f146102755780638763d0c41461027e5780638da5cb5b146102a25780639cfced97146102b357600080fd5b80633dfb88b2116100ff5780633dfb88b21461020557806358bfc379146102185780635bb939951461022b57806362a361bb1461023e578063683f3dc31461025157600080fd5b80630cd3b91d1461013c57806313fb893214610162578063295a5212146101a15780632b7ac3f3146101d55780633d6528a1146101fc575b600080fd5b61014f61014a36600461130a565b610342565b6040519081526020015b60405180910390f35b6101897f000000000000000000000000000000000000000000000000000000000000000081565b6040516001600160a01b039091168152602001610159565b6101c87f000000000000000000000000000000000000000000000000000000000000000081565b604051610159919061139f565b6101897f000000000000000000000000000000000000000000000000000000000000000081565b61014f60025481565b61014f610213366004611440565b610616565b61014f6102263660046114e2565b610697565b61014f610239366004611578565b610731565b61014f61024c36600461159a565b610756565b610259600a81565b60405160ff9091168152602001610159565b610273610790565b005b61014f60015481565b60005461029290600160a01b900460ff1681565b6040519015158152602001610159565b6000546001600160a01b0316610189565b61014f6102c13660046115fa565b6107a4565b6101897f000000000000000000000000000000000000000000000000000000000000000081565b6102736102fb366004611635565b6107de565b61014f61030e3660046116c1565b610d1a565b61014f60035481565b61014f61032a36600461171a565b610d54565b61027361033d366004611785565b610e55565b6000807f00000000000000000000000000000000000000000000000000000000000000006001600160a01b0316638aa0ba926040518163ffffffff1660e01b8152600401602060405180830381865afa1580156103a3573d6000803e3d6000fd5b505050506040513d601f19601f820116820180604052508101906103c791906117a9565b905060007f00000000000000000000000000000000000000000000000000000000000000006001600160a01b0316637028bb0e6040518163ffffffff1660e01b8152600401602060405180830381865afa158015610429573d6000803e3d6000fd5b505050506040513d601f19601f8201168201806040525081019061044d91906117c2565b9050600061045e8c8b8b8989610d54565b90506000807f00000000000000000000000000000000000000000000000000000000000000006001600160a01b0316634909229f6040518163ffffffff1660e01b81526004016040805180830381865afa1580156104c0573d6000803e3d6000fd5b505050506040513d601f19601f820116820180604052508101906104e491906117df565b6040805160078082526101008201909252929450909250600091906020820160e080368337019050509050838160008151811061052357610523611803565b602002602001018181525050858160018151811061054357610543611803565b6020026020010181815250508d8160028151811061056357610563611803565b6020026020010181815250508a8160038151811061058357610583611803565b60200260200101818152505089816004815181106105a3576105a3611803565b60209081029190910101526105b8828461182f565b816005815181106105cb576105cb611803565b6020026020010181815250508460ff16816006815181106105ee576105ee611803565b60200260200101818152505061060381610697565b9f9e505050505050505050505050505050565b60405163248f667760e01b81526000907388442E8223A9e71ca7ef529EC42636EE42CFF2819063248f667790610650908590600401611842565b602060405180830381865af415801561066d573d6000803e3d6000fd5b505050506040513d601f19601f8201168201806040525081019061069191906117a9565b92915050565b60007f30644e72e131a029b85045b68181585d2833e84879b9709143e1f593f00000016002836040516020016106cd9190611873565b60408051601f19818403018152908290526106e7916118a9565b602060405180830381855afa158015610704573d6000803e3d6000fd5b5050506040513d601f19601f8201168201806040525081019061072791906117a9565b61069191906118d8565b600061073b6112dd565b8381526020810183905261074e81610756565b949350505050565b6040516314d2f97b60e11b81526000907374a7Cfe7fd956c53E754C300a1DDddC9713A7dA1906329a5f2f6906106509085906004016118fa565b610798610e98565b6107a26000610ec5565b565b604051630926f44b60e31b815260009073039AE9F5c35deecCCBD9f1B7464D5f7529627F4C90634937a25890610650908590600401611922565b6107e6610e98565b61080f7f0000000000000000000000000000000000000000000000000000000000000000610f15565b600054600160a01b900460ff161561083a5760405163a7f0397560e01b815260040160405180910390fd5b7f00000000000000000000000000000000000000000000000000000000000000006001600160a01b031663b5f38c816040518163ffffffff1660e01b8152600401602060405180830381865afa158015610898573d6000803e3d6000fd5b505050506040513d601f19601f820116820180604052508101906108bc919061194a565b6108d957604051631bb80bef60e31b815260040160405180910390fd5b60008060007f00000000000000000000000000000000000000000000000000000000000000006001600160a01b031663ac98e5df6040518163ffffffff1660e01b8152600401608060405180830381865afa15801561093c573d6000803e3d6000fd5b505050506040513d601f19601f82011682018060405250810190610960919061196c565b9350935093505060008360056109769190611aaf565b905060007f00000000000000000000000000000000000000000000000000000000000000006001600160a01b031663bc14ee2b6040518163ffffffff1660e01b8152600401606060405180830381865afa1580156109d8573d6000803e3d6000fd5b505050506040513d601f19601f820116820180604052508101906109fc9190611abe565b50604051631b9b8aa760e01b815260ff87166004820152909250600091506001600160a01b03831690631b9b8aa790602401602060405180830381865afa158015610a4b573d6000803e3d6000fd5b505050506040513d601f19601f82011682018060405250810190610a6f91906117a9565b905080600003610a925760405163c0b868a560e01b815260040160405180910390fd5b600154600003610c0a5760007f00000000000000000000000000000000000000000000000000000000000000006001600160a01b031663c17268d96040518163ffffffff1660e01b8152600401602060405180830381865afa158015610afc573d6000803e3d6000fd5b505050506040513d601f19601f82011682018060405250810190610b2091906117a9565b90508060038190555060007f00000000000000000000000000000000000000000000000000000000000000006001600160a01b0316634f367f0f6040518163ffffffff1660e01b81526004016040805180830381865afa158015610b88573d6000803e3d6000fd5b505050506040513d601f19601f82011682018060405250810190610bac91906117df565b915060009050610bbc86836118d8565b600283905590508115610c065780600003610bee578560026000828254610be39190611b0b565b90915550610c069050565b8060026000828254610c009190611b0b565b90915550505b5050505b610c1e600254826003548b8a8a8a8e610fb2565b610c3e5760405160016268f24f60e01b0319815260040160405180910390fd5b60007f00000000000000000000000000000000000000000000000000000000000000006001600160a01b0316634f367f0f6040518163ffffffff1660e01b81526004016040805180830381865afa158015610c9d573d6000803e3d6000fd5b505050506040513d601f19601f82011682018060405250810190610cc191906117df565b91505060006002541115610ce7578360026000828254610ce19190611b0b565b90915550505b610d0f896002546001546001610cfd919061182f565b610d079088611b1e565b8411156112a4565b505050505050505050565b6040516304b98e1d60e31b815260009073b78AC47CC2c51f07E19Eb1A465660d18AE41BD24906325cc70e890610650908590600401611b35565b600080610d62836005611aaf565b90506000610d71856005611aaf565b90506000610d7f828a61182f565b905086811115610d8c5750855b600160321b8310610db05760405163df0dbdbd60e01b815260040160405180910390fd5b600160321b8810610dd457604051631805864f60e21b815260040160405180910390fd5b600160321b8910610df8576040516328b2660560e21b815260040160405180910390fd5b600160321b8110610e1c576040516309c5b7c360e21b815260040160405180910390fd5b609681901b60648a901b610e3460328b901b8661182f565b610e3e919061182f565b610e48919061182f565b9998505050505050505050565b610e5d610e98565b6001600160a01b038116610e8c57604051631e4fbdf760e01b8152600060048201526024015b60405180910390fd5b610e9581610ec5565b50565b6000546001600160a01b031633146107a25760405163118cdaa760e01b8152336004820152602401610e83565b600080546001600160a01b038381166001600160a01b0319831681178455604051919092169283917f8be0079c531659141344cd1fd0a4f28419497f9722a3daafe3b4186f6b6457e09190a35050565b600080826001600160a01b0316634909229f6040518163ffffffff1660e01b81526004016040805180830381865afa158015610f55573d6000803e3d6000fd5b505050506040513d601f19601f82011682018060405250810190610f7991906117df565b90925090506000610f8a8342611b0b565b9050818111610fac57604051635c3017c560e11b815260040160405180910390fd5b50505050565b60008060007f00000000000000000000000000000000000000000000000000000000000000006001600160a01b0316634f367f0f6040518163ffffffff1660e01b81526004016040805180830381865afa158015611014573d6000803e3d6000fd5b505050506040513d601f19601f8201168201806040525081019061103891906117df565b9150915060007f00000000000000000000000000000000000000000000000000000000000000006001600160a01b031663bc14ee2b6040518163ffffffff1660e01b8152600401606060405180830381865afa15801561109c573d6000803e3d6000fd5b505050506040513d601f19601f820116820180604052508101906110c09190611abe565b5050905060006110d68d8d86868f8f8f8e610342565b905060007f00000000000000000000000000000000000000000000000000000000000000006001600160a01b031663d88ff4f5846001600160a01b031663652c76e46040518163ffffffff1660e01b8152600401602060405180830381865afa158015611147573d6000803e3d6000fd5b505050506040513d601f19601f8201168201806040525081019061116b91906117c2565b8b8b6111788f6005611aaf565b7f00000000000000000000000000000000000000000000000000000000000000006040518663ffffffff1660e01b81526004016111b9959493929190611b5d565b600060405180830381865afa1580156111d6573d6000803e3d6000fd5b505050506040513d6000823e601f3d908101601f191682016040526111fe9190810190611c4a565b6040516308adcb2560e21b81529091506001600160a01b037f000000000000000000000000000000000000000000000000000000000000000016906322b72c9490611251908a9085908790600401611da8565b602060405180830381865afa15801561126e573d6000803e3d6000fd5b505050506040513d601f19601f82011682018060405250810190611292919061194a565b9e9d5050505050505050505050505050565b60038390556000805460ff60a01b1916600160a01b83151502178155600283905560018054916112d383611ea0565b9190505550505050565b60405180604001604052806002906020820280368337509192915050565b60ff81168114610e9557600080fd5b600080600080600080600080610100898b03121561132757600080fd5b883597506020890135965060408901359550606089013594506080890135935060a0890135925060c089013561135c816112fb565b915060e089013561136c816112fb565b809150509295985092959890939650565b6002811061139b57634e487b7160e01b600052602160045260246000fd5b9052565b60208101610691828461137d565b634e487b7160e01b600052604160045260246000fd5b6040805190810167ffffffffffffffff811182821017156113e6576113e66113ad565b60405290565b60405160a0810167ffffffffffffffff811182821017156113e6576113e66113ad565b604051601f8201601f1916810167ffffffffffffffff81118282101715611438576114386113ad565b604052919050565b60006080828403121561145257600080fd5b82601f83011261146157600080fd5b6040516080810181811067ffffffffffffffff82111715611484576114846113ad565b60405280608084018581111561149957600080fd5b845b818110156114b357803583526020928301920161149b565b509195945050505050565b600067ffffffffffffffff8211156114d8576114d86113ad565b5060051b60200190565b600060208083850312156114f557600080fd5b823567ffffffffffffffff81111561150c57600080fd5b8301601f8101851361151d57600080fd5b803561153061152b826114be565b61140f565b81815260059190911b8201830190838101908783111561154f57600080fd5b928401925b8284101561156d57833582529284019290840190611554565b979650505050505050565b6000806040838503121561158b57600080fd5b50508035926020909101359150565b6000604082840312156115ac57600080fd5b82601f8301126115bb57600080fd5b6115c36113c3565b8060408401858111156115d557600080fd5b845b818110156115ef5780358452602093840193016115d7565b509095945050505050565b600060a0828403121561160c57600080fd5b82601f83011261161b57600080fd5b6116236113ec565b8060a08401858111156115d557600080fd5b60008061012080848603121561164a57600080fd5b83359250602085603f86011261165f57600080fd5b604051610100810181811067ffffffffffffffff82111715611683576116836113ad565b60405291850191808784111561169857600080fd5b8287015b848110156116b3578035825290830190830161169c565b509497909650945050505050565b6000606082840312156116d357600080fd5b82601f8301126116e257600080fd5b6040516060810181811067ffffffffffffffff82111715611705576117056113ad565b60405280606084018581111561149957600080fd5b600080600080600060a0868803121561173257600080fd5b8535945060208601359350604086013592506060860135611752816112fb565b91506080860135611762816112fb565b809150509295509295909350565b6001600160a01b0381168114610e9557600080fd5b60006020828403121561179757600080fd5b81356117a281611770565b9392505050565b6000602082840312156117bb57600080fd5b5051919050565b6000602082840312156117d457600080fd5b81516117a2816112fb565b600080604083850312156117f257600080fd5b505080516020909101519092909150565b634e487b7160e01b600052603260045260246000fd5b634e487b7160e01b600052601160045260246000fd5b8082018082111561069157610691611819565b60808101818360005b600481101561186a57815183526020928301929091019060010161184b565b50505092915050565b815160009082906020808601845b8381101561189d57815185529382019390820190600101611881565b50929695505050505050565b6000825160005b818110156118ca57602081860181015185830152016118b0565b506000920191825250919050565b6000826118f557634e487b7160e01b600052601260045260246000fd5b500690565b60408101818360005b600281101561186a578151835260209283019290910190600101611903565b60a08101818360005b600581101561186a57815183526020928301929091019060010161192b565b60006020828403121561195c57600080fd5b815180151581146117a257600080fd5b6000806000806080858703121561198257600080fd5b845161198d816112fb565b602086015190945061199e816112fb565b60408601519093506119af816112fb565b60608601519092506119c0816112fb565b939692955090935050565b600181815b80851115611a065781600019048211156119ec576119ec611819565b808516156119f957918102915b93841c93908002906119d0565b509250929050565b600082611a1d57506001610691565b81611a2a57506000610691565b8160018114611a405760028114611a4a57611a66565b6001915050610691565b60ff841115611a5b57611a5b611819565b50506001821b610691565b5060208310610133831016604e8410600b8410161715611a89575081810a610691565b611a9383836119cb565b8060001904821115611aa757611aa7611819565b029392505050565b60006117a260ff841683611a0e565b600080600060608486031215611ad357600080fd5b8351611ade81611770565b6020850151909350611aef81611770565b6040850151909250611b0081611770565b809150509250925092565b8181038181111561069157610691611819565b808202811582820484141761069157610691611819565b60608101818360005b600381101561186a578151835260209283019290910190600101611b3e565b60ff86811682528581166020830152841660408201526060810183905260a08101611b8b608083018461137d565b9695505050505050565b600060408284031215611ba757600080fd5b611baf6113c3565b9050815181526020820151602082015292915050565b600082601f830112611bd657600080fd5b611bde6113c3565b806040840185811115611bf057600080fd5b845b818110156115ef578051845260209384019301611bf2565b600060808284031215611c1c57600080fd5b611c246113c3565b9050611c308383611bc5565b8152611c3f8360408401611bc5565b602082015292915050565b60006020808385031215611c5d57600080fd5b825167ffffffffffffffff80821115611c7557600080fd5b908401906101e08287031215611c8a57600080fd5b611c926113ec565b611c9c8784611b95565b81526040611cac88828601611c0a565b85830152611cbd8860c08601611c0a565b81830152611ccf886101408601611c0a565b60608301526101c084015183811115611ce757600080fd5b80850194505087601f850112611cfc57600080fd5b83519250611d0c61152b846114be565b83815260069390931b84018501928581019089851115611d2b57600080fd5b948601945b84861015611d5157611d428a87611b95565b82529482019490860190611d30565b60808401525090979650505050505050565b8060005b6002811015610fac578151845260209384019390910190600101611d67565b611d91828251611d63565b6020810151611da36040840182611d63565b505050565b60006101408286835b6008811015611dd0578151835260209283019290910190600101611db1565b505050806101008401526103208301611df6828501875180518252602090810151910152565b6020915081860151611e0c610180860182611d86565b50604080870151611e21610200870182611d86565b506060870151611e35610280870182611d86565b5060808701516101e06103008701528051928390528301916000906103408701905b80831015611e8857611e7482865180518252602090810151910152565b938501936001929092019190830190611e57565b50809550505050505082610120830152949350505050565b600060018201611eb257611eb2611819565b506001019056fea264697066735822122069bd60e0453472d70a759d3c94fd4d6e0542c93e26d5a111d846b1a9e2237c7b64736f6c63430008140033a2646970667358221220171e672d7e5780eb01b327057fb7eee3db480645a9a0efc8cd3c34813776fd4964736f6c63430008140033",
  "deployedBytecode": "0x608060405234801561001057600080fd5b50600436106100365760003560e01c8063363448731461003b578063683f3dc31461006b575b600080fd5b61004e610049366004610155565b610085565b6040516001600160a01b0390911681526020015b60405180910390f35b610073600a81565b60405160ff9091168152602001610062565b600080868686856040516100989061012c565b6100a594939291906101c2565b604051809103906000f0801580156100c1573d6000803e3d6000fd5b5060405163f2fde38b60e01b81526001600160a01b0386811660048301529192509082169063f2fde38b90602401600060405180830381600087803b15801561010957600080fd5b505af115801561011d573d6000803e3d6000fd5b50929998505050505050505050565b6121248061021083390190565b80356001600160a01b038116811461015057600080fd5b919050565b600080600080600060a0868803121561016d57600080fd5b61017686610139565b945061018460208701610139565b935061019260408701610139565b92506101a060608701610139565b91506080860135600281106101b457600080fd5b809150509295509295909350565b6001600160a01b038581168252848116602083015283166040820152608081016002831061020057634e487b7160e01b600052602160045260246000fd5b8260608301529594505050505056fe610100604052604051620021243803806200212483398101604081905262000027916200011a565b33806200004e57604051631e4fbdf760e01b81526000600482015260240160405180910390fd5b6200005981620000ad565b506001600160a01b0380851660a05283811660c05282166080528060018111156200008857620000886200017c565b60e08160018111156200009f576200009f6200017c565b815250505050505062000192565b600080546001600160a01b038381166001600160a01b0319831681178455604051919092169283917f8be0079c531659141344cd1fd0a4f28419497f9722a3daafe3b4186f6b6457e09190a35050565b80516001600160a01b03811681146200011557600080fd5b919050565b600080600080608085870312156200013157600080fd5b6200013c85620000fd565b93506200014c60208601620000fd565b92506200015c60408601620000fd565b91506060850151600281106200017157600080fd5b939692955090935050565b634e487b7160e01b600052602160045260246000fd5b60805160a05160c05160e051611eef62000235600039600081816101a6015261117a01526000818161016701526110dc0152600081816101da01526112180152600081816102cb01528181610347015281816103cd01528181610465015281816107eb0152818161083c015281816108e00152818161097c01528181610aa001528181610b2d01528181610c4201528181610fb901526110400152611eef6000f3fe608060405234801561001057600080fd5b50600436106101375760003560e01c8063715018a6116100b8578063a11752791161007c578063a1175279146102c6578063b1a263d3146102ed578063bea140b314610300578063d13181b814610313578063d1849f481461031c578063f2fde38b1461032f57600080fd5b8063715018a61461026b5780637a38d18f146102755780638763d0c41461027e5780638da5cb5b146102a25780639cfced97146102b357600080fd5b80633dfb88b2116100ff5780633dfb88b21461020557806358bfc379146102185780635bb939951461022b57806362a361bb1461023e578063683f3dc31461025157600080fd5b80630cd3b91d1461013c57806313fb893214610162578063295a5212146101a15780632b7ac3f3146101d55780633d6528a1146101fc575b600080fd5b61014f61014a36600461130a565b610342565b6040519081526020015b60405180910390f35b6101897f000000000000000000000000000000000000000000000000000000000000000081565b6040516001600160a01b039091168152602001610159565b6101c87f000000000000000000000000000000000000000000000000000000000000000081565b604051610159919061139f565b6101897f000000000000000000000000000000000000000000000000000000000000000081565b61014f60025481565b61014f610213366004611440565b610616565b61014f6102263660046114e2565b610697565b61014f610239366004611578565b610731565b61014f61024c36600461159a565b610756565b610259600a81565b60405160ff9091168152602001610159565b610273610790565b005b61014f60015481565b60005461029290600160a01b900460ff1681565b6040519015158152602001610159565b6000546001600160a01b0316610189565b61014f6102c13660046115fa565b6107a4565b6101897f000000000000000000000000000000000000000000000000000000000000000081565b6102736102fb366004611635565b6107de565b61014f61030e3660046116c1565b610d1a565b61014f60035481565b61014f61032a36600461171a565b610d54565b61027361033d366004611785565b610e55565b6000807f00000000000000000000000000000000000000000000000000000000000000006001600160a01b0316638aa0ba926040518163ffffffff1660e01b8152600401602060405180830381865afa1580156103a3573d6000803e3d6000fd5b505050506040513d601f19601f820116820180604052508101906103c791906117a9565b905060007f00000000000000000000000000000000000000000000000000000000000000006001600160a01b0316637028bb0e6040518163ffffffff1660e01b8152600401602060405180830381865afa158015610429573d6000803e3d6000fd5b505050506040513d601f19601f8201168201806040525081019061044d91906117c2565b9050600061045e8c8b8b8989610d54565b90506000807f00000000000000000000000000000000000000000000000000000000000000006001600160a01b0316634909229f6040518163ffffffff1660e01b81526004016040805180830381865afa1580156104c0573d6000803e3d6000fd5b505050506040513d601f19601f820116820180604052508101906104e491906117df565b6040805160078082526101008201909252929450909250600091906020820160e080368337019050509050838160008151811061052357610523611803565b602002602001018181525050858160018151811061054357610543611803565b6020026020010181815250508d8160028151811061056357610563611803565b6020026020010181815250508a8160038151811061058357610583611803565b60200260200101818152505089816004815181106105a3576105a3611803565b60209081029190910101526105b8828461182f565b816005815181106105cb576105cb611803565b6020026020010181815250508460ff16816006815181106105ee576105ee611803565b60200260200101818152505061060381610697565b9f9e505050505050505050505050505050565b60405163248f667760e01b815260009073__$ce9c2c925f157047e54fa833ec4e61409f$__9063248f667790610650908590600401611842565b602060405180830381865af415801561066d573d6000803e3d6000fd5b505050506040513d601f19601f8201168201806040525081019061069191906117a9565b92915050565b60007f30644e72e131a029b85045b68181585d2833e84879b9709143e1f593f00000016002836040516020016106cd9190611873565b60408051601f19818403018152908290526106e7916118a9565b602060405180830381855afa158015610704573d6000803e3d6000fd5b5050506040513d601f19601f8201168201806040525081019061072791906117a9565b61069191906118d8565b600061073b6112dd565b8381526020810183905261074e81610756565b949350505050565b6040516314d2f97b60e11b815260009073__$6574937f64fc1d7710ec0e28b7a36713bb$__906329a5f2f6906106509085906004016118fa565b610798610e98565b6107a26000610ec5565b565b604051630926f44b60e31b815260009073__$20527677031d76601747626a9845039fe4$__90634937a25890610650908590600401611922565b6107e6610e98565b61080f7f0000000000000000000000000000000000000000000000000000000000000000610f15565b600054600160a01b900460ff161561083a5760405163a7f0397560e01b815260040160405180910390fd5b7f00000000000000000000000000000000000000000000000000000000000000006001600160a01b031663b5f38c816040518163ffffffff1660e01b8152600401602060405180830381865afa158015610898573d6000803e3d6000fd5b505050506040513d601f19601f820116820180604052508101906108bc919061194a565b6108d957604051631bb80bef60e31b815260040160405180910390fd5b60008060007f00000000000000000000000000000000000000000000000000000000000000006001600160a01b031663ac98e5df6040518163ffffffff1660e01b8152600401608060405180830381865afa15801561093c573d6000803e3d6000fd5b505050506040513d601f19601f82011682018060405250810190610960919061196c565b9350935093505060008360056109769190611aaf565b905060007f00000000000000000000000000000000000000000000000000000000000000006001600160a01b031663bc14ee2b6040518163ffffffff1660e01b8152600401606060405180830381865afa1580156109d8573d6000803e3d6000fd5b505050506040513d601f19601f820116820180604052508101906109fc9190611abe565b50604051631b9b8aa760e01b815260ff87166004820152909250600091506001600160a01b03831690631b9b8aa790602401602060405180830381865afa158015610a4b573d6000803e3d6000fd5b505050506040513d601f19601f82011682018060405250810190610a6f91906117a9565b905080600003610a925760405163c0b868a560e01b815260040160405180910390fd5b600154600003610c0a5760007f00000000000000000000000000000000000000000000000000000000000000006001600160a01b031663c17268d96040518163ffffffff1660e01b8152600401602060405180830381865afa158015610afc573d6000803e3d6000fd5b505050506040513d601f19601f82011682018060405250810190610b2091906117a9565b90508060038190555060007f00000000000000000000000000000000000000000000000000000000000000006001600160a01b0316634f367f0f6040518163ffffffff1660e01b81526004016040805180830381865afa158015610b88573d6000803e3d6000fd5b505050506040513d601f19601f82011682018060405250810190610bac91906117df565b915060009050610bbc86836118d8565b600283905590508115610c065780600003610bee578560026000828254610be39190611b0b565b90915550610c069050565b8060026000828254610c009190611b0b565b90915550505b5050505b610c1e600254826003548b8a8a8a8e610fb2565b610c3e5760405160016268f24f60e01b0319815260040160405180910390fd5b60007f00000000000000000000000000000000000000000000000000000000000000006001600160a01b0316634f367f0f6040518163ffffffff1660e01b81526004016040805180830381865afa158015610c9d573d6000803e3d6000fd5b505050506040513d601f19601f82011682018060405250810190610cc191906117df565b91505060006002541115610ce7578360026000828254610ce19190611b0b565b90915550505b610d0f896002546001546001610cfd919061182f565b610d079088611b1e565b8411156112a4565b505050505050505050565b6040516304b98e1d60e31b815260009073__$dc01a9744591ab014bc46a3b7671cdaefb$__906325cc70e890610650908590600401611b35565b600080610d62836005611aaf565b90506000610d71856005611aaf565b90506000610d7f828a61182f565b905086811115610d8c5750855b600160321b8310610db05760405163df0dbdbd60e01b815260040160405180910390fd5b600160321b8810610dd457604051631805864f60e21b815260040160405180910390fd5b600160321b8910610df8576040516328b2660560e21b815260040160405180910390fd5b600160321b8110610e1c576040516309c5b7c360e21b815260040160405180910390fd5b609681901b60648a901b610e3460328b901b8661182f565b610e3e919061182f565b610e48919061182f565b9998505050505050505050565b610e5d610e98565b6001600160a01b038116610e8c57604051631e4fbdf760e01b8152600060048201526024015b60405180910390fd5b610e9581610ec5565b50565b6000546001600160a01b031633146107a25760405163118cdaa760e01b8152336004820152602401610e83565b600080546001600160a01b038381166001600160a01b0319831681178455604051919092169283917f8be0079c531659141344cd1fd0a4f28419497f9722a3daafe3b4186f6b6457e09190a35050565b600080826001600160a01b0316634909229f6040518163ffffffff1660e01b81526004016040805180830381865afa158015610f55573d6000803e3d6000fd5b505050506040513d601f19601f82011682018060405250810190610f7991906117df565b90925090506000610f8a8342611b0b565b9050818111610fac57604051635c3017c560e11b815260040160405180910390fd5b50505050565b60008060007f00000000000000000000000000000000000000000000000000000000000000006001600160a01b0316634f367f0f6040518163ffffffff1660e01b81526004016040805180830381865afa158015611014573d6000803e3d6000fd5b505050506040513d601f19601f8201168201806040525081019061103891906117df565b9150915060007f00000000000000000000000000000000000000000000000000000000000000006001600160a01b031663bc14ee2b6040518163ffffffff1660e01b8152600401606060405180830381865afa15801561109c573d6000803e3d6000fd5b505050506040513d601f19601f820116820180604052508101906110c09190611abe565b5050905060006110d68d8d86868f8f8f8e610342565b905060007f00000000000000000000000000000000000000000000000000000000000000006001600160a01b031663d88ff4f5846001600160a01b031663652c76e46040518163ffffffff1660e01b8152600401602060405180830381865afa158015611147573d6000803e3d6000fd5b505050506040513d601f19601f8201168201806040525081019061116b91906117c2565b8b8b6111788f6005611aaf565b7f00000000000000000000000000000000000000000000000000000000000000006040518663ffffffff1660e01b81526004016111b9959493929190611b5d565b600060405180830381865afa1580156111d6573d6000803e3d6000fd5b505050506040513d6000823e601f3d908101601f191682016040526111fe9190810190611c4a565b6040516308adcb2560e21b81529091506001600160a01b037f000000000000000000000000000000000000000000000000000000000000000016906322b72c9490611251908a9085908790600401611da8565b602060405180830381865afa15801561126e573d6000803e3d6000fd5b505050506040513d601f19601f82011682018060405250810190611292919061194a565b9e9d5050505050505050505050505050565b60038390556000805460ff60a01b1916600160a01b83151502178155600283905560018054916112d383611ea0565b9190505550505050565b60405180604001604052806002906020820280368337509192915050565b60ff81168114610e9557600080fd5b600080600080600080600080610100898b03121561132757600080fd5b883597506020890135965060408901359550606089013594506080890135935060a0890135925060c089013561135c816112fb565b915060e089013561136c816112fb565b809150509295985092959890939650565b6002811061139b57634e487b7160e01b600052602160045260246000fd5b9052565b60208101610691828461137d565b634e487b7160e01b600052604160045260246000fd5b6040805190810167ffffffffffffffff811182821017156113e6576113e66113ad565b60405290565b60405160a0810167ffffffffffffffff811182821017156113e6576113e66113ad565b604051601f8201601f1916810167ffffffffffffffff81118282101715611438576114386113ad565b604052919050565b60006080828403121561145257600080fd5b82601f83011261146157600080fd5b6040516080810181811067ffffffffffffffff82111715611484576114846113ad565b60405280608084018581111561149957600080fd5b845b818110156114b357803583526020928301920161149b565b509195945050505050565b600067ffffffffffffffff8211156114d8576114d86113ad565b5060051b60200190565b600060208083850312156114f557600080fd5b823567ffffffffffffffff81111561150c57600080fd5b8301601f8101851361151d57600080fd5b803561153061152b826114be565b61140f565b81815260059190911b8201830190838101908783111561154f57600080fd5b928401925b8284101561156d57833582529284019290840190611554565b979650505050505050565b6000806040838503121561158b57600080fd5b50508035926020909101359150565b6000604082840312156115ac57600080fd5b82601f8301126115bb57600080fd5b6115c36113c3565b8060408401858111156115d557600080fd5b845b818110156115ef5780358452602093840193016115d7565b509095945050505050565b600060a0828403121561160c57600080fd5b82601f83011261161b57600080fd5b6116236113ec565b8060a08401858111156115d557600080fd5b60008061012080848603121561164a57600080fd5b83359250602085603f86011261165f57600080fd5b604051610100810181811067ffffffffffffffff82111715611683576116836113ad565b60405291850191808784111561169857600080fd5b8287015b848110156116b3578035825290830190830161169c565b509497909650945050505050565b6000606082840312156116d357600080fd5b82601f8301126116e257600080fd5b6040516060810181811067ffffffffffffffff82111715611705576117056113ad565b60405280606084018581111561149957600080fd5b600080600080600060a0868803121561173257600080fd5b8535945060208601359350604086013592506060860135611752816112fb565b91506080860135611762816112fb565b809150509295509295909350565b6001600160a01b0381168114610e9557600080fd5b60006020828403121561179757600080fd5b81356117a281611770565b9392505050565b6000602082840312156117bb57600080fd5b5051919050565b6000602082840312156117d457600080fd5b81516117a2816112fb565b600080604083850312156117f257600080fd5b505080516020909101519092909150565b634e487b7160e01b600052603260045260246000fd5b634e487b7160e01b600052601160045260246000fd5b8082018082111561069157610691611819565b60808101818360005b600481101561186a57815183526020928301929091019060010161184b565b50505092915050565b815160009082906020808601845b8381101561189d57815185529382019390820190600101611881565b50929695505050505050565b6000825160005b818110156118ca57602081860181015185830152016118b0565b506000920191825250919050565b6000826118f557634e487b7160e01b600052601260045260246000fd5b500690565b60408101818360005b600281101561186a578151835260209283019290910190600101611903565b60a08101818360005b600581101561186a57815183526020928301929091019060010161192b565b60006020828403121561195c57600080fd5b815180151581146117a257600080fd5b6000806000806080858703121561198257600080fd5b845161198d816112fb565b602086015190945061199e816112fb565b60408601519093506119af816112fb565b60608601519092506119c0816112fb565b939692955090935050565b600181815b80851115611a065781600019048211156119ec576119ec611819565b808516156119f957918102915b93841c93908002906119d0565b509250929050565b600082611a1d57506001610691565b81611a2a57506000610691565b8160018114611a405760028114611a4a57611a66565b6001915050610691565b60ff841115611a5b57611a5b611819565b50506001821b610691565b5060208310610133831016604e8410600b8410161715611a89575081810a610691565b611a9383836119cb565b8060001904821115611aa757611aa7611819565b029392505050565b60006117a260ff841683611a0e565b600080600060608486031215611ad357600080fd5b8351611ade81611770565b6020850151909350611aef81611770565b6040850151909250611b0081611770565b809150509250925092565b8181038181111561069157610691611819565b808202811582820484141761069157610691611819565b60608101818360005b600381101561186a578151835260209283019290910190600101611b3e565b60ff86811682528581166020830152841660408201526060810183905260a08101611b8b608083018461137d565b9695505050505050565b600060408284031215611ba757600080fd5b611baf6113c3565b9050815181526020820151602082015292915050565b600082601f830112611bd657600080fd5b611bde6113c3565b806040840185811115611bf057600080fd5b845b818110156115ef578051845260209384019301611bf2565b600060808284031215611c1c57600080fd5b611c246113c3565b9050611c308383611bc5565b8152611c3f8360408401611bc5565b602082015292915050565b60006020808385031215611c5d57600080fd5b825167ffffffffffffffff80821115611c7557600080fd5b908401906101e08287031215611c8a57600080fd5b611c926113ec565b611c9c8784611b95565b81526040611cac88828601611c0a565b85830152611cbd8860c08601611c0a565b81830152611ccf886101408601611c0a565b60608301526101c084015183811115611ce757600080fd5b80850194505087601f850112611cfc57600080fd5b83519250611d0c61152b846114be565b83815260069390931b84018501928581019089851115611d2b57600080fd5b948601945b84861015611d5157611d428a87611b95565b82529482019490860190611d30565b60808401525090979650505050505050565b8060005b6002811015610fac578151845260209384019390910190600101611d67565b611d91828251611d63565b6020810151611da36040840182611d63565b505050565b60006101408286835b6008811015611dd0578151835260209283019290910190600101611db1565b505050806101008401526103208301611df6828501875180518252602090810151910152565b6020915081860151611e0c610180860182611d86565b50604080870151611e21610200870182611d86565b506060870151611e35610280870182611d86565b5060808701516101e06103008701528051928390528301916000906103408701905b80831015611e8857611e7482865180518252602090810151910152565b938501936001929092019190830190611e57565b50809550505050505082610120830152949350505050565b600060018201611eb257611eb2611819565b506001019056fea264697066735822122069bd60e0453472d70a759d3c94fd4d6e0542c93e26d5a111d846b1a9e2237c7b64736f6c63430008140033a2646970667358221220171e672d7e5780eb01b327057fb7eee3db480645a9a0efc8cd3c34813776fd4964736f6c63430008140033",
  "libraries": {
    "PoseidonT3": "0x74a7Cfe7fd956c53E754C300a1DDddC9713A7dA1",
    "PoseidonT4": "0xb78AC47CC2c51f07E19Eb1A465660d18AE41BD24",
    "PoseidonT5": "0x88442E8223A9e71ca7ef529EC42636EE42CFF281",
    "PoseidonT6": "0x039AE9F5c35deecCCBD9f1B7464D5f7529627F4C"
  }
}