{
  "address": "0xE6eaa758cFf7C6F179a88D6A2cC0C40610ce46C3",
  "abi": [
    {
      "inputs": [],
      "stateMutability": "payable",
      "type": "constructor"
    },
    {
      "inputs": [],
      "name": "InvalidMaxValues",
      "type": "error"
    },
    {
      "inputs": [],
      "name": "MESSAGE_DATA_LENGTH",
      "outputs": [
        {
          "internalType": "uint8",
          "name": "",
          "type": "uint8"
        }
      ],
      "stateMutability": "view",
      "type": "function"
    },
    {
      "inputs": [
        {
          "internalType": "uint256",
          "name": "_duration",
          "type": "uint256"
        },
        {
          "components": [
            {
              "internalType": "uint256",
              "name": "maxMessages",
              "type": "uint256"
            },
            {
              "internalType": "uint256",
              "name": "maxVoteOptions",
              "type": "uint256"
            }
          ],
          "internalType": "struct Params.MaxValues",
          "name": "_maxValues",
          "type": "tuple"
        },
        {
          "components": [
            {
              "internalType": "uint8",
              "name": "intStateTreeDepth",
              "type": "uint8"
            },
            {
              "internalType": "uint8",
              "name": "messageTreeSubDepth",
              "type": "uint8"
            },
            {
              "internalType": "uint8",
              "name": "messageTreeDepth",
              "type": "uint8"
            },
            {
              "internalType": "uint8",
              "name": "voteOptionTreeDepth",
              "type": "uint8"
            }
          ],
          "internalType": "struct Params.TreeDepths",
          "name": "_treeDepths",
          "type": "tuple"
        },
        {
          "components": [
            {
              "internalType": "uint256",
              "name": "x",
              "type": "uint256"
            },
            {
              "internalType": "uint256",
              "name": "y",
              "type": "uint256"
            }
          ],
          "internalType": "struct DomainObjs.PubKey",
          "name": "_coordinatorPubKey",
          "type": "tuple"
        },
        {
          "internalType": "address",
          "name": "_maci",
          "type": "address"
        },
        {
          "internalType": "contract TopupCredit",
          "name": "_topupCredit",
          "type": "address"
        },
        {
          "internalType": "address",
          "name": "_pollOwner",
          "type": "address"
        }
      ],
      "name": "deploy",
      "outputs": [
        {
          "internalType": "address",
          "name": "pollAddr",
          "type": "address"
        }
      ],
      "stateMutability": "nonpayable",
      "type": "function"
    }
  ],
  "transactionHash": "0xa7a6a1f024a651335a1438b4f2c59a05f129302aa727eedd3d7ce7823687770d",
  "args": [],
  "numDeployments": 1,
  "bytecode": "0x6080604052614e16806100136000396000f3fe60806040523480156200001157600080fd5b50600436106200003a5760003560e01c8063683f3dc3146200003f578063b43c4969146200005f575b600080fd5b62000048600a81565b60405160ff90911681526020015b60405180910390f35b6200007662000070366004620002f6565b6200008f565b6040516001600160a01b03909116815260200162000056565b60006604000000000000876020013510620000bd576040516302c3596560e51b815260040160405180910390fd5b6000620000d16040880160208901620003b2565b604051620000df90620002a8565b60ff9091168152602001604051809103906000f08015801562000106573d6000803e3d6000fd5b50905060006040518060600160405280876001600160a01b03168152602001836001600160a01b03168152602001866001600160a01b0316815250905060008a8a8a8a856040516200015890620002b6565b62000168959493929190620003d7565b604051809103906000f08015801562000185573d6000803e3d6000fd5b5060405163f2fde38b60e01b81526001600160a01b0380831660048301529192509084169063f2fde38b90602401600060405180830381600087803b158015620001ce57600080fd5b505af1158015620001e3573d6000803e3d6000fd5b50505050806001600160a01b031663e1c7392a6040518163ffffffff1660e01b8152600401600060405180830381600087803b1580156200022357600080fd5b505af115801562000238573d6000803e3d6000fd5b505060405163f2fde38b60e01b81526001600160a01b0388811660048301528416925063f2fde38b9150602401600060405180830381600087803b1580156200028057600080fd5b505af115801562000295573d6000803e3d6000fd5b50929d9c50505050505050505050505050565b6122dc806200049783390190565b61266e806200277383390190565b600060408284031215620002d757600080fd5b50919050565b6001600160a01b0381168114620002f357600080fd5b50565b60008060008060008060008789036101808112156200031457600080fd5b88359750620003278a60208b01620002c4565b96506080605f19820112156200033c57600080fd5b50606088019450620003528960e08a01620002c4565b93506101208801356200036581620002dd565b92506101408801356200037881620002dd565b91506101608801356200038b81620002dd565b8091505092959891949750929550565b803560ff81168114620003ad57600080fd5b919050565b600060208284031215620003c557600080fd5b620003d0826200039b565b9392505050565b8581526101808101620003f7602083018780358252602090810135910152565b60ff62000404866200039b565b16606083015260ff6200041a602087016200039b565b16608083015260ff62000430604087016200039b565b1660a083015260ff62000446606087016200039b565b1660c0830152833560e0830152602084013561010083015282516001600160a01b03908116610120840152602084015181166101408401526040909301519092166101609091015294935050505056fe60e06040523480156200001157600080fd5b50604051620022dc380380620022dc83398101604081905262000034916200063d565b8080600533806200006057604051631e4fbdf760e01b8152600060048201526024015b60405180910390fd5b6200006b81620005ed565b50816000036200008e5760405163682e504160e11b815260040160405180910390fd5b6020821115620000bc57604051637ccdcc9760e11b8152600481018390526020602482015260440162000057565b80600214158015620000cf575080600514155b15620000ee57604051636f7b6c0360e01b815260040160405180910390fd5b6000805460ff60a01b191660028314600160a01b02179055608082905260a08190526200011c82826200076c565b60c05250507f12817f4161f2f5ded33f26c55735a77e80e4f8975483c8c2704745128417f7116101725550507f1c8de1edeabc24fc4c1595acaabb70be9b70f351d58c6fa338e1e9a994413bfb610173557f22fcda488c14b34fc60eb073fbe92fe10793e2ab14682e0f057332ddbef3d55c610174557f2db474db7c7212646cb15c6177d87be30711e6c04f1139d8e495ef1d1d998227610175557efde404053ec39a19f6ac347121a2264815dda84f910a388cb372e967a5d08c610176557f0723792ffab6ec6cfb3ece1509b9b4fb07e5bdb2299d1538e6e1db916f90cf89610177557f2a4392ec4e3d1811cd6a950cc865ee6f2342910a6551c5dce38cb995576c7c70610178557f1dead4c14f75e9d8449c80b648dcd4694c2ee50da2ba16e5e438f0d77ab02e34610179557f124c53ce0953fffb7ab5e3c143df6cd48ba747d3959fcb8086405d763ed5455061017a557f02bae19605746a8cd3f0927b2c01630f36f4d1bab9216ca839833e7ff6efa20661017b557f1f8375099becf17173d457d0d07bfb74c7067df1143b5ad987046e8e66817bc961017c557f0e13e954d61bb3fa3b03e7d136ca909b610fa2ca4443d920d94d16684f2b83d461017d557f1416ef2fc4f88fcfc4f9eb12f8e214b1c3e31c6c10ece9cfa51f078a3bbf345761017e557f032f915ff71e198a7955d2697249f40fb94c65812ed24e670c9700f52fdf6e0e61017f557f08bfebf4b3ddb0f8c51dd40193f5996da9f3d799ee0d8beb6be4038132df60b4610180557f065ac498cf4a5acaeb3b6cee826da9f834c961fa39feff6ae925b90dff79b613610181557f2e72c628101a93201b912a3e3fe96d39b0a9076ec39b7935a015c59bb32b8a2a610182557f19bba68e7b9da1e6ec42e52d7ab2adaf3b6a5521b1a454ec70f62e0ab702c085610183557f0de1f72745a5af2a34cac412e00eb6c8b5db1f3b52fa1bff88076c2726b83b08610184557f2e8f152603b2fac10d6a14c841327c23c502537367ccb1e42fab9a3bd9db2a8d610185557f14e16c3e0dcfd7e621a32627ebf37f6c0afb4467d34c7b7aeffded11769dec85610186557f0be1e62127948b4805c85a1d836574f0892ca6473fcde98f3fd1781248a9768f610187557f0930288fbd7c849197c8372f1dd8f9087f8a03f09b9cd904a469c15ef6b1b515610188557f231cac34e215e3f404d2fcfb79e0705deeb3d40978f0ee31072f6cbc1b579e33610189557f2e0e3cd2718ac7199b81dc14e841de40a9536b7ffe95fa1fc9c6b799e43e2c9761018a557f0718452506f0a232e98966d84b1a4675a66bd80263a2dc58bdac873825752fc361018b557f162d4ed998307d6e132edbf5c11f62f53d4636aa10cb3c2244c2bf5577168c3761018c557f247d6a5544a8f295a894ae77c7efcdcbf52e3bf4e5d0c0d2f40557a61d44984861018d557f0b8de3868471f109e91670daca698dba917d1c5535821f33aa9598d1db8e3d1961018e557f29851997020f527c92e20f030d232b81d334144a641e6a8866b46dd925005bbb61018f557f1a9cfcbe29a2b6503a03049727c0bca3111afd62f2836f392080321d1b4ef642610190557f1aa3ead91fa89cc1d6cb1d0eb76a27190c6abfdd3265d6d0a1e5c58feddaddf6610191557f0702fc26a7d367e6677efefd95204a7e00144c2fc7dbc2a581aa00d99f51f0816101925562000781565b600080546001600160a01b038381166001600160a01b0319831681178455604051919092169283917f8be0079c531659141344cd1fd0a4f28419497f9722a3daafe3b4186f6b6457e09190a35050565b6000602082840312156200065057600080fd5b5051919050565b634e487b7160e01b600052601160045260246000fd5b600181815b80851115620006ae57816000190482111562000692576200069262000657565b80851615620006a057918102915b93841c939080029062000672565b509250929050565b600082620006c75750600162000766565b81620006d65750600062000766565b8160018114620006ef5760028114620006fa576200071a565b600191505062000766565b60ff8411156200070e576200070e62000657565b50506001821b62000766565b5060208310610133831016604e8410600b84101617156200073f575081810a62000766565b6200074b83836200066d565b806000190482111562000762576200076262000657565b0290505b92915050565b60006200077a8383620006b6565b9392505050565b60805160a05160c051611aad6200082f600039600081816103ea01528181610a2501528181610ac201528181610c7f0152610d820152600081816103230152818161056e015281816106e401528181610bb401528181610ec301528181611037015261129801526000818161041a0152818161047b0152818161054401528181610bed01528181610cb801528181610d0201528181610e6401528181610f1a01526111d30152611aad6000f3fe608060405234801561001057600080fd5b50600436106101585760003560e01c806381d6a24a116100c3578063c00bdbcc1161007c578063c00bdbcc146102b8578063c15da65b146102cb578063d9c55ce1146102de578063dda89a6e146102e6578063e93fb4d4146102f0578063f2fde38b1461030357600080fd5b806381d6a24a146102455780638da5cb5b146102615780639cfced971461027c578063a27154ba1461028f578063b6a64acd14610297578063bea140b3146102a557600080fd5b806358bfc3791161011557806358bfc379146101cc5780635bb93995146101df5780635bf1fa4d146101f257806362a361bb1461020557806369e7c58614610218578063715018a61461023b57600080fd5b80631b9b8aa71461015d5780631ffc735d1461018357806324a47aeb146101965780633bfa6fce146101a95780633dfb88b2146101b15780633e1a8cc1146101c4575b600080fd5b61017061016b3660046114ba565b610316565b6040519081526020015b60405180910390f35b6101706101913660046114ba565b610399565b6101706101a43660046114ba565b6104c7565b6101706106d8565b6101706101bf36600461151a565b610723565b6101706107a4565b6101706101da366004611598565b6107d3565b6101706101ed36600461163e565b61086d565b61017061020036600461163e565b610892565b610170610213366004611660565b610931565b61016e5461022b90610100900460ff1681565b604051901515815260200161017a565b61024361096b565b005b610170546001546040805192835260208301919091520161017a565b6000546040516001600160a01b03909116815260200161017a565b61017061028a3660046116bb565b61097f565b610170602081565b61016e5461022b9060ff1681565b6101706102b3366004611714565b6109b9565b6102436102c63660046114ba565b6109f3565b6102436102d93660046114ba565b610a6f565b610243610c75565b6101706101715481565b6101706102fe3660046114ba565b610dbf565b61024361031136600461176d565b610dfa565b61017154600090610347837f0000000000000000000000000000000000000000000000000000000000000000611897565b101561037d5761017154604051627289df60e61b8152610374918491600401918252602082015260400190565b60405180910390fd5b61014d8260218110610391576103916118a3565b015492915050565b60006103a3610e35565b50610171546103b3826000610e62565b6103be8160016118b9565b610171556103cf61014d600061141f565b600061016f5561016e805460ff191690556101715461040f907f0000000000000000000000000000000000000000000000000000000000000000906118cc565b6000036104c25760027f000000000000000000000000000000000000000000000000000000000000000060218110610449576104496118a3565b600402015460018054600090815261014c6020526040812092909255805491610471836118ee565b90915550600290507f0000000000000000000000000000000000000000000000000000000000000000602181106104aa576104aa6118a3565b6004020160008091018190556104c29060869061141f565b919050565b60006104d1610e35565b816000036104f257604051630543d40760e11b815260040160405180910390fd5b61016e5460ff1661051657604051631e596e4360e11b815260040160405180910390fd5b602082111561054257604051632cd31ae960e01b81526004810183905260206024820152604401610374565b7f00000000000000000000000000000000000000000000000000000000000000005b61017154610592827f0000000000000000000000000000000000000000000000000000000000000000611897565b10156105aa57806105a2816118ee565b915050610564565b808310156105d457604051627289df60e61b81526004810184905260248101829052604401610374565b8083036106105761016f5461014d84602181106105f3576105f36118a3565b0155505061016e805461ff00191661010017905561016f54919050565b61016f549150805b838110156106aa57600061062b82610fa3565b600054909150600160a01b900460ff16156106635761064861142e565b8481526020810182905261065b81610931565b945050610697565b61066b61144c565b848152602081018290526040810182905260608101829052608081018290526106938161097f565b9450505b50806106a2816118ee565b915050610618565b508161014d84602181106106c0576106c06118a3565b015561016e805461ff00191661010017905550919050565b60015b600154610708827f0000000000000000000000000000000000000000000000000000000000000000611897565b10156107205780610718816118ee565b9150506106db565b90565b60405163248f667760e01b81526000907388442E8223A9e71ca7ef529EC42636EE42CFF2819063248f66779061075d908590600401611907565b602060405180830381865af415801561077a573d6000803e3d6000fd5b505050506040513d601f19601f8201168201806040525081019061079e9190611938565b92915050565b61016e5460009060ff166107cb57604051631e596e4360e11b815260040160405180910390fd5b5061016f5490565b60007f30644e72e131a029b85045b68181585d2833e84879b9709143e1f593f00000016002836040516020016108099190611951565b60408051601f198184030181529082905261082391611987565b602060405180830381855afa158015610840573d6000803e3d6000fd5b5050506040513d601f19601f820116820180604052508101906108639190611938565b61079e91906118cc565b600061087761142e565b8381526020810183905261088a81610931565b949350505050565b600061089c61144c565b600284602181106108af576108af6118a3565b60040201548152600284602181106108c9576108c96118a3565b60040201600101548160016020020152600284602181106108ec576108ec6118a3565b600402016002015481600260200201526002846021811061090f5761090f6118a3565b6004020160030154816003602002015282816004602002015261088a8161097f565b6040516314d2f97b60e11b81526000907374a7Cfe7fd956c53E754C300a1DDddC9713A7dA1906329a5f2f69061075d9085906004016119b6565b610973610e35565b61097d6000610fb9565b565b604051630926f44b60e31b815260009073039AE9F5c35deecCCBD9f1B7464D5f7529627F4C90634937a2589061075d9085906004016119de565b6040516304b98e1d60e31b815260009073b78AC47CC2c51f07E19Eb1A465660d18AE41BD24906325cc70e89061075d908590600401611a06565b6109fb610e35565b60018054600090815261014c6020526040812083905581549190610a1e836118ee565b91905055507f00000000000000000000000000000000000000000000000000000000000000006101716000828254610a5691906118b9565b9091555050600061016f555061016e805460ff19169055565b610a77610e35565b61016e5460ff1615610a9c57604051630d36aec160e01b815260040160405180910390fd5b61017154600003610ac0576040516316a0341160e11b815260040160405180910390fd5b7f000000000000000000000000000000000000000000000000000000000000000061017154610aef91906118cc565b15610afc57610afc610c75565b600154600103610b2557610b106000610dbf565b61016f5561016e805460ff1916600117905550565b6000610b2f6106d8565b610170549091506000905b600154811015610bab578315801590610b5257508382145b15610b5d5750505050565b610b74610b6c61017054610dbf565b600085611009565b6101708054906000610b85836118ee565b91905055508180610b95906118ee565b9250508080610ba3906118ee565b915050610b3a565b506000610bd8837f0000000000000000000000000000000000000000000000000000000000000000611897565b90506001546101705403610c41576000610c117f0000000000000000000000000000000000000000000000000000000000000000610fa3565b6001549091505b82811015610c3e57610c2c82600087611009565b80610c36816118ee565b915050610c18565b50505b60a78360218110610c5457610c546118a3565b600402016000015461016f55505061016e805460ff19166001179055505b50565b610c7d610e35565b7f000000000000000000000000000000000000000000000000000000000000000061017154610cac91906118cc565b600003610cf457610cdc7f0000000000000000000000000000000000000000000000000000000000000000610fa3565b600154600090815261014c6020526040902055610d65565b610cfe60006111d1565b60027f000000000000000000000000000000000000000000000000000000000000000060218110610d3157610d316118a3565b6004020154600154600090815261014c6020526040812091909155610d589060029061146a565b610d6561014d600061141f565b60006001546001610d7691906118b9565b60018190559050610da77f000000000000000000000000000000000000000000000000000000000000000082611a2e565b6101715550600061016f5561016e805460ff19169055565b60008160015411610de65760405163042a2e7160e11b815260048101839052602401610374565b50600090815261014c602052604090205490565b610e02610e35565b6001600160a01b038116610e2c57604051631e4fbdf760e01b815260006004820152602401610374565b610c7281610fb9565b6000546001600160a01b0316331461097d5760405163118cdaa760e01b8152336004820152602401610374565b7f0000000000000000000000000000000000000000000000000000000000000000811115610ea35760405163d1459f7960e01b815260040160405180910390fd5b600060868260218110610eb857610eb86118a3565b01549050610ee760017f0000000000000000000000000000000000000000000000000000000000000000611a45565b8114610f6c578260028360218110610f0157610f016118a3565b600402018260048110610f1657610f166118a3565b01557f00000000000000000000000000000000000000000000000000000000000000008214610f675760868260218110610f5257610f526118a3565b018054906000610f61836118ee565b91905055505b505050565b610f76828461133d565b925060868260218110610f8b57610f8b6118a3565b600091015581610f9a816118ee565b92505050610ea3565b60006101728260218110610391576103916118a3565b600080546001600160a01b038381166001600160a01b0319831681178455604051919092169283917f8be0079c531659141344cd1fd0a4f28419497f9722a3daafe3b4186f6b6457e09190a35050565b8082111561101657505050565b600061012b836021811061102c5761102c6118a3565b0154905061105b60017f0000000000000000000000000000000000000000000000000000000000000000611a45565b81146110b9578360a78460218110611075576110756118a3565b60040201826004811061108a5761108a6118a3565b015561012b83602181106110a0576110a06118a3565b0180549060006110af836118ee565b91905055506111cb565b60008054600160a01b900460ff1615611106576110d461142e565b60a785602181106110e7576110e76118a3565b60040201548152602081018690526110fe81610931565b91505061119b565b61110e61144c565b60005b838160ff1610156111755760a7866021811061112f5761112f6118a3565b600402018160ff1660048110611147576111476118a3565b0154828260ff166005811061115e5761115e6118a3565b60200201528061116d81611a58565b915050611111565b5085818460058110611189576111896118a3565b60200201526111978161097f565b9150505b61012b84602181106111af576111af6118a3565b60009101556111c9816111c38660016118b9565b85611009565b505b50505050565b7f0000000000000000000000000000000000000000000000000000000000000000811015610c725760006086826021811061120e5761120e6118a3565b01549050801561131257600061122261144c565b600061122d85610fa3565b905060005b848160ff1610156112965760028660218110611250576112506118a3565b600402018160ff1660048110611268576112686118a3565b0154838260ff166005811061127f5761127f6118a3565b60200201528061128e81611a58565b915050611232565b7f00000000000000000000000000000000000000000000000000000000000000008160ff1610156112ee5781838260ff16600581106112d7576112d76118a3565b6020020152806112e681611a58565b915050611296565b6112f78361097f565b935061130d846113088860016118b9565b610e62565b505050505b60868260218110611325576113256118a3565b600091015581611334816118ee565b925050506111d1565b600061134761144c565b6002846021811061135a5761135a6118a3565b6004020154815260028460218110611374576113746118a3565b6004020160010154816001602002015260028460218110611397576113976118a3565b60040201600201548160026020020152600284602181106113ba576113ba6118a3565b600402016003015481600360200201528281600460200201526113dc8161097f565b9150600284602181106113f1576113f16118a3565b60040201600061141891905060008155600101600081556001016000815560010160009055565b5092915050565b50610c72906021810190611479565b60405180604001604052806002906020820280368337509192915050565b6040518060a001604052806005906020820280368337509192915050565b50610c72906084810190611492565b5b8082111561148e576000815560010161147a565b5090565b8082111561148e57600080825560018201819055600282018190556003820155600401611492565b6000602082840312156114cc57600080fd5b5035919050565b634e487b7160e01b600052604160045260246000fd5b604051601f8201601f1916810167ffffffffffffffff81118282101715611512576115126114d3565b604052919050565b60006080828403121561152c57600080fd5b82601f83011261153b57600080fd5b6040516080810181811067ffffffffffffffff8211171561155e5761155e6114d3565b60405280608084018581111561157357600080fd5b845b8181101561158d578035835260209283019201611575565b509195945050505050565b600060208083850312156115ab57600080fd5b823567ffffffffffffffff808211156115c357600080fd5b818501915085601f8301126115d757600080fd5b8135818111156115e9576115e96114d3565b8060051b91506115fa8483016114e9565b818152918301840191848101908884111561161457600080fd5b938501935b8385101561163257843582529385019390850190611619565b98975050505050505050565b6000806040838503121561165157600080fd5b50508035926020909101359150565b60006040828403121561167257600080fd5b82601f83011261168157600080fd5b6040516040810181811067ffffffffffffffff821117156116a4576116a46114d3565b806040525080604084018581111561157357600080fd5b600060a082840312156116cd57600080fd5b82601f8301126116dc57600080fd5b60405160a0810181811067ffffffffffffffff821117156116ff576116ff6114d3565b6040528060a084018581111561157357600080fd5b60006060828403121561172657600080fd5b82601f83011261173557600080fd5b6040516060810181811067ffffffffffffffff82111715611758576117586114d3565b60405280606084018581111561157357600080fd5b60006020828403121561177f57600080fd5b81356001600160a01b038116811461179657600080fd5b9392505050565b634e487b7160e01b600052601160045260246000fd5b600181815b808511156117ee5781600019048211156117d4576117d461179d565b808516156117e157918102915b93841c93908002906117b8565b509250929050565b6000826118055750600161079e565b816118125750600061079e565b816001811461182857600281146118325761184e565b600191505061079e565b60ff8411156118435761184361179d565b50506001821b61079e565b5060208310610133831016604e8410600b8410161715611871575081810a61079e565b61187b83836117b3565b806000190482111561188f5761188f61179d565b029392505050565b600061179683836117f6565b634e487b7160e01b600052603260045260246000fd5b8082018082111561079e5761079e61179d565b6000826118e957634e487b7160e01b600052601260045260246000fd5b500690565b6000600182016119005761190061179d565b5060010190565b60808101818360005b600481101561192f578151835260209283019290910190600101611910565b50505092915050565b60006020828403121561194a57600080fd5b5051919050565b815160009082906020808601845b8381101561197b5781518552938201939082019060010161195f565b50929695505050505050565b6000825160005b818110156119a8576020818601810151858301520161198e565b506000920191825250919050565b60408101818360005b600281101561192f5781518352602092830192909101906001016119bf565b60a08101818360005b600581101561192f5781518352602092830192909101906001016119e7565b60608101818360005b600381101561192f578151835260209283019290910190600101611a0f565b808202811582820484141761079e5761079e61179d565b8181038181111561079e5761079e61179d565b600060ff821660ff8103611a6e57611a6e61179d565b6001019291505056fea2646970667358221220de48377ebab560ef190138d15ea2cd48ec74d706562bdc76aca8c6093ed43a8e64736f6c6343000814003360e06040526040516200266e3803806200266e833981016040819052620000269162000527565b33806200004d57604051631e4fbdf760e01b81526000600482015260240160405180910390fd5b620000588162000222565b507f1d5cfc650c3aa26c2187b82a0cdf6df742ffdce0eac4b2b9b4078e181a80995c6001557f0fd34e2fb0a3303440acfb5c4aa5d73e9918f8d8a3c2129968e9a84f822632bf6002557f1593a49c239fc3b29916a95313c468e3c868623989528986e54f94eef0a5d85a6003557f2e7b267c72eedc6a043b4007ab6454d70b0ff96eba7d6395a1e6a80de057c3056004557f289512174b729b056029888f461dea952ed4bb2a0f8da5923b8527481a6c8e026005558151602083015162000120919062000272565b6200013e576040516379fae7af60e01b815260040160405180910390fd5b81516007819055602083015160088190556200015b919062000327565b6080528051601280546001600160a01b039283166001600160a01b03199182161790915560208084015160138054918516918416919091179055604093840151601480549190941692169190911790915560c0959095528351600f559284015160105550805160118054948301519383015160609093015160ff90811663010000000263ff0000001994821662010000029490941663ffff0000199582166101000261ffff1990971691909316179490941792909216919091171790554260a052620006e1565b600080546001600160a01b038381166001600160a01b0319831681178455604051919092169283917f8be0079c531659141344cd1fd0a4f28419497f9722a3daafe3b4186f6b6457e09190a35050565b6000806000805160206200264e833981519152848509905060006000805160206200264e833981519152848509905060006000805160206200264e833981519152826000805160206200264e83398151915285620292fc0908905060006000805160206200264e83398151915280846000805160206200264e83398151915287620292f8090960010890506200031982826000805160206200264e83398151915262000350565b159450505050505b92915050565b60006200033362000413565b83815260208101839052620003488162000393565b949350505050565b6000838381116200036a5762000367838262000668565b90505b82806200037b576200037b6200063c565b60006200038986846200067e565b0895945050505050565b6040516314d2f97b60e11b81526000907374a7Cfe7fd956c53E754C300a1DDddC9713A7dA1906329a5f2f690620003cf90859060040162000694565b602060405180830381865af4158015620003ed573d6000803e3d6000fd5b505050506040513d601f19601f82011682018060405250810190620003219190620006c7565b60405180604001604052806002906020820280368337509192915050565b604051608081016001600160401b03811182821017156200046257634e487b7160e01b600052604160045260246000fd5b60405290565b604051606081016001600160401b03811182821017156200046257634e487b7160e01b600052604160045260246000fd5b600060408284031215620004ac57600080fd5b604080519081016001600160401b0381118282101715620004dd57634e487b7160e01b600052604160045260246000fd5b604052825181526020928301519281019290925250919050565b805160ff811681146200050957600080fd5b919050565b6001600160a01b03811681146200052457600080fd5b50565b60008060008060008587036101808112156200054257600080fd5b8651955062000555886020890162000499565b94506080605f19820112156200056a57600080fd5b6200057462000431565b6200058260608901620004f7565b81526200059260808901620004f7565b6020820152620005a560a08901620004f7565b6040820152620005b860c08901620004f7565b60608201529350620005ce8860e0890162000499565b9250606061011f1982011215620005e457600080fd5b50620005ef62000468565b61012087015162000600816200050e565b815261014087015162000613816200050e565b602082015261016087015162000629816200050e565b6040820152949793965091945092919050565b634e487b7160e01b600052601260045260246000fd5b634e487b7160e01b600052601160045260246000fd5b8082018082111562000321576200032162000652565b8181038181111562000321576200032162000652565b60408101818360005b6002811015620006be5781518352602092830192909101906001016200069d565b50505092915050565b600060208284031215620006da57600080fd5b5051919050565b60805160a05160c051611ef762000757600039600081816102ef015281816105520152818161072301528181610a4b01528181610c3601526110100152600081816102ce01528181610529015281816106fa01528181610a2201528181610c0d0152610fe7015260006103ba0152611ef76000f3fe608060405234801561001057600080fd5b50600436106101fa5760003560e01c8063683f3dc31161011a5780639cfced97116100ad578063bea140b31161007c578063bea140b3146104da578063c17268d9146104ed578063e1c7392a146104f6578063f2fde38b146104fe578063fba630f21461051157600080fd5b80639cfced971461040a578063ac98e5df1461041d578063b5f38c8114610473578063bc14ee2b1461049057600080fd5b80637d0a81c8116100e95780637d0a81c8146103a25780638aa0ba92146103b55780638da5cb5b146103dc5780639c971729146103f757600080fd5b8063683f3dc3146103605780637028bb0e1461037a578063715018a6146103875780637296aaea1461038f57600080fd5b8063394b78a21161019257806358bfc3791161016157806358bfc3791461031e5780635bb93995146103315780635d5909dd1461034457806362a361bb1461034d57600080fd5b8063394b78a2146102a65780633dfb88b2146102b95780634909229f146102cc5780634f367f0f1461031357600080fd5b80630f4cf692116101ce5780630f4cf6921461025b578063167fd48314610272578063184ff47f1461028557806331e766a51461029857600080fd5b8062329f2f146101ff5780630396a0ce1461020957806306912d3c146102315780630dc8317714610253575b600080fd5b61020761051a565b005b600f54601054610217919082565b604080519283526020830191909152015b60405180910390f35b61024461023f36600461158f565b61063d565b604051610228939291906115e7565b6102076106eb565b610264600c5481565b604051908152602001610228565b6102646102803660046116d8565b610942565b61020761029336600461170f565b610a1b565b600754600854610217919082565b6102076102b4366004611731565b610c06565b6102646102c7366004611774565b610d97565b7f00000000000000000000000000000000000000000000000000000000000000007f0000000000000000000000000000000000000000000000000000000000000000610217565b600d54600c54610217565b61026461032c3660046117f2565b610e18565b61026461033f36600461170f565b610ea0565b610264600d5481565b61026461035b366004611898565b610ec5565b610368600a81565b60405160ff9091168152602001610228565b600e546103689060ff1681565b610207610eff565b61020761039d3660046118b4565b610f13565b6102646103b036600461197d565b610f98565b6102647f000000000000000000000000000000000000000000000000000000000000000081565b6000546040516001600160a01b039091168152602001610228565b6102076104053660046119df565b610fd8565b6102646104183660046119f8565b6110db565b6011546104469060ff808216916101008104821691620100008204811691630100000090041684565b6040805160ff95861681529385166020850152918416918301919091529091166060820152608001610228565b600a546104809060ff1681565b6040519015158152602001610228565b6012546013546014546104b0926001600160a01b03908116928116911683565b604080516001600160a01b0394851681529284166020840152921691810191909152606001610228565b6102646104e8366004611a51565b611115565b610264600b5481565b61020761114f565b61020761050c366004611aaa565b611274565b61026460095481565b6105226112b7565b600061054e7f000000000000000000000000000000000000000000000000000000000000000042611ae9565b90507f0000000000000000000000000000000000000000000000000000000000000000811161059057604051630931513d60e11b815260040160405180910390fd5b6013546011546040516324a47aeb60e01b81526201000090910460ff1660048201526000916001600160a01b0316906324a47aeb906024016020604051808303816000875af11580156105e7573d6000803e3d6000fd5b505050506040513d601f19601f8201168201806040525081019061060b9190611afc565b60405190915081907fc5624680ab5d50c84507f9e0dc2032163de2bda906ab8a661a53dd4d43bd5dc790600090a25050565b610645611419565b60408051808201909152600080825260208201526000610663611438565b85518152602080870151828201526040805180820182527f171e826ad4a870fd925e0bf0e87884e70e080879c2205ef10114f28a3b6f6dd781527f2bd407d897fbbca9f88adfd2d15252e69de8c1564eb4d3d27162e259172f1a1d818401528151808301909252878252918101839052945092506106e18484610942565b9150509250925092565b6106f36112b7565b600061071f7f000000000000000000000000000000000000000000000000000000000000000042611ae9565b90507f0000000000000000000000000000000000000000000000000000000000000000811161076157604051630931513d60e11b815260040160405180910390fd5b600a5460ff16156107855760405163084ef7b960e41b815260040160405180910390fd5b600a805460ff191660011790556012546040805163423f3e1960e01b815290516001600160a01b039092169163423f3e19916004808201926020929091908290030181865afa1580156107dc573d6000803e3d6000fd5b505050506040513d601f19601f820116820180604052508101906108009190611afc565b60095561080b611457565b600954815260115460019061082b9082906301000000900460ff16611b2b565b60ff166005811061083e5761083e611b15565b015460208201526000604082015261085581611115565b600b556012546040805163122db15360e01b815290516000926001600160a01b03169163122db1539160048083019260209291908290030181865afa1580156108a2573d6000803e3d6000fd5b505050506040513d601f19601f820116820180604052508101906108c69190611afc565b600d819055905060015b816108df60ff83166002611c59565b64ffffffffff1610156108fe57806108f681611c6f565b9150506108d0565b600e805460ff191660ff8316179055600d546009546040517fa80928657383ff9d374f1409cf51e7460a64472b6baeb5ded1199830c15bae0190600090a350505050565b600061094c611475565b60208481018051518352805182015191830191909152805160409081015190830152805160609081015190830152516080908101519082015261098d611475565b6020858101805160a0908101518452815160c0015184840152815160e00151604080860191909152825161010001516060860152915161012001516080850152815190810190915286518152610a129181016109e8856110db565b81526020016109f6846110db565b81526020018660000151815260200186602001518152506110db565b95945050505050565b6000610a477f000000000000000000000000000000000000000000000000000000000000000042611ae9565b90507f00000000000000000000000000000000000000000000000000000000000000008110610a895760405163148fb9a960e31b815260040160405180910390fd5b600f54600c5410610aad57604051631ec0b2f760e01b815260040160405180910390fd5b600c805460010190556014546040516323b872dd60e01b8152336004820152306024820152604481018490526001600160a01b03909116906323b872dd906064016020604051808303816000875af1158015610b0d573d6000803e3d6000fd5b505050506040513d601f19601f82011682018060405250810190610b319190611c8e565b50610b3a611493565b83815260208101839052600080610b5283600261063d565b601354604051631ffc735d60e01b8152600481018390529395509093506001600160a01b031691631ffc735d91506024016020604051808303816000875af1158015610ba2573d6000803e3d6000fd5b505050506040513d601f19601f82011682018060405250810190610bc69190611afc565b507f935afc7bb7cc33eb3e24e20dcfc75f5b21fa58e9c82cca06435238efaf9a3a5882604051610bf69190611cb0565b60405180910390a1505050505050565b6000610c327f000000000000000000000000000000000000000000000000000000000000000042611ae9565b90507f00000000000000000000000000000000000000000000000000000000000000008110610c745760405163148fb9a960e31b815260040160405180910390fd5b600f54600c5410610c9857604051631ec0b2f760e01b815260040160405180910390fd5b610ca7823560208401356112e4565b610cc4576040516379fae7af60e01b815260040160405180910390fd5b600c8054600190810190915583526000610ce78461028036869003860186611cbf565b601354604051631ffc735d60e01b8152600481018390529192506001600160a01b031690631ffc735d906024016020604051808303816000875af1158015610d33573d6000803e3d6000fd5b505050506040513d601f19601f82011682018060405250810190610d579190611afc565b507fe2067f06dd7b8159b21a5490f8663f6bb031d9b35ed6d298b5489674cb9cda4b8484604051610d89929190611cdb565b60405180910390a150505050565b60405163248f667760e01b81526000907388442E8223A9e71ca7ef529EC42636EE42CFF2819063248f667790610dd1908590600401611d04565b602060405180830381865af4158015610dee573d6000803e3d6000fd5b505050506040513d601f19601f82011682018060405250810190610e129190611afc565b92915050565b6000600080516020611ea2833981519152600283604051602001610e3c9190611d35565b60408051601f1981840301815290829052610e5691611d6b565b602060405180830381855afa158015610e73573d6000803e3d6000fd5b5050506040513d601f19601f82011682018060405250810190610e969190611afc565b610e129190611db0565b6000610eaa611493565b83815260208101839052610ebd81610ec5565b949350505050565b6040516314d2f97b60e11b81526000907374a7Cfe7fd956c53E754C300a1DDddC9713A7dA1906329a5f2f690610dd1908590600401611dd2565b610f076112b7565b610f11600061138e565b565b828114610f335760405163ca3487f760e01b815260040160405180910390fd5b8260005b81811015610f9057610f88868683818110610f5457610f54611b15565b90506101600201803603810190610f6b9190611dfa565b858584818110610f7d57610f7d611b15565b905060400201610c06565b600101610f37565b505050505050565b6000610fa26114b1565b8251518152825160209081015181830152830151816002602002015260408301516060820152610fd181610d97565b9392505050565b610fe06112b7565b600061100c7f000000000000000000000000000000000000000000000000000000000000000042611ae9565b90507f0000000000000000000000000000000000000000000000000000000000000000811161104e57604051630931513d60e11b815260040160405180910390fd5b60135460405163c15da65b60e01b8152600481018490526001600160a01b039091169063c15da65b90602401600060405180830381600087803b15801561109457600080fd5b505af11580156110a8573d6000803e3d6000fd5b50506040518492507f1245b881cb30fdad22b2f9fde2d5c2a3605bbdf272d5e8a2235d8c9e81aba2ce9150600090a25050565b604051630926f44b60e31b815260009073039AE9F5c35deecCCBD9f1B7464D5f7529627F4C90634937a25890610dd1908590600401611e17565b6040516304b98e1d60e31b815260009073b78AC47CC2c51f07E19Eb1A465660d18AE41BD24906325cc70e890610dd1908590600401611e3f565b60065460ff1615611173576040516342a2e18d60e01b815260040160405180910390fd5b6006805460ff19166001908117909155600c80549091019055611194611493565b7f12817f4161f2f5ded33f26c55735a77e80e4f8975483c8c2704745128417f711815260006020820181905280806111cd84600161063d565b601354604051631ffc735d60e01b81526004810183905293965091945092506001600160a01b031690631ffc735d906024016020604051808303816000875af115801561121e573d6000803e3d6000fd5b505050506040513d601f19601f820116820180604052508101906112429190611afc565b507fe2067f06dd7b8159b21a5490f8663f6bb031d9b35ed6d298b5489674cb9cda4b8383604051610d89929190611e67565b61127c6112b7565b6001600160a01b0381166112ab57604051631e4fbdf760e01b8152600060048201526024015b60405180910390fd5b6112b48161138e565b50565b6000546001600160a01b03163314610f115760405163118cdaa760e01b81523360048201526024016112a2565b600080600080516020611ea283398151915284850990506000600080516020611ea283398151915284850990506000600080516020611ea283398151915282600080516020611ea283398151915285620292fc090890506000600080516020611ea28339815191528084600080516020611ea283398151915287620292f8090960010890506113828282600080516020611ea28339815191526113de565b15979650505050505050565b600080546001600160a01b038381166001600160a01b0319831681178455604051919092169283917f8be0079c531659141344cd1fd0a4f28419497f9722a3daafe3b4186f6b6457e09190a35050565b6000838381116113f5576113f28382611e8e565b90505b828061140357611403611d9a565b600061140f8684611ae9565b0895945050505050565b604051806040016040528060008152602001611433611438565b905290565b604051806101400160405280600a906020820280368337509192915050565b60405180606001604052806003906020820280368337509192915050565b6040518060a001604052806005906020820280368337509192915050565b60405180604001604052806002906020820280368337509192915050565b60405180608001604052806004906020820280368337509192915050565b634e487b7160e01b600052604160045260246000fd5b6040805190810167ffffffffffffffff81118282101715611508576115086114cf565b60405290565b604051601f8201601f1916810167ffffffffffffffff81118282101715611537576115376114cf565b604052919050565b600082601f83011261155057600080fd5b6115586114e5565b80604084018581111561156a57600080fd5b845b8181101561158457803584526020938401930161156c565b509095945050505050565b600080606083850312156115a257600080fd5b6115ac848461153f565b946040939093013593505050565b8051825260208082015181840160005b600a811015610f90578251825291830191908301906001016115ca565b6101c081016115f682866115ba565b83516101608301526020909301516101808201526101a00152919050565b600061016080838503121561162857600080fd5b6116306114e5565b915082358252602084603f85011261164757600080fd5b604051610140810181811067ffffffffffffffff8211171561166b5761166b6114cf565b60405291840191808684111561168057600080fd5b8286015b8481101561169b5780358252908301908301611684565b5050908301525092915050565b6000604082840312156116ba57600080fd5b6116c26114e5565b9050813581526020820135602082015292915050565b6000806101a083850312156116ec57600080fd5b6116f68484611614565b91506117068461016085016116a8565b90509250929050565b6000806040838503121561172257600080fd5b50508035926020909101359150565b6000808284036101a081121561174657600080fd5b6117508585611614565b9250604061015f198201121561176557600080fd5b50610160830190509250929050565b60006080828403121561178657600080fd5b82601f83011261179557600080fd5b6040516080810181811067ffffffffffffffff821117156117b8576117b86114cf565b6040528060808401858111156117cd57600080fd5b845b818110156117e75780358352602092830192016117cf565b509195945050505050565b6000602080838503121561180557600080fd5b823567ffffffffffffffff8082111561181d57600080fd5b818501915085601f83011261183157600080fd5b813581811115611843576118436114cf565b8060051b915061185484830161150e565b818152918301840191848101908884111561186e57600080fd5b938501935b8385101561188c57843582529385019390850190611873565b98975050505050505050565b6000604082840312156118aa57600080fd5b610fd1838361153f565b600080600080604085870312156118ca57600080fd5b843567ffffffffffffffff808211156118e257600080fd5b818701915087601f8301126118f657600080fd5b81358181111561190557600080fd5b8860206101608302850101111561191b57600080fd5b60209283019650945090860135908082111561193657600080fd5b818701915087601f83011261194a57600080fd5b81358181111561195957600080fd5b8860208260061b850101111561196e57600080fd5b95989497505060200194505050565b60006080828403121561198f57600080fd5b6040516060810181811067ffffffffffffffff821117156119b2576119b26114cf565b6040526119bf84846116a8565b815260408301356020820152606083013560408201528091505092915050565b6000602082840312156119f157600080fd5b5035919050565b600060a08284031215611a0a57600080fd5b82601f830112611a1957600080fd5b60405160a0810181811067ffffffffffffffff82111715611a3c57611a3c6114cf565b6040528060a08401858111156117cd57600080fd5b600060608284031215611a6357600080fd5b82601f830112611a7257600080fd5b6040516060810181811067ffffffffffffffff82111715611a9557611a956114cf565b6040528060608401858111156117cd57600080fd5b600060208284031215611abc57600080fd5b81356001600160a01b0381168114610fd157600080fd5b634e487b7160e01b600052601160045260246000fd5b81810381811115610e1257610e12611ad3565b600060208284031215611b0e57600080fd5b5051919050565b634e487b7160e01b600052603260045260246000fd5b60ff8281168282160390811115610e1257610e12611ad3565b600181815b80851115611b82578164ffffffffff04821115611b6857611b68611ad3565b80851615611b7557918102915b93841c9390800290611b49565b509250929050565b600082611b9957506001610e12565b81611ba657506000610e12565b8160018114611bbc5760028114611bc657611bf8565b6001915050610e12565b60ff841115611bd757611bd7611ad3565b6001841b915064ffffffffff821115611bf257611bf2611ad3565b50610e12565b5060208310610133831016604e8410600b8410161715611c30575081810a64ffffffffff811115611c2b57611c2b611ad3565b610e12565b611c3a8383611b44565b8064ffffffffff04821115611c5157611c51611ad3565b029392505050565b600064ffffffffff610ebd818516828516611b8a565b600060ff821660ff8103611c8557611c85611ad3565b60010192915050565b600060208284031215611ca057600080fd5b81518015158114610fd157600080fd5b6101608101610e1282846115ba565b600060408284031215611cd157600080fd5b610fd183836116a8565b6101a08101611cea82856115ba565b823561016083015260208301356101808301529392505050565b60808101818360005b6004811015611d2c578151835260209283019290910190600101611d0d565b50505092915050565b815160009082906020808601845b83811015611d5f57815185529382019390820190600101611d43565b50929695505050505050565b6000825160005b81811015611d8c5760208186018101518583015201611d72565b506000920191825250919050565b634e487b7160e01b600052601260045260246000fd5b600082611dcd57634e487b7160e01b600052601260045260246000fd5b500690565b60408101818360005b6002811015611d2c578151835260209283019290910190600101611ddb565b60006101608284031215611e0d57600080fd5b610fd18383611614565b60a08101818360005b6005811015611d2c578151835260209283019290910190600101611e20565b60608101818360005b6003811015611d2c578151835260209283019290910190600101611e48565b6101a08101611e7682856115ba565b82516101608301526020830151610180830152610fd1565b80820180821115610e1257610e12611ad356fe30644e72e131a029b85045b68181585d2833e84879b9709143e1f593f0000001a2646970667358221220efefc6de5ade6ea5f2063a844087dd7d942764904c5604f09e089eae39b5416f64736f6c6343000814003330644e72e131a029b85045b68181585d2833e84879b9709143e1f593f0000001a2646970667358221220b181234c3b1b88dba6600bacb4a1192a88f2a78a6ff0c5781dacaf64ddc4e36a64736f6c63430008140033",
  "deployedBytecode": "0x60806040523480156200001157600080fd5b50600436106200003a5760003560e01c8063683f3dc3146200003f578063b43c4969146200005f575b600080fd5b62000048600a81565b60405160ff90911681526020015b60405180910390f35b6200007662000070366004620002f6565b6200008f565b6040516001600160a01b03909116815260200162000056565b60006604000000000000876020013510620000bd576040516302c3596560e51b815260040160405180910390fd5b6000620000d16040880160208901620003b2565b604051620000df90620002a8565b60ff9091168152602001604051809103906000f08015801562000106573d6000803e3d6000fd5b50905060006040518060600160405280876001600160a01b03168152602001836001600160a01b03168152602001866001600160a01b0316815250905060008a8a8a8a856040516200015890620002b6565b62000168959493929190620003d7565b604051809103906000f08015801562000185573d6000803e3d6000fd5b5060405163f2fde38b60e01b81526001600160a01b0380831660048301529192509084169063f2fde38b90602401600060405180830381600087803b158015620001ce57600080fd5b505af1158015620001e3573d6000803e3d6000fd5b50505050806001600160a01b031663e1c7392a6040518163ffffffff1660e01b8152600401600060405180830381600087803b1580156200022357600080fd5b505af115801562000238573d6000803e3d6000fd5b505060405163f2fde38b60e01b81526001600160a01b0388811660048301528416925063f2fde38b9150602401600060405180830381600087803b1580156200028057600080fd5b505af115801562000295573d6000803e3d6000fd5b50929d9c50505050505050505050505050565b6122dc806200049783390190565b61266e806200277383390190565b600060408284031215620002d757600080fd5b50919050565b6001600160a01b0381168114620002f357600080fd5b50565b60008060008060008060008789036101808112156200031457600080fd5b88359750620003278a60208b01620002c4565b96506080605f19820112156200033c57600080fd5b50606088019450620003528960e08a01620002c4565b93506101208801356200036581620002dd565b92506101408801356200037881620002dd565b91506101608801356200038b81620002dd565b8091505092959891949750929550565b803560ff81168114620003ad57600080fd5b919050565b600060208284031215620003c557600080fd5b620003d0826200039b565b9392505050565b8581526101808101620003f7602083018780358252602090810135910152565b60ff62000404866200039b565b16606083015260ff6200041a602087016200039b565b16608083015260ff62000430604087016200039b565b1660a083015260ff62000446606087016200039b565b1660c0830152833560e0830152602084013561010083015282516001600160a01b03908116610120840152602084015181166101408401526040909301519092166101609091015294935050505056fe60e06040523480156200001157600080fd5b50604051620022dc380380620022dc83398101604081905262000034916200063d565b8080600533806200006057604051631e4fbdf760e01b8152600060048201526024015b60405180910390fd5b6200006b81620005ed565b50816000036200008e5760405163682e504160e11b815260040160405180910390fd5b6020821115620000bc57604051637ccdcc9760e11b8152600481018390526020602482015260440162000057565b80600214158015620000cf575080600514155b15620000ee57604051636f7b6c0360e01b815260040160405180910390fd5b6000805460ff60a01b191660028314600160a01b02179055608082905260a08190526200011c82826200076c565b60c05250507f12817f4161f2f5ded33f26c55735a77e80e4f8975483c8c2704745128417f7116101725550507f1c8de1edeabc24fc4c1595acaabb70be9b70f351d58c6fa338e1e9a994413bfb610173557f22fcda488c14b34fc60eb073fbe92fe10793e2ab14682e0f057332ddbef3d55c610174557f2db474db7c7212646cb15c6177d87be30711e6c04f1139d8e495ef1d1d998227610175557efde404053ec39a19f6ac347121a2264815dda84f910a388cb372e967a5d08c610176557f0723792ffab6ec6cfb3ece1509b9b4fb07e5bdb2299d1538e6e1db916f90cf89610177557f2a4392ec4e3d1811cd6a950cc865ee6f2342910a6551c5dce38cb995576c7c70610178557f1dead4c14f75e9d8449c80b648dcd4694c2ee50da2ba16e5e438f0d77ab02e34610179557f124c53ce0953fffb7ab5e3c143df6cd48ba747d3959fcb8086405d763ed5455061017a557f02bae19605746a8cd3f0927b2c01630f36f4d1bab9216ca839833e7ff6efa20661017b557f1f8375099becf17173d457d0d07bfb74c7067df1143b5ad987046e8e66817bc961017c557f0e13e954d61bb3fa3b03e7d136ca909b610fa2ca4443d920d94d16684f2b83d461017d557f1416ef2fc4f88fcfc4f9eb12f8e214b1c3e31c6c10ece9cfa51f078a3bbf345761017e557f032f915ff71e198a7955d2697249f40fb94c65812ed24e670c9700f52fdf6e0e61017f557f08bfebf4b3ddb0f8c51dd40193f5996da9f3d799ee0d8beb6be4038132df60b4610180557f065ac498cf4a5acaeb3b6cee826da9f834c961fa39feff6ae925b90dff79b613610181557f2e72c628101a93201b912a3e3fe96d39b0a9076ec39b7935a015c59bb32b8a2a610182557f19bba68e7b9da1e6ec42e52d7ab2adaf3b6a5521b1a454ec70f62e0ab702c085610183557f0de1f72745a5af2a34cac412e00eb6c8b5db1f3b52fa1bff88076c2726b83b08610184557f2e8f152603b2fac10d6a14c841327c23c502537367ccb1e42fab9a3bd9db2a8d610185557f14e16c3e0dcfd7e621a32627ebf37f6c0afb4467d34c7b7aeffded11769dec85610186557f0be1e62127948b4805c85a1d836574f0892ca6473fcde98f3fd1781248a9768f610187557f0930288fbd7c849197c8372f1dd8f9087f8a03f09b9cd904a469c15ef6b1b515610188557f231cac34e215e3f404d2fcfb79e0705deeb3d40978f0ee31072f6cbc1b579e33610189557f2e0e3cd2718ac7199b81dc14e841de40a9536b7ffe95fa1fc9c6b799e43e2c9761018a557f0718452506f0a232e98966d84b1a4675a66bd80263a2dc58bdac873825752fc361018b557f162d4ed998307d6e132edbf5c11f62f53d4636aa10cb3c2244c2bf5577168c3761018c557f247d6a5544a8f295a894ae77c7efcdcbf52e3bf4e5d0c0d2f40557a61d44984861018d557f0b8de3868471f109e91670daca698dba917d1c5535821f33aa9598d1db8e3d1961018e557f29851997020f527c92e20f030d232b81d334144a641e6a8866b46dd925005bbb61018f557f1a9cfcbe29a2b6503a03049727c0bca3111afd62f2836f392080321d1b4ef642610190557f1aa3ead91fa89cc1d6cb1d0eb76a27190c6abfdd3265d6d0a1e5c58feddaddf6610191557f0702fc26a7d367e6677efefd95204a7e00144c2fc7dbc2a581aa00d99f51f0816101925562000781565b600080546001600160a01b038381166001600160a01b0319831681178455604051919092169283917f8be0079c531659141344cd1fd0a4f28419497f9722a3daafe3b4186f6b6457e09190a35050565b6000602082840312156200065057600080fd5b5051919050565b634e487b7160e01b600052601160045260246000fd5b600181815b80851115620006ae57816000190482111562000692576200069262000657565b80851615620006a057918102915b93841c939080029062000672565b509250929050565b600082620006c75750600162000766565b81620006d65750600062000766565b8160018114620006ef5760028114620006fa576200071a565b600191505062000766565b60ff8411156200070e576200070e62000657565b50506001821b62000766565b5060208310610133831016604e8410600b84101617156200073f575081810a62000766565b6200074b83836200066d565b806000190482111562000762576200076262000657565b0290505b92915050565b60006200077a8383620006b6565b9392505050565b60805160a05160c051611aad6200082f600039600081816103ea01528181610a2501528181610ac201528181610c7f0152610d820152600081816103230152818161056e015281816106e401528181610bb401528181610ec301528181611037015261129801526000818161041a0152818161047b0152818161054401528181610bed01528181610cb801528181610d0201528181610e6401528181610f1a01526111d30152611aad6000f3fe608060405234801561001057600080fd5b50600436106101585760003560e01c806381d6a24a116100c3578063c00bdbcc1161007c578063c00bdbcc146102b8578063c15da65b146102cb578063d9c55ce1146102de578063dda89a6e146102e6578063e93fb4d4146102f0578063f2fde38b1461030357600080fd5b806381d6a24a146102455780638da5cb5b146102615780639cfced971461027c578063a27154ba1461028f578063b6a64acd14610297578063bea140b3146102a557600080fd5b806358bfc3791161011557806358bfc379146101cc5780635bb93995146101df5780635bf1fa4d146101f257806362a361bb1461020557806369e7c58614610218578063715018a61461023b57600080fd5b80631b9b8aa71461015d5780631ffc735d1461018357806324a47aeb146101965780633bfa6fce146101a95780633dfb88b2146101b15780633e1a8cc1146101c4575b600080fd5b61017061016b3660046114ba565b610316565b6040519081526020015b60405180910390f35b6101706101913660046114ba565b610399565b6101706101a43660046114ba565b6104c7565b6101706106d8565b6101706101bf36600461151a565b610723565b6101706107a4565b6101706101da366004611598565b6107d3565b6101706101ed36600461163e565b61086d565b61017061020036600461163e565b610892565b610170610213366004611660565b610931565b61016e5461022b90610100900460ff1681565b604051901515815260200161017a565b61024361096b565b005b610170546001546040805192835260208301919091520161017a565b6000546040516001600160a01b03909116815260200161017a565b61017061028a3660046116bb565b61097f565b610170602081565b61016e5461022b9060ff1681565b6101706102b3366004611714565b6109b9565b6102436102c63660046114ba565b6109f3565b6102436102d93660046114ba565b610a6f565b610243610c75565b6101706101715481565b6101706102fe3660046114ba565b610dbf565b61024361031136600461176d565b610dfa565b61017154600090610347837f0000000000000000000000000000000000000000000000000000000000000000611897565b101561037d5761017154604051627289df60e61b8152610374918491600401918252602082015260400190565b60405180910390fd5b61014d8260218110610391576103916118a3565b015492915050565b60006103a3610e35565b50610171546103b3826000610e62565b6103be8160016118b9565b610171556103cf61014d600061141f565b600061016f5561016e805460ff191690556101715461040f907f0000000000000000000000000000000000000000000000000000000000000000906118cc565b6000036104c25760027f000000000000000000000000000000000000000000000000000000000000000060218110610449576104496118a3565b600402015460018054600090815261014c6020526040812092909255805491610471836118ee565b90915550600290507f0000000000000000000000000000000000000000000000000000000000000000602181106104aa576104aa6118a3565b6004020160008091018190556104c29060869061141f565b919050565b60006104d1610e35565b816000036104f257604051630543d40760e11b815260040160405180910390fd5b61016e5460ff1661051657604051631e596e4360e11b815260040160405180910390fd5b602082111561054257604051632cd31ae960e01b81526004810183905260206024820152604401610374565b7f00000000000000000000000000000000000000000000000000000000000000005b61017154610592827f0000000000000000000000000000000000000000000000000000000000000000611897565b10156105aa57806105a2816118ee565b915050610564565b808310156105d457604051627289df60e61b81526004810184905260248101829052604401610374565b8083036106105761016f5461014d84602181106105f3576105f36118a3565b0155505061016e805461ff00191661010017905561016f54919050565b61016f549150805b838110156106aa57600061062b82610fa3565b600054909150600160a01b900460ff16156106635761064861142e565b8481526020810182905261065b81610931565b945050610697565b61066b61144c565b848152602081018290526040810182905260608101829052608081018290526106938161097f565b9450505b50806106a2816118ee565b915050610618565b508161014d84602181106106c0576106c06118a3565b015561016e805461ff00191661010017905550919050565b60015b600154610708827f0000000000000000000000000000000000000000000000000000000000000000611897565b10156107205780610718816118ee565b9150506106db565b90565b60405163248f667760e01b815260009073__$ce9c2c925f157047e54fa833ec4e61409f$__9063248f66779061075d908590600401611907565b602060405180830381865af415801561077a573d6000803e3d6000fd5b505050506040513d601f19601f8201168201806040525081019061079e9190611938565b92915050565b61016e5460009060ff166107cb57604051631e596e4360e11b815260040160405180910390fd5b5061016f5490565b60007f30644e72e131a029b85045b68181585d2833e84879b9709143e1f593f00000016002836040516020016108099190611951565b60408051601f198184030181529082905261082391611987565b602060405180830381855afa158015610840573d6000803e3d6000fd5b5050506040513d601f19601f820116820180604052508101906108639190611938565b61079e91906118cc565b600061087761142e565b8381526020810183905261088a81610931565b949350505050565b600061089c61144c565b600284602181106108af576108af6118a3565b60040201548152600284602181106108c9576108c96118a3565b60040201600101548160016020020152600284602181106108ec576108ec6118a3565b600402016002015481600260200201526002846021811061090f5761090f6118a3565b6004020160030154816003602002015282816004602002015261088a8161097f565b6040516314d2f97b60e11b815260009073__$6574937f64fc1d7710ec0e28b7a36713bb$__906329a5f2f69061075d9085906004016119b6565b610973610e35565b61097d6000610fb9565b565b604051630926f44b60e31b815260009073__$20527677031d76601747626a9845039fe4$__90634937a2589061075d9085906004016119de565b6040516304b98e1d60e31b815260009073__$dc01a9744591ab014bc46a3b7671cdaefb$__906325cc70e89061075d908590600401611a06565b6109fb610e35565b60018054600090815261014c6020526040812083905581549190610a1e836118ee565b91905055507f00000000000000000000000000000000000000000000000000000000000000006101716000828254610a5691906118b9565b9091555050600061016f555061016e805460ff19169055565b610a77610e35565b61016e5460ff1615610a9c57604051630d36aec160e01b815260040160405180910390fd5b61017154600003610ac0576040516316a0341160e11b815260040160405180910390fd5b7f000000000000000000000000000000000000000000000000000000000000000061017154610aef91906118cc565b15610afc57610afc610c75565b600154600103610b2557610b106000610dbf565b61016f5561016e805460ff1916600117905550565b6000610b2f6106d8565b610170549091506000905b600154811015610bab578315801590610b5257508382145b15610b5d5750505050565b610b74610b6c61017054610dbf565b600085611009565b6101708054906000610b85836118ee565b91905055508180610b95906118ee565b9250508080610ba3906118ee565b915050610b3a565b506000610bd8837f0000000000000000000000000000000000000000000000000000000000000000611897565b90506001546101705403610c41576000610c117f0000000000000000000000000000000000000000000000000000000000000000610fa3565b6001549091505b82811015610c3e57610c2c82600087611009565b80610c36816118ee565b915050610c18565b50505b60a78360218110610c5457610c546118a3565b600402016000015461016f55505061016e805460ff19166001179055505b50565b610c7d610e35565b7f000000000000000000000000000000000000000000000000000000000000000061017154610cac91906118cc565b600003610cf457610cdc7f0000000000000000000000000000000000000000000000000000000000000000610fa3565b600154600090815261014c6020526040902055610d65565b610cfe60006111d1565b60027f000000000000000000000000000000000000000000000000000000000000000060218110610d3157610d316118a3565b6004020154600154600090815261014c6020526040812091909155610d589060029061146a565b610d6561014d600061141f565b60006001546001610d7691906118b9565b60018190559050610da77f000000000000000000000000000000000000000000000000000000000000000082611a2e565b6101715550600061016f5561016e805460ff19169055565b60008160015411610de65760405163042a2e7160e11b815260048101839052602401610374565b50600090815261014c602052604090205490565b610e02610e35565b6001600160a01b038116610e2c57604051631e4fbdf760e01b815260006004820152602401610374565b610c7281610fb9565b6000546001600160a01b0316331461097d5760405163118cdaa760e01b8152336004820152602401610374565b7f0000000000000000000000000000000000000000000000000000000000000000811115610ea35760405163d1459f7960e01b815260040160405180910390fd5b600060868260218110610eb857610eb86118a3565b01549050610ee760017f0000000000000000000000000000000000000000000000000000000000000000611a45565b8114610f6c578260028360218110610f0157610f016118a3565b600402018260048110610f1657610f166118a3565b01557f00000000000000000000000000000000000000000000000000000000000000008214610f675760868260218110610f5257610f526118a3565b018054906000610f61836118ee565b91905055505b505050565b610f76828461133d565b925060868260218110610f8b57610f8b6118a3565b600091015581610f9a816118ee565b92505050610ea3565b60006101728260218110610391576103916118a3565b600080546001600160a01b038381166001600160a01b0319831681178455604051919092169283917f8be0079c531659141344cd1fd0a4f28419497f9722a3daafe3b4186f6b6457e09190a35050565b8082111561101657505050565b600061012b836021811061102c5761102c6118a3565b0154905061105b60017f0000000000000000000000000000000000000000000000000000000000000000611a45565b81146110b9578360a78460218110611075576110756118a3565b60040201826004811061108a5761108a6118a3565b015561012b83602181106110a0576110a06118a3565b0180549060006110af836118ee565b91905055506111cb565b60008054600160a01b900460ff1615611106576110d461142e565b60a785602181106110e7576110e76118a3565b60040201548152602081018690526110fe81610931565b91505061119b565b61110e61144c565b60005b838160ff1610156111755760a7866021811061112f5761112f6118a3565b600402018160ff1660048110611147576111476118a3565b0154828260ff166005811061115e5761115e6118a3565b60200201528061116d81611a58565b915050611111565b5085818460058110611189576111896118a3565b60200201526111978161097f565b9150505b61012b84602181106111af576111af6118a3565b60009101556111c9816111c38660016118b9565b85611009565b505b50505050565b7f0000000000000000000000000000000000000000000000000000000000000000811015610c725760006086826021811061120e5761120e6118a3565b01549050801561131257600061122261144c565b600061122d85610fa3565b905060005b848160ff1610156112965760028660218110611250576112506118a3565b600402018160ff1660048110611268576112686118a3565b0154838260ff166005811061127f5761127f6118a3565b60200201528061128e81611a58565b915050611232565b7f00000000000000000000000000000000000000000000000000000000000000008160ff1610156112ee5781838260ff16600581106112d7576112d76118a3565b6020020152806112e681611a58565b915050611296565b6112f78361097f565b935061130d846113088860016118b9565b610e62565b505050505b60868260218110611325576113256118a3565b600091015581611334816118ee565b925050506111d1565b600061134761144c565b6002846021811061135a5761135a6118a3565b6004020154815260028460218110611374576113746118a3565b6004020160010154816001602002015260028460218110611397576113976118a3565b60040201600201548160026020020152600284602181106113ba576113ba6118a3565b600402016003015481600360200201528281600460200201526113dc8161097f565b9150600284602181106113f1576113f16118a3565b60040201600061141891905060008155600101600081556001016000815560010160009055565b5092915050565b50610c72906021810190611479565b60405180604001604052806002906020820280368337509192915050565b6040518060a001604052806005906020820280368337509192915050565b50610c72906084810190611492565b5b8082111561148e576000815560010161147a565b5090565b8082111561148e57600080825560018201819055600282018190556003820155600401611492565b6000602082840312156114cc57600080fd5b5035919050565b634e487b7160e01b600052604160045260246000fd5b604051601f8201601f1916810167ffffffffffffffff81118282101715611512576115126114d3565b604052919050565b60006080828403121561152c57600080fd5b82601f83011261153b57600080fd5b6040516080810181811067ffffffffffffffff8211171561155e5761155e6114d3565b60405280608084018581111561157357600080fd5b845b8181101561158d578035835260209283019201611575565b509195945050505050565b600060208083850312156115ab57600080fd5b823567ffffffffffffffff808211156115c357600080fd5b818501915085601f8301126115d757600080fd5b8135818111156115e9576115e96114d3565b8060051b91506115fa8483016114e9565b818152918301840191848101908884111561161457600080fd5b938501935b8385101561163257843582529385019390850190611619565b98975050505050505050565b6000806040838503121561165157600080fd5b50508035926020909101359150565b60006040828403121561167257600080fd5b82601f83011261168157600080fd5b6040516040810181811067ffffffffffffffff821117156116a4576116a46114d3565b806040525080604084018581111561157357600080fd5b600060a082840312156116cd57600080fd5b82601f8301126116dc57600080fd5b60405160a0810181811067ffffffffffffffff821117156116ff576116ff6114d3565b6040528060a084018581111561157357600080fd5b60006060828403121561172657600080fd5b82601f83011261173557600080fd5b6040516060810181811067ffffffffffffffff82111715611758576117586114d3565b60405280606084018581111561157357600080fd5b60006020828403121561177f57600080fd5b81356001600160a01b038116811461179657600080fd5b9392505050565b634e487b7160e01b600052601160045260246000fd5b600181815b808511156117ee5781600019048211156117d4576117d461179d565b808516156117e157918102915b93841c93908002906117b8565b509250929050565b6000826118055750600161079e565b816118125750600061079e565b816001811461182857600281146118325761184e565b600191505061079e565b60ff8411156118435761184361179d565b50506001821b61079e565b5060208310610133831016604e8410600b8410161715611871575081810a61079e565b61187b83836117b3565b806000190482111561188f5761188f61179d565b029392505050565b600061179683836117f6565b634e487b7160e01b600052603260045260246000fd5b8082018082111561079e5761079e61179d565b6000826118e957634e487b7160e01b600052601260045260246000fd5b500690565b6000600182016119005761190061179d565b5060010190565b60808101818360005b600481101561192f578151835260209283019290910190600101611910565b50505092915050565b60006020828403121561194a57600080fd5b5051919050565b815160009082906020808601845b8381101561197b5781518552938201939082019060010161195f565b50929695505050505050565b6000825160005b818110156119a8576020818601810151858301520161198e565b506000920191825250919050565b60408101818360005b600281101561192f5781518352602092830192909101906001016119bf565b60a08101818360005b600581101561192f5781518352602092830192909101906001016119e7565b60608101818360005b600381101561192f578151835260209283019290910190600101611a0f565b808202811582820484141761079e5761079e61179d565b8181038181111561079e5761079e61179d565b600060ff821660ff8103611a6e57611a6e61179d565b6001019291505056fea2646970667358221220de48377ebab560ef190138d15ea2cd48ec74d706562bdc76aca8c6093ed43a8e64736f6c6343000814003360e06040526040516200266e3803806200266e833981016040819052620000269162000527565b33806200004d57604051631e4fbdf760e01b81526000600482015260240160405180910390fd5b620000588162000222565b507f1d5cfc650c3aa26c2187b82a0cdf6df742ffdce0eac4b2b9b4078e181a80995c6001557f0fd34e2fb0a3303440acfb5c4aa5d73e9918f8d8a3c2129968e9a84f822632bf6002557f1593a49c239fc3b29916a95313c468e3c868623989528986e54f94eef0a5d85a6003557f2e7b267c72eedc6a043b4007ab6454d70b0ff96eba7d6395a1e6a80de057c3056004557f289512174b729b056029888f461dea952ed4bb2a0f8da5923b8527481a6c8e026005558151602083015162000120919062000272565b6200013e576040516379fae7af60e01b815260040160405180910390fd5b81516007819055602083015160088190556200015b919062000327565b6080528051601280546001600160a01b039283166001600160a01b03199182161790915560208084015160138054918516918416919091179055604093840151601480549190941692169190911790915560c0959095528351600f559284015160105550805160118054948301519383015160609093015160ff90811663010000000263ff0000001994821662010000029490941663ffff0000199582166101000261ffff1990971691909316179490941792909216919091171790554260a052620006e1565b600080546001600160a01b038381166001600160a01b0319831681178455604051919092169283917f8be0079c531659141344cd1fd0a4f28419497f9722a3daafe3b4186f6b6457e09190a35050565b6000806000805160206200264e833981519152848509905060006000805160206200264e833981519152848509905060006000805160206200264e833981519152826000805160206200264e83398151915285620292fc0908905060006000805160206200264e83398151915280846000805160206200264e83398151915287620292f8090960010890506200031982826000805160206200264e83398151915262000350565b159450505050505b92915050565b60006200033362000413565b83815260208101839052620003488162000393565b949350505050565b6000838381116200036a5762000367838262000668565b90505b82806200037b576200037b6200063c565b60006200038986846200067e565b0895945050505050565b6040516314d2f97b60e11b815260009073__$6574937f64fc1d7710ec0e28b7a36713bb$__906329a5f2f690620003cf90859060040162000694565b602060405180830381865af4158015620003ed573d6000803e3d6000fd5b505050506040513d601f19601f82011682018060405250810190620003219190620006c7565b60405180604001604052806002906020820280368337509192915050565b604051608081016001600160401b03811182821017156200046257634e487b7160e01b600052604160045260246000fd5b60405290565b604051606081016001600160401b03811182821017156200046257634e487b7160e01b600052604160045260246000fd5b600060408284031215620004ac57600080fd5b604080519081016001600160401b0381118282101715620004dd57634e487b7160e01b600052604160045260246000fd5b604052825181526020928301519281019290925250919050565b805160ff811681146200050957600080fd5b919050565b6001600160a01b03811681146200052457600080fd5b50565b60008060008060008587036101808112156200054257600080fd5b8651955062000555886020890162000499565b94506080605f19820112156200056a57600080fd5b6200057462000431565b6200058260608901620004f7565b81526200059260808901620004f7565b6020820152620005a560a08901620004f7565b6040820152620005b860c08901620004f7565b60608201529350620005ce8860e0890162000499565b9250606061011f1982011215620005e457600080fd5b50620005ef62000468565b61012087015162000600816200050e565b815261014087015162000613816200050e565b602082015261016087015162000629816200050e565b6040820152949793965091945092919050565b634e487b7160e01b600052601260045260246000fd5b634e487b7160e01b600052601160045260246000fd5b8082018082111562000321576200032162000652565b8181038181111562000321576200032162000652565b60408101818360005b6002811015620006be5781518352602092830192909101906001016200069d565b50505092915050565b600060208284031215620006da57600080fd5b5051919050565b60805160a05160c051611ef762000757600039600081816102ef015281816105520152818161072301528181610a4b01528181610c3601526110100152600081816102ce01528181610529015281816106fa01528181610a2201528181610c0d0152610fe7015260006103ba0152611ef76000f3fe608060405234801561001057600080fd5b50600436106101fa5760003560e01c8063683f3dc31161011a5780639cfced97116100ad578063bea140b31161007c578063bea140b3146104da578063c17268d9146104ed578063e1c7392a146104f6578063f2fde38b146104fe578063fba630f21461051157600080fd5b80639cfced971461040a578063ac98e5df1461041d578063b5f38c8114610473578063bc14ee2b1461049057600080fd5b80637d0a81c8116100e95780637d0a81c8146103a25780638aa0ba92146103b55780638da5cb5b146103dc5780639c971729146103f757600080fd5b8063683f3dc3146103605780637028bb0e1461037a578063715018a6146103875780637296aaea1461038f57600080fd5b8063394b78a21161019257806358bfc3791161016157806358bfc3791461031e5780635bb93995146103315780635d5909dd1461034457806362a361bb1461034d57600080fd5b8063394b78a2146102a65780633dfb88b2146102b95780634909229f146102cc5780634f367f0f1461031357600080fd5b80630f4cf692116101ce5780630f4cf6921461025b578063167fd48314610272578063184ff47f1461028557806331e766a51461029857600080fd5b8062329f2f146101ff5780630396a0ce1461020957806306912d3c146102315780630dc8317714610253575b600080fd5b61020761051a565b005b600f54601054610217919082565b604080519283526020830191909152015b60405180910390f35b61024461023f36600461158f565b61063d565b604051610228939291906115e7565b6102076106eb565b610264600c5481565b604051908152602001610228565b6102646102803660046116d8565b610942565b61020761029336600461170f565b610a1b565b600754600854610217919082565b6102076102b4366004611731565b610c06565b6102646102c7366004611774565b610d97565b7f00000000000000000000000000000000000000000000000000000000000000007f0000000000000000000000000000000000000000000000000000000000000000610217565b600d54600c54610217565b61026461032c3660046117f2565b610e18565b61026461033f36600461170f565b610ea0565b610264600d5481565b61026461035b366004611898565b610ec5565b610368600a81565b60405160ff9091168152602001610228565b600e546103689060ff1681565b610207610eff565b61020761039d3660046118b4565b610f13565b6102646103b036600461197d565b610f98565b6102647f000000000000000000000000000000000000000000000000000000000000000081565b6000546040516001600160a01b039091168152602001610228565b6102076104053660046119df565b610fd8565b6102646104183660046119f8565b6110db565b6011546104469060ff808216916101008104821691620100008204811691630100000090041684565b6040805160ff95861681529385166020850152918416918301919091529091166060820152608001610228565b600a546104809060ff1681565b6040519015158152602001610228565b6012546013546014546104b0926001600160a01b03908116928116911683565b604080516001600160a01b0394851681529284166020840152921691810191909152606001610228565b6102646104e8366004611a51565b611115565b610264600b5481565b61020761114f565b61020761050c366004611aaa565b611274565b61026460095481565b6105226112b7565b600061054e7f000000000000000000000000000000000000000000000000000000000000000042611ae9565b90507f0000000000000000000000000000000000000000000000000000000000000000811161059057604051630931513d60e11b815260040160405180910390fd5b6013546011546040516324a47aeb60e01b81526201000090910460ff1660048201526000916001600160a01b0316906324a47aeb906024016020604051808303816000875af11580156105e7573d6000803e3d6000fd5b505050506040513d601f19601f8201168201806040525081019061060b9190611afc565b60405190915081907fc5624680ab5d50c84507f9e0dc2032163de2bda906ab8a661a53dd4d43bd5dc790600090a25050565b610645611419565b60408051808201909152600080825260208201526000610663611438565b85518152602080870151828201526040805180820182527f171e826ad4a870fd925e0bf0e87884e70e080879c2205ef10114f28a3b6f6dd781527f2bd407d897fbbca9f88adfd2d15252e69de8c1564eb4d3d27162e259172f1a1d818401528151808301909252878252918101839052945092506106e18484610942565b9150509250925092565b6106f36112b7565b600061071f7f000000000000000000000000000000000000000000000000000000000000000042611ae9565b90507f0000000000000000000000000000000000000000000000000000000000000000811161076157604051630931513d60e11b815260040160405180910390fd5b600a5460ff16156107855760405163084ef7b960e41b815260040160405180910390fd5b600a805460ff191660011790556012546040805163423f3e1960e01b815290516001600160a01b039092169163423f3e19916004808201926020929091908290030181865afa1580156107dc573d6000803e3d6000fd5b505050506040513d601f19601f820116820180604052508101906108009190611afc565b60095561080b611457565b600954815260115460019061082b9082906301000000900460ff16611b2b565b60ff166005811061083e5761083e611b15565b015460208201526000604082015261085581611115565b600b556012546040805163122db15360e01b815290516000926001600160a01b03169163122db1539160048083019260209291908290030181865afa1580156108a2573d6000803e3d6000fd5b505050506040513d601f19601f820116820180604052508101906108c69190611afc565b600d819055905060015b816108df60ff83166002611c59565b64ffffffffff1610156108fe57806108f681611c6f565b9150506108d0565b600e805460ff191660ff8316179055600d546009546040517fa80928657383ff9d374f1409cf51e7460a64472b6baeb5ded1199830c15bae0190600090a350505050565b600061094c611475565b60208481018051518352805182015191830191909152805160409081015190830152805160609081015190830152516080908101519082015261098d611475565b6020858101805160a0908101518452815160c0015184840152815160e00151604080860191909152825161010001516060860152915161012001516080850152815190810190915286518152610a129181016109e8856110db565b81526020016109f6846110db565b81526020018660000151815260200186602001518152506110db565b95945050505050565b6000610a477f000000000000000000000000000000000000000000000000000000000000000042611ae9565b90507f00000000000000000000000000000000000000000000000000000000000000008110610a895760405163148fb9a960e31b815260040160405180910390fd5b600f54600c5410610aad57604051631ec0b2f760e01b815260040160405180910390fd5b600c805460010190556014546040516323b872dd60e01b8152336004820152306024820152604481018490526001600160a01b03909116906323b872dd906064016020604051808303816000875af1158015610b0d573d6000803e3d6000fd5b505050506040513d601f19601f82011682018060405250810190610b319190611c8e565b50610b3a611493565b83815260208101839052600080610b5283600261063d565b601354604051631ffc735d60e01b8152600481018390529395509093506001600160a01b031691631ffc735d91506024016020604051808303816000875af1158015610ba2573d6000803e3d6000fd5b505050506040513d601f19601f82011682018060405250810190610bc69190611afc565b507f935afc7bb7cc33eb3e24e20dcfc75f5b21fa58e9c82cca06435238efaf9a3a5882604051610bf69190611cb0565b60405180910390a1505050505050565b6000610c327f000000000000000000000000000000000000000000000000000000000000000042611ae9565b90507f00000000000000000000000000000000000000000000000000000000000000008110610c745760405163148fb9a960e31b815260040160405180910390fd5b600f54600c5410610c9857604051631ec0b2f760e01b815260040160405180910390fd5b610ca7823560208401356112e4565b610cc4576040516379fae7af60e01b815260040160405180910390fd5b600c8054600190810190915583526000610ce78461028036869003860186611cbf565b601354604051631ffc735d60e01b8152600481018390529192506001600160a01b031690631ffc735d906024016020604051808303816000875af1158015610d33573d6000803e3d6000fd5b505050506040513d601f19601f82011682018060405250810190610d579190611afc565b507fe2067f06dd7b8159b21a5490f8663f6bb031d9b35ed6d298b5489674cb9cda4b8484604051610d89929190611cdb565b60405180910390a150505050565b60405163248f667760e01b815260009073__$ce9c2c925f157047e54fa833ec4e61409f$__9063248f667790610dd1908590600401611d04565b602060405180830381865af4158015610dee573d6000803e3d6000fd5b505050506040513d601f19601f82011682018060405250810190610e129190611afc565b92915050565b6000600080516020611ea2833981519152600283604051602001610e3c9190611d35565b60408051601f1981840301815290829052610e5691611d6b565b602060405180830381855afa158015610e73573d6000803e3d6000fd5b5050506040513d601f19601f82011682018060405250810190610e969190611afc565b610e129190611db0565b6000610eaa611493565b83815260208101839052610ebd81610ec5565b949350505050565b6040516314d2f97b60e11b815260009073__$6574937f64fc1d7710ec0e28b7a36713bb$__906329a5f2f690610dd1908590600401611dd2565b610f076112b7565b610f11600061138e565b565b828114610f335760405163ca3487f760e01b815260040160405180910390fd5b8260005b81811015610f9057610f88868683818110610f5457610f54611b15565b90506101600201803603810190610f6b9190611dfa565b858584818110610f7d57610f7d611b15565b905060400201610c06565b600101610f37565b505050505050565b6000610fa26114b1565b8251518152825160209081015181830152830151816002602002015260408301516060820152610fd181610d97565b9392505050565b610fe06112b7565b600061100c7f000000000000000000000000000000000000000000000000000000000000000042611ae9565b90507f0000000000000000000000000000000000000000000000000000000000000000811161104e57604051630931513d60e11b815260040160405180910390fd5b60135460405163c15da65b60e01b8152600481018490526001600160a01b039091169063c15da65b90602401600060405180830381600087803b15801561109457600080fd5b505af11580156110a8573d6000803e3d6000fd5b50506040518492507f1245b881cb30fdad22b2f9fde2d5c2a3605bbdf272d5e8a2235d8c9e81aba2ce9150600090a25050565b604051630926f44b60e31b815260009073__$20527677031d76601747626a9845039fe4$__90634937a25890610dd1908590600401611e17565b6040516304b98e1d60e31b815260009073__$dc01a9744591ab014bc46a3b7671cdaefb$__906325cc70e890610dd1908590600401611e3f565b60065460ff1615611173576040516342a2e18d60e01b815260040160405180910390fd5b6006805460ff19166001908117909155600c80549091019055611194611493565b7f12817f4161f2f5ded33f26c55735a77e80e4f8975483c8c2704745128417f711815260006020820181905280806111cd84600161063d565b601354604051631ffc735d60e01b81526004810183905293965091945092506001600160a01b031690631ffc735d906024016020604051808303816000875af115801561121e573d6000803e3d6000fd5b505050506040513d601f19601f820116820180604052508101906112429190611afc565b507fe2067f06dd7b8159b21a5490f8663f6bb031d9b35ed6d298b5489674cb9cda4b8383604051610d89929190611e67565b61127c6112b7565b6001600160a01b0381166112ab57604051631e4fbdf760e01b8152600060048201526024015b60405180910390fd5b6112b48161138e565b50565b6000546001600160a01b03163314610f115760405163118cdaa760e01b81523360048201526024016112a2565b600080600080516020611ea283398151915284850990506000600080516020611ea283398151915284850990506000600080516020611ea283398151915282600080516020611ea283398151915285620292fc090890506000600080516020611ea28339815191528084600080516020611ea283398151915287620292f8090960010890506113828282600080516020611ea28339815191526113de565b15979650505050505050565b600080546001600160a01b038381166001600160a01b0319831681178455604051919092169283917f8be0079c531659141344cd1fd0a4f28419497f9722a3daafe3b4186f6b6457e09190a35050565b6000838381116113f5576113f28382611e8e565b90505b828061140357611403611d9a565b600061140f8684611ae9565b0895945050505050565b604051806040016040528060008152602001611433611438565b905290565b604051806101400160405280600a906020820280368337509192915050565b60405180606001604052806003906020820280368337509192915050565b6040518060a001604052806005906020820280368337509192915050565b60405180604001604052806002906020820280368337509192915050565b60405180608001604052806004906020820280368337509192915050565b634e487b7160e01b600052604160045260246000fd5b6040805190810167ffffffffffffffff81118282101715611508576115086114cf565b60405290565b604051601f8201601f1916810167ffffffffffffffff81118282101715611537576115376114cf565b604052919050565b600082601f83011261155057600080fd5b6115586114e5565b80604084018581111561156a57600080fd5b845b8181101561158457803584526020938401930161156c565b509095945050505050565b600080606083850312156115a257600080fd5b6115ac848461153f565b946040939093013593505050565b8051825260208082015181840160005b600a811015610f90578251825291830191908301906001016115ca565b6101c081016115f682866115ba565b83516101608301526020909301516101808201526101a00152919050565b600061016080838503121561162857600080fd5b6116306114e5565b915082358252602084603f85011261164757600080fd5b604051610140810181811067ffffffffffffffff8211171561166b5761166b6114cf565b60405291840191808684111561168057600080fd5b8286015b8481101561169b5780358252908301908301611684565b5050908301525092915050565b6000604082840312156116ba57600080fd5b6116c26114e5565b9050813581526020820135602082015292915050565b6000806101a083850312156116ec57600080fd5b6116f68484611614565b91506117068461016085016116a8565b90509250929050565b6000806040838503121561172257600080fd5b50508035926020909101359150565b6000808284036101a081121561174657600080fd5b6117508585611614565b9250604061015f198201121561176557600080fd5b50610160830190509250929050565b60006080828403121561178657600080fd5b82601f83011261179557600080fd5b6040516080810181811067ffffffffffffffff821117156117b8576117b86114cf565b6040528060808401858111156117cd57600080fd5b845b818110156117e75780358352602092830192016117cf565b509195945050505050565b6000602080838503121561180557600080fd5b823567ffffffffffffffff8082111561181d57600080fd5b818501915085601f83011261183157600080fd5b813581811115611843576118436114cf565b8060051b915061185484830161150e565b818152918301840191848101908884111561186e57600080fd5b938501935b8385101561188c57843582529385019390850190611873565b98975050505050505050565b6000604082840312156118aa57600080fd5b610fd1838361153f565b600080600080604085870312156118ca57600080fd5b843567ffffffffffffffff808211156118e257600080fd5b818701915087601f8301126118f657600080fd5b81358181111561190557600080fd5b8860206101608302850101111561191b57600080fd5b60209283019650945090860135908082111561193657600080fd5b818701915087601f83011261194a57600080fd5b81358181111561195957600080fd5b8860208260061b850101111561196e57600080fd5b95989497505060200194505050565b60006080828403121561198f57600080fd5b6040516060810181811067ffffffffffffffff821117156119b2576119b26114cf565b6040526119bf84846116a8565b815260408301356020820152606083013560408201528091505092915050565b6000602082840312156119f157600080fd5b5035919050565b600060a08284031215611a0a57600080fd5b82601f830112611a1957600080fd5b60405160a0810181811067ffffffffffffffff82111715611a3c57611a3c6114cf565b6040528060a08401858111156117cd57600080fd5b600060608284031215611a6357600080fd5b82601f830112611a7257600080fd5b6040516060810181811067ffffffffffffffff82111715611a9557611a956114cf565b6040528060608401858111156117cd57600080fd5b600060208284031215611abc57600080fd5b81356001600160a01b0381168114610fd157600080fd5b634e487b7160e01b600052601160045260246000fd5b81810381811115610e1257610e12611ad3565b600060208284031215611b0e57600080fd5b5051919050565b634e487b7160e01b600052603260045260246000fd5b60ff8281168282160390811115610e1257610e12611ad3565b600181815b80851115611b82578164ffffffffff04821115611b6857611b68611ad3565b80851615611b7557918102915b93841c9390800290611b49565b509250929050565b600082611b9957506001610e12565b81611ba657506000610e12565b8160018114611bbc5760028114611bc657611bf8565b6001915050610e12565b60ff841115611bd757611bd7611ad3565b6001841b915064ffffffffff821115611bf257611bf2611ad3565b50610e12565b5060208310610133831016604e8410600b8410161715611c30575081810a64ffffffffff811115611c2b57611c2b611ad3565b610e12565b611c3a8383611b44565b8064ffffffffff04821115611c5157611c51611ad3565b029392505050565b600064ffffffffff610ebd818516828516611b8a565b600060ff821660ff8103611c8557611c85611ad3565b60010192915050565b600060208284031215611ca057600080fd5b81518015158114610fd157600080fd5b6101608101610e1282846115ba565b600060408284031215611cd157600080fd5b610fd183836116a8565b6101a08101611cea82856115ba565b823561016083015260208301356101808301529392505050565b60808101818360005b6004811015611d2c578151835260209283019290910190600101611d0d565b50505092915050565b815160009082906020808601845b83811015611d5f57815185529382019390820190600101611d43565b50929695505050505050565b6000825160005b81811015611d8c5760208186018101518583015201611d72565b506000920191825250919050565b634e487b7160e01b600052601260045260246000fd5b600082611dcd57634e487b7160e01b600052601260045260246000fd5b500690565b60408101818360005b6002811015611d2c578151835260209283019290910190600101611ddb565b60006101608284031215611e0d57600080fd5b610fd18383611614565b60a08101818360005b6005811015611d2c578151835260209283019290910190600101611e20565b60608101818360005b6003811015611d2c578151835260209283019290910190600101611e48565b6101a08101611e7682856115ba565b82516101608301526020830151610180830152610fd1565b80820180821115610e1257610e12611ad356fe30644e72e131a029b85045b68181585d2833e84879b9709143e1f593f0000001a2646970667358221220efefc6de5ade6ea5f2063a844087dd7d942764904c5604f09e089eae39b5416f64736f6c6343000814003330644e72e131a029b85045b68181585d2833e84879b9709143e1f593f0000001a2646970667358221220b181234c3b1b88dba6600bacb4a1192a88f2a78a6ff0c5781dacaf64ddc4e36a64736f6c63430008140033",
  "libraries": {
    "PoseidonT3": "0x74a7Cfe7fd956c53E754C300a1DDddC9713A7dA1",
    "PoseidonT4": "0xb78AC47CC2c51f07E19Eb1A465660d18AE41BD24",
    "PoseidonT5": "0x88442E8223A9e71ca7ef529EC42636EE42CFF281",
    "PoseidonT6": "0x039AE9F5c35deecCCBD9f1B7464D5f7529627F4C"
  }
}