{
  "address": "0xc38C1eB3FEEcD2cDbfC631f9B1eb32700fa33095",
  "abi": [
    {
      "inputs": [
        {
          "internalType": "contract IPollFactory",
          "name": "_pollFactory",
          "type": "address"
        },
        {
          "internalType": "contract IMessageProcessorFactory",
          "name": "_messageProcessorFactory",
          "type": "address"
        },
        {
          "internalType": "contract ITallyFactory",
          "name": "_tallyFactory",
          "type": "address"
        },
        {
          "internalType": "contract SignUpGatekeeper",
          "name": "_signUpGatekeeper",
          "type": "address"
        },
        {
          "internalType": "contract InitialVoiceCreditProxy",
          "name": "_initialVoiceCreditProxy",
          "type": "address"
        },
        {
          "internalType": "contract TopupCredit",
          "name": "_topupCredit",
          "type": "address"
        },
        {
          "internalType": "uint8",
          "name": "_stateTreeDepth",
          "type": "uint8"
        }
      ],
      "stateMutability": "nonpayable",
      "type": "constructor"
    },
    {
      "inputs": [
        {
          "internalType": "address",
          "name": "_caller",
          "type": "address"
        }
      ],
      "name": "CallerMustBePoll",
      "type": "error"
    },
    {
      "inputs": [],
      "name": "DefaultZeroBadIndex",
      "type": "error"
    },
    {
      "inputs": [],
      "name": "DepthTooLarge",
      "type": "error"
    },
    {
      "inputs": [],
      "name": "InvalidMessage",
      "type": "error"
    },
    {
      "inputs": [],
      "name": "InvalidPubKey",
      "type": "error"
    },
    {
      "inputs": [],
      "name": "NumberOfLeavesCannotBeZero",
      "type": "error"
    },
    {
      "inputs": [
        {
          "internalType": "address",
          "name": "owner",
          "type": "address"
        }
      ],
      "name": "OwnableInvalidOwner",
      "type": "error"
    },
    {
      "inputs": [
        {
          "internalType": "address",
          "name": "account",
          "type": "address"
        }
      ],
      "name": "OwnableUnauthorizedAccount",
      "type": "error"
    },
    {
      "inputs": [
        {
          "internalType": "address",
          "name": "_poll",
          "type": "address"
        }
      ],
      "name": "PollAddressDoesNotExist",
      "type": "error"
    },
    {
      "inputs": [
        {
          "internalType": "uint256",
          "name": "pollId",
          "type": "uint256"
        }
      ],
      "name": "PollDoesNotExist",
      "type": "error"
    },
    {
      "inputs": [],
      "name": "PoseidonHashLibrariesNotLinked",
      "type": "error"
    },
    {
      "inputs": [
        {
          "internalType": "uint256",
          "name": "pollId",
          "type": "uint256"
        }
      ],
      "name": "PreviousPollNotCompleted",
      "type": "error"
    },
    {
      "inputs": [],
      "name": "PubKeyAlreadyRegistered",
      "type": "error"
    },
    {
      "inputs": [],
      "name": "SignupTemporaryBlocked",
      "type": "error"
    },
    {
      "inputs": [],
      "name": "TooManySignups",
      "type": "error"
    },
    {
      "anonymous": false,
      "inputs": [
        {
          "indexed": false,
          "internalType": "uint256",
          "name": "_pollId",
          "type": "uint256"
        },
        {
          "indexed": true,
          "internalType": "uint256",
          "name": "_coordinatorPubKeyX",
          "type": "uint256"
        },
        {
          "indexed": true,
          "internalType": "uint256",
          "name": "_coordinatorPubKeyY",
          "type": "uint256"
        },
        {
          "components": [
            {
              "internalType": "address",
              "name": "poll",
              "type": "address"
            },
            {
              "internalType": "address",
              "name": "messageProcessor",
              "type": "address"
            },
            {
              "internalType": "address",
              "name": "tally",
              "type": "address"
            }
          ],
          "indexed": false,
          "internalType": "struct MACI.PollContracts",
          "name": "pollAddr",
          "type": "tuple"
        }
      ],
      "name": "DeployPoll",
      "type": "event"
    },
    {
      "anonymous": false,
      "inputs": [
        {
          "indexed": true,
          "internalType": "address",
          "name": "previousOwner",
          "type": "address"
        },
        {
          "indexed": true,
          "internalType": "address",
          "name": "newOwner",
          "type": "address"
        }
      ],
      "name": "OwnershipTransferred",
      "type": "event"
    },
    {
      "anonymous": false,
      "inputs": [
        {
          "indexed": true,
          "internalType": "uint256",
          "name": "pollId",
          "type": "uint256"
        },
        {
          "indexed": true,
          "internalType": "address",
          "name": "creator",
          "type": "address"
        },
        {
          "components": [
            {
              "internalType": "address",
              "name": "poll",
              "type": "address"
            },
            {
              "internalType": "address",
              "name": "messageProcessor",
              "type": "address"
            },
            {
              "internalType": "address",
              "name": "tally",
              "type": "address"
            }
          ],
          "indexed": false,
          "internalType": "struct MACI.PollContracts",
          "name": "pollContracts",
          "type": "tuple"
        },
        {
          "indexed": false,
          "internalType": "string",
          "name": "name",
          "type": "string"
        },
        {
          "indexed": false,
          "internalType": "string[]",
          "name": "options",
          "type": "string[]"
        },
        {
          "indexed": false,
          "internalType": "string",
          "name": "metadata",
          "type": "string"
        },
        {
          "indexed": false,
          "internalType": "uint256",
          "name": "startTime",
          "type": "uint256"
        },
        {
          "indexed": false,
          "internalType": "uint256",
          "name": "endTime",
          "type": "uint256"
        }
      ],
      "name": "PollCreated",
      "type": "event"
    },
    {
      "anonymous": false,
      "inputs": [
        {
          "indexed": true,
          "internalType": "uint256",
          "name": "pollId",
          "type": "uint256"
        },
        {
          "indexed": false,
          "internalType": "string",
          "name": "tallyJsonCID",
          "type": "string"
        }
      ],
      "name": "PollTallyCIDUpdated",
      "type": "event"
    },
    {
      "anonymous": false,
      "inputs": [
        {
          "indexed": false,
          "internalType": "uint256",
          "name": "_stateIndex",
          "type": "uint256"
        },
        {
          "indexed": true,
          "internalType": "uint256",
          "name": "_userPubKeyX",
          "type": "uint256"
        },
        {
          "indexed": true,
          "internalType": "uint256",
          "name": "_userPubKeyY",
          "type": "uint256"
        },
        {
          "indexed": false,
          "internalType": "uint256",
          "name": "_voiceCreditBalance",
          "type": "uint256"
        },
        {
          "indexed": false,
          "internalType": "uint256",
          "name": "_timestamp",
          "type": "uint256"
        }
      ],
      "name": "SignUp",
      "type": "event"
    },
    {
      "inputs": [],
      "name": "MESSAGE_DATA_LENGTH",
      "outputs": [
        {
          "internalType": "uint8",
          "name": "",
          "type": "uint8"
        }
      ],
      "stateMutability": "view",
      "type": "function"
    },
    {
      "inputs": [],
      "name": "coordinatorPubKey",
      "outputs": [
        {
          "internalType": "uint256",
          "name": "x",
          "type": "uint256"
        },
        {
          "internalType": "uint256",
          "name": "y",
          "type": "uint256"
        }
      ],
      "stateMutability": "view",
      "type": "function"
    },
    {
      "inputs": [
        {
          "internalType": "string",
          "name": "_name",
          "type": "string"
        },
        {
          "internalType": "string[]",
          "name": "_options",
          "type": "string[]"
        },
        {
          "internalType": "string",
          "name": "_metadata",
          "type": "string"
        },
        {
          "internalType": "uint256",
          "name": "_duration",
          "type": "uint256"
        },
        {
          "internalType": "enum DomainObjs.Mode",
          "name": "isQv",
          "type": "uint8"
        }
      ],
      "name": "createPoll",
      "outputs": [],
      "stateMutability": "nonpayable",
      "type": "function"
    },
    {
      "inputs": [
        {
          "internalType": "uint256",
          "name": "_duration",
          "type": "uint256"
        },
        {
          "components": [
            {
              "internalType": "uint8",
              "name": "intStateTreeDepth",
              "type": "uint8"
            },
            {
              "internalType": "uint8",
              "name": "messageTreeSubDepth",
              "type": "uint8"
            },
            {
              "internalType": "uint8",
              "name": "messageTreeDepth",
              "type": "uint8"
            },
            {
              "internalType": "uint8",
              "name": "voteOptionTreeDepth",
              "type": "uint8"
            }
          ],
          "internalType": "struct Params.TreeDepths",
          "name": "_treeDepths",
          "type": "tuple"
        },
        {
          "components": [
            {
              "internalType": "uint256",
              "name": "x",
              "type": "uint256"
            },
            {
              "internalType": "uint256",
              "name": "y",
              "type": "uint256"
            }
          ],
          "internalType": "struct DomainObjs.PubKey",
          "name": "_coordinatorPubKey",
          "type": "tuple"
        },
        {
          "internalType": "address",
          "name": "_verifier",
          "type": "address"
        },
        {
          "internalType": "address",
          "name": "_vkRegistry",
          "type": "address"
        },
        {
          "internalType": "enum DomainObjs.Mode",
          "name": "_mode",
          "type": "uint8"
        }
      ],
      "name": "deployPoll",
      "outputs": [
        {
          "components": [
            {
              "internalType": "address",
              "name": "poll",
              "type": "address"
            },
            {
              "internalType": "address",
              "name": "messageProcessor",
              "type": "address"
            },
            {
              "internalType": "address",
              "name": "tally",
              "type": "address"
            }
          ],
          "internalType": "struct MACI.PollContracts",
          "name": "pollAddr",
          "type": "tuple"
        }
      ],
      "stateMutability": "nonpayable",
      "type": "function"
    },
    {
      "inputs": [
        {
          "internalType": "uint256",
          "name": "_pollId",
          "type": "uint256"
        }
      ],
      "name": "fetchPoll",
      "outputs": [
        {
          "components": [
            {
              "internalType": "uint256",
              "name": "id",
              "type": "uint256"
            },
            {
              "internalType": "string",
              "name": "name",
              "type": "string"
            },
            {
              "internalType": "bytes",
              "name": "encodedOptions",
              "type": "bytes"
            },
            {
              "internalType": "string",
              "name": "metadata",
              "type": "string"
            },
            {
              "components": [
                {
                  "internalType": "address",
                  "name": "poll",
                  "type": "address"
                },
                {
                  "internalType": "address",
                  "name": "messageProcessor",
                  "type": "address"
                },
                {
                  "internalType": "address",
                  "name": "tally",
                  "type": "address"
                }
              ],
              "internalType": "struct MACI.PollContracts",
              "name": "pollContracts",
              "type": "tuple"
            },
            {
              "internalType": "uint256",
              "name": "startTime",
              "type": "uint256"
            },
            {
              "internalType": "uint256",
              "name": "endTime",
              "type": "uint256"
            },
            {
              "internalType": "uint256",
              "name": "numOfOptions",
              "type": "uint256"
            },
            {
              "internalType": "string[]",
              "name": "options",
              "type": "string[]"
            },
            {
              "internalType": "string",
              "name": "tallyJsonCID",
              "type": "string"
            }
          ],
          "internalType": "struct MACIWrapper.PollData",
          "name": "poll_",
          "type": "tuple"
        }
      ],
      "stateMutability": "view",
      "type": "function"
    },
    {
      "inputs": [
        {
          "internalType": "uint256",
          "name": "_page",
          "type": "uint256"
        },
        {
          "internalType": "uint256",
          "name": "_perPage",
          "type": "uint256"
        },
        {
          "internalType": "bool",
          "name": "_ascending",
          "type": "bool"
        }
      ],
      "name": "fetchPolls",
      "outputs": [
        {
          "components": [
            {
              "internalType": "uint256",
              "name": "id",
              "type": "uint256"
            },
            {
              "internalType": "string",
              "name": "name",
              "type": "string"
            },
            {
              "internalType": "bytes",
              "name": "encodedOptions",
              "type": "bytes"
            },
            {
              "internalType": "string",
              "name": "metadata",
              "type": "string"
            },
            {
              "components": [
                {
                  "internalType": "address",
                  "name": "poll",
                  "type": "address"
                },
                {
                  "internalType": "address",
                  "name": "messageProcessor",
                  "type": "address"
                },
                {
                  "internalType": "address",
                  "name": "tally",
                  "type": "address"
                }
              ],
              "internalType": "struct MACI.PollContracts",
              "name": "pollContracts",
              "type": "tuple"
            },
            {
              "internalType": "uint256",
              "name": "startTime",
              "type": "uint256"
            },
            {
              "internalType": "uint256",
              "name": "endTime",
              "type": "uint256"
            },
            {
              "internalType": "uint256",
              "name": "numOfOptions",
              "type": "uint256"
            },
            {
              "internalType": "string[]",
              "name": "options",
              "type": "string[]"
            },
            {
              "internalType": "string",
              "name": "tallyJsonCID",
              "type": "string"
            }
          ],
          "internalType": "struct MACIWrapper.PollData[]",
          "name": "polls_",
          "type": "tuple[]"
        }
      ],
      "stateMutability": "view",
      "type": "function"
    },
    {
      "inputs": [
        {
          "internalType": "uint256",
          "name": "_pollId",
          "type": "uint256"
        }
      ],
      "name": "getPoll",
      "outputs": [
        {
          "internalType": "address",
          "name": "poll",
          "type": "address"
        }
      ],
      "stateMutability": "view",
      "type": "function"
    },
    {
      "inputs": [
        {
          "internalType": "address",
          "name": "_poll",
          "type": "address"
        }
      ],
      "name": "getPollId",
      "outputs": [
        {
          "internalType": "uint256",
          "name": "pollId",
          "type": "uint256"
        }
      ],
      "stateMutability": "view",
      "type": "function"
    },
    {
      "inputs": [],
      "name": "getStateTreeRoot",
      "outputs": [
        {
          "internalType": "uint256",
          "name": "root",
          "type": "uint256"
        }
      ],
      "stateMutability": "view",
      "type": "function"
    },
    {
      "inputs": [
        {
          "internalType": "uint256[2]",
          "name": "array",
          "type": "uint256[2]"
        }
      ],
      "name": "hash2",
      "outputs": [
        {
          "internalType": "uint256",
          "name": "result",
          "type": "uint256"
        }
      ],
      "stateMutability": "pure",
      "type": "function"
    },
    {
      "inputs": [
        {
          "internalType": "uint256[3]",
          "name": "array",
          "type": "uint256[3]"
        }
      ],
      "name": "hash3",
      "outputs": [
        {
          "internalType": "uint256",
          "name": "result",
          "type": "uint256"
        }
      ],
      "stateMutability": "pure",
      "type": "function"
    },
    {
      "inputs": [
        {
          "internalType": "uint256[4]",
          "name": "array",
          "type": "uint256[4]"
        }
      ],
      "name": "hash4",
      "outputs": [
        {
          "internalType": "uint256",
          "name": "result",
          "type": "uint256"
        }
      ],
      "stateMutability": "pure",
      "type": "function"
    },
    {
      "inputs": [
        {
          "internalType": "uint256[5]",
          "name": "array",
          "type": "uint256[5]"
        }
      ],
      "name": "hash5",
      "outputs": [
        {
          "internalType": "uint256",
          "name": "result",
          "type": "uint256"
        }
      ],
      "stateMutability": "pure",
      "type": "function"
    },
    {
      "inputs": [
        {
          "internalType": "uint256",
          "name": "left",
          "type": "uint256"
        },
        {
          "internalType": "uint256",
          "name": "right",
          "type": "uint256"
        }
      ],
      "name": "hashLeftRight",
      "outputs": [
        {
          "internalType": "uint256",
          "name": "result",
          "type": "uint256"
        }
      ],
      "stateMutability": "pure",
      "type": "function"
    },
    {
      "inputs": [
        {
          "components": [
            {
              "internalType": "uint256",
              "name": "msgType",
              "type": "uint256"
            },
            {
              "internalType": "uint256[10]",
              "name": "data",
              "type": "uint256[10]"
            }
          ],
          "internalType": "struct DomainObjs.Message",
          "name": "_message",
          "type": "tuple"
        },
        {
          "components": [
            {
              "internalType": "uint256",
              "name": "x",
              "type": "uint256"
            },
            {
              "internalType": "uint256",
              "name": "y",
              "type": "uint256"
            }
          ],
          "internalType": "struct DomainObjs.PubKey",
          "name": "_encPubKey",
          "type": "tuple"
        }
      ],
      "name": "hashMessageAndEncPubKey",
      "outputs": [
        {
          "internalType": "uint256",
          "name": "msgHash",
          "type": "uint256"
        }
      ],
      "stateMutability": "pure",
      "type": "function"
    },
    {
      "inputs": [
        {
          "components": [
            {
              "components": [
                {
                  "internalType": "uint256",
                  "name": "x",
                  "type": "uint256"
                },
                {
                  "internalType": "uint256",
                  "name": "y",
                  "type": "uint256"
                }
              ],
              "internalType": "struct DomainObjs.PubKey",
              "name": "pubKey",
              "type": "tuple"
            },
            {
              "internalType": "uint256",
              "name": "voiceCreditBalance",
              "type": "uint256"
            },
            {
              "internalType": "uint256",
              "name": "timestamp",
              "type": "uint256"
            }
          ],
          "internalType": "struct DomainObjs.StateLeaf",
          "name": "_stateLeaf",
          "type": "tuple"
        }
      ],
      "name": "hashStateLeaf",
      "outputs": [
        {
          "internalType": "uint256",
          "name": "ciphertext",
          "type": "uint256"
        }
      ],
      "stateMutability": "pure",
      "type": "function"
    },
    {
      "inputs": [],
      "name": "initialVoiceCreditProxy",
      "outputs": [
        {
          "internalType": "contract InitialVoiceCreditProxy",
          "name": "",
          "type": "address"
        }
      ],
      "stateMutability": "view",
      "type": "function"
    },
    {
      "inputs": [
        {
          "internalType": "uint256",
          "name": "",
          "type": "uint256"
        },
        {
          "internalType": "uint256",
          "name": "",
          "type": "uint256"
        }
      ],
      "name": "isPublicKeyRegistered",
      "outputs": [
        {
          "internalType": "bool",
          "name": "",
          "type": "bool"
        }
      ],
      "stateMutability": "view",
      "type": "function"
    },
    {
      "inputs": [],
      "name": "lazyIMTData",
      "outputs": [
        {
          "internalType": "uint40",
          "name": "maxIndex",
          "type": "uint40"
        },
        {
          "internalType": "uint40",
          "name": "numberOfLeaves",
          "type": "uint40"
        }
      ],
      "stateMutability": "view",
      "type": "function"
    },
    {
      "inputs": [],
      "name": "messageProcessorFactory",
      "outputs": [
        {
          "internalType": "contract IMessageProcessorFactory",
          "name": "",
          "type": "address"
        }
      ],
      "stateMutability": "view",
      "type": "function"
    },
    {
      "inputs": [],
      "name": "nextPollId",
      "outputs": [
        {
          "internalType": "uint256",
          "name": "",
          "type": "uint256"
        }
      ],
      "stateMutability": "view",
      "type": "function"
    },
    {
      "inputs": [],
      "name": "numSignUps",
      "outputs": [
        {
          "internalType": "uint256",
          "name": "signUps",
          "type": "uint256"
        }
      ],
      "stateMutability": "view",
      "type": "function"
    },
    {
      "inputs": [],
      "name": "owner",
      "outputs": [
        {
          "internalType": "address",
          "name": "",
          "type": "address"
        }
      ],
      "stateMutability": "view",
      "type": "function"
    },
    {
      "inputs": [
        {
          "internalType": "uint256[2]",
          "name": "dataToPad",
          "type": "uint256[2]"
        },
        {
          "internalType": "uint256",
          "name": "msgType",
          "type": "uint256"
        }
      ],
      "name": "padAndHashMessage",
      "outputs": [
        {
          "components": [
            {
              "internalType": "uint256",
              "name": "msgType",
              "type": "uint256"
            },
            {
              "internalType": "uint256[10]",
              "name": "data",
              "type": "uint256[10]"
            }
          ],
          "internalType": "struct DomainObjs.Message",
          "name": "message",
          "type": "tuple"
        },
        {
          "components": [
            {
              "internalType": "uint256",
              "name": "x",
              "type": "uint256"
            },
            {
              "internalType": "uint256",
              "name": "y",
              "type": "uint256"
            }
          ],
          "internalType": "struct DomainObjs.PubKey",
          "name": "padKey",
          "type": "tuple"
        },
        {
          "internalType": "uint256",
          "name": "msgHash",
          "type": "uint256"
        }
      ],
      "stateMutability": "pure",
      "type": "function"
    },
    {
      "inputs": [],
      "name": "pollFactory",
      "outputs": [
        {
          "internalType": "contract IPollFactory",
          "name": "",
          "type": "address"
        }
      ],
      "stateMutability": "view",
      "type": "function"
    },
    {
      "inputs": [
        {
          "internalType": "address",
          "name": "",
          "type": "address"
        }
      ],
      "name": "pollIds",
      "outputs": [
        {
          "internalType": "uint256",
          "name": "",
          "type": "uint256"
        }
      ],
      "stateMutability": "view",
      "type": "function"
    },
    {
      "inputs": [
        {
          "internalType": "uint256",
          "name": "",
          "type": "uint256"
        }
      ],
      "name": "polls",
      "outputs": [
        {
          "internalType": "address",
          "name": "",
          "type": "address"
        }
      ],
      "stateMutability": "view",
      "type": "function"
    },
    {
      "inputs": [],
      "name": "renounceOwnership",
      "outputs": [],
      "stateMutability": "nonpayable",
      "type": "function"
    },
    {
      "inputs": [
        {
          "components": [
            {
              "internalType": "uint8",
              "name": "intStateTreeDepth",
              "type": "uint8"
            },
            {
              "internalType": "uint8",
              "name": "messageTreeSubDepth",
              "type": "uint8"
            },
            {
              "internalType": "uint8",
              "name": "messageTreeDepth",
              "type": "uint8"
            },
            {
              "internalType": "uint8",
              "name": "voteOptionTreeDepth",
              "type": "uint8"
            }
          ],
          "internalType": "struct Params.TreeDepths",
          "name": "_treeDepths",
          "type": "tuple"
        },
        {
          "components": [
            {
              "internalType": "uint256",
              "name": "x",
              "type": "uint256"
            },
            {
              "internalType": "uint256",
              "name": "y",
              "type": "uint256"
            }
          ],
          "internalType": "struct DomainObjs.PubKey",
          "name": "_coordinatorPubKey",
          "type": "tuple"
        },
        {
          "internalType": "address",
          "name": "_verifier",
          "type": "address"
        },
        {
          "internalType": "address",
          "name": "_vkRegistry",
          "type": "address"
        }
      ],
      "name": "setConfig",
      "outputs": [],
      "stateMutability": "nonpayable",
      "type": "function"
    },
    {
      "inputs": [
        {
          "internalType": "uint256[]",
          "name": "array",
          "type": "uint256[]"
        }
      ],
      "name": "sha256Hash",
      "outputs": [
        {
          "internalType": "uint256",
          "name": "result",
          "type": "uint256"
        }
      ],
      "stateMutability": "pure",
      "type": "function"
    },
    {
      "inputs": [
        {
          "components": [
            {
              "internalType": "uint256",
              "name": "x",
              "type": "uint256"
            },
            {
              "internalType": "uint256",
              "name": "y",
              "type": "uint256"
            }
          ],
          "internalType": "struct DomainObjs.PubKey",
          "name": "_pubKey",
          "type": "tuple"
        },
        {
          "internalType": "bytes",
          "name": "_signUpGatekeeperData",
          "type": "bytes"
        },
        {
          "internalType": "bytes",
          "name": "_initialVoiceCreditProxyData",
          "type": "bytes"
        }
      ],
      "name": "signUp",
      "outputs": [],
      "stateMutability": "nonpayable",
      "type": "function"
    },
    {
      "inputs": [],
      "name": "signUpGatekeeper",
      "outputs": [
        {
          "internalType": "contract SignUpGatekeeper",
          "name": "",
          "type": "address"
        }
      ],
      "stateMutability": "view",
      "type": "function"
    },
    {
      "inputs": [],
      "name": "stateTreeDepth",
      "outputs": [
        {
          "internalType": "uint8",
          "name": "",
          "type": "uint8"
        }
      ],
      "stateMutability": "view",
      "type": "function"
    },
    {
      "inputs": [],
      "name": "tallyFactory",
      "outputs": [
        {
          "internalType": "contract ITallyFactory",
          "name": "",
          "type": "address"
        }
      ],
      "stateMutability": "view",
      "type": "function"
    },
    {
      "inputs": [],
      "name": "topupCredit",
      "outputs": [
        {
          "internalType": "contract TopupCredit",
          "name": "",
          "type": "address"
        }
      ],
      "stateMutability": "view",
      "type": "function"
    },
    {
      "inputs": [
        {
          "internalType": "address",
          "name": "newOwner",
          "type": "address"
        }
      ],
      "name": "transferOwnership",
      "outputs": [],
      "stateMutability": "nonpayable",
      "type": "function"
    },
    {
      "inputs": [],
      "name": "treeDepths",
      "outputs": [
        {
          "internalType": "uint8",
          "name": "intStateTreeDepth",
          "type": "uint8"
        },
        {
          "internalType": "uint8",
          "name": "messageTreeSubDepth",
          "type": "uint8"
        },
        {
          "internalType": "uint8",
          "name": "messageTreeDepth",
          "type": "uint8"
        },
        {
          "internalType": "uint8",
          "name": "voteOptionTreeDepth",
          "type": "uint8"
        }
      ],
      "stateMutability": "view",
      "type": "function"
    },
    {
      "inputs": [
        {
          "internalType": "uint256",
          "name": "_pollId",
          "type": "uint256"
        },
        {
          "internalType": "string",
          "name": "_tallyJsonCID",
          "type": "string"
        }
      ],
      "name": "updatePollTallyCID",
      "outputs": [],
      "stateMutability": "nonpayable",
      "type": "function"
    },
    {
      "inputs": [],
      "name": "verifier",
      "outputs": [
        {
          "internalType": "address",
          "name": "",
          "type": "address"
        }
      ],
      "stateMutability": "view",
      "type": "function"
    },
    {
      "inputs": [],
      "name": "vkRegistry",
      "outputs": [
        {
          "internalType": "address",
          "name": "",
          "type": "address"
        }
      ],
      "stateMutability": "view",
      "type": "function"
    }
  ],
  "transactionHash": "0x77d1d7886bda4a20d98ec1f2c8e1e26bef391d6a43cecd3959e119121c6888b9",
  "args": [
    "0xAC8D31808490D2D92D1abFe76CBB9BAed1650FbA",
    "0x12973B95A605fA6C6BD3e1962D8C5D9E69aFd76B",
    "0x12015de45D61073E1A355386aAaF5FF270063A52",
    "0x788d14a9823fd47F677DB1529508Ef5928aD25eD",
    "0x167F9e3b77912398CE06E801cF684bBD28a9b147",
    "0xBB45D19b4C54C1B14bCe1D415719ce473972Dfcb",
    10
  ],
  "numDeployments": 1,
  "solcInputHash": "6c0be007e849d1ed47dce2744cccbd11",
  "bytecode": "0x61016080604052346200027b5760e081620041e1803803809162000024828562000487565b8339810103126200027b578051906001600160a01b039081831683036200027b5760208101519282841684036200027b57604082015183811681036200027b57606083015184811681036200027b57608084015185811681036200027b5760a08501519486861686036200027b5760c001519560ff8716908188036200027b5733156200043c576000543360018060a01b0319821617600055604051913391167f8be0079c531659141344cd1fd0a4f28419497f9722a3daafe3b4186f6b6457e0600080a3602082116200042d57506001901b600019810190811162000417576003546001600160501b03191664ffffffffff91821617602881901c8216979160018901908111620004175760281b69ffffffffff00000000001617600355600096957f0ef71f46e11a513c599eed9dd03576c33439bcfb1cee155316f90541e41649ba5b64ffffffffff6200017b898b620004db565b16600052600480602052816040600020556001891615620002aa5760001964ffffffffff8a160164ffffffffff8111620002955791602091620001c362000206948d620004db565b9164ffffffffff60405193620001d98562000455565b1660005281845260406000205483528383015260405193849283926314d2f97b60e11b84528301620004ab565b03817366556eD8C5423ee7540Dcf79383a67D75Aa987AC5af490811562000289576000916200024b575b506001647fffffffff60ff9299821c16990116979662000169565b90506020813d60201162000280575b81620002696020938362000487565b810103126200027b5751600162000230565b600080fd5b3d91506200025a565b6040513d6000823e3d90fd5b601182634e487b7160e01b6000525260246000fd5b5050888660c05260e05261010094855260a052610120928352610140918252608052620003056020604051620002e08162000455565b60018152600182820152604051809381926314d2f97b60e11b835260048301620004ab565b03817366556eD8C5423ee7540Dcf79383a67D75Aa987AC5af49081156200028957600091620003df575b5015620003cd5760405191613cdc9384620005058539608051848181610aae0152611de2015260a05184818161078801528181610fb10152612434015260c0518481816107c701528181610ff00152611b90015260e05184818161084d0152818161106d01526125f30152518381816108dd01528181610c0e01526110fa015251828181611e39015261247901525181818161048d0152611ebc0152f35b604051633d7ba68560e21b8152600490fd5b90506020813d6020116200040e575b81620003fd6020938362000487565b810103126200027b5751846200032f565b3d9150620003ee565b634e487b7160e01b600052601160045260246000fd5b633e104c7760e01b8152600490fd5b604051631e4fbdf760e01b815260006004820152602490fd5b604081019081106001600160401b038211176200047157604052565b634e487b7160e01b600052604160045260246000fd5b601f909101601f19168101906001600160401b038211908210176200047157604052565b6040810192916000915b60028310620004c357505050565b600190825181526020809101920192019190620004b5565b60ff1663ffffffff0264ffffffffff91828216918203620004175782160190811162000417579056fe608080604052600436101561001357600080fd5b600090813560e01c908163055575eb146125df5750806306912d3c146124a8578063079410db146124635780630dd5a8881461241e5780631096c30e146123af578063122db1531461238757806313fb89321461235e578063167fd483146122bc5780631a8cbcaa146122655780631b6ef3c5146121d95780632b786571146121bb5780632b7ac3f31461219257806331e766a51461216d5780633364120a14611d5a5780633364c4c814611bbf578063343393b514611b7a5780633dfb88b214611b22578063423f3e1914611aa057806346e47f9a14611a395780634d5da86b14610db657806358bfc37914610c935780635bb9399514610c6257806362a361bb14610c3d57806362b31f1e14610bf857806364e0ece114610ad2578063652c76e414610a94578063683f3dc314610a785780636b4575e2146105df578063715018a6146105855780637d0a81c8146105435780638da5cb5b1461051c5780639cfced97146104bc578063aab4a67014610477578063ac2f007414610444578063ac98e5df14610402578063b6868720146103d2578063bea140b3146102d1578063c8cf9ab214610298578063d7a71b9a146102665763f2fde38b146101d957600080fd5b34610263576020366003190112610263576101f2612955565b6101fa6129ae565b6001600160a01b0390811690811561024a57600054826001600160601b0360a01b821617600055167f8be0079c531659141344cd1fd0a4f28419497f9722a3daafe3b4186f6b6457e0600080a380f35b604051631e4fbdf760e01b815260048101849052602490fd5b80fd5b50346102635760ff604060209261027c36612998565b908252600c855282822090825284522054166040519015158152f35b5034610263576020366003190112610263576020906040906001600160a01b036102c0612955565b168152600b83522054604051908152f35b503461026357606036600319011261026357366023121561026357604051906102f982612653565b60648236821161038f576004905b8282106103c25750506040516304b98e1d60e31b81529283908390600483015b600383106103a85750505060209181732FbEDbe38f011a6a9D9146d2A94a0873F5D219865af490811561039c5790610365575b602090604051908152f35b506020813d8211610394575b8161037e602093836126db565b8101031261038f576020905161035a565b600080fd5b3d9150610371565b604051903d90823e3d90fd5b815181528693506001929092019160209182019101610327565b8135815260209182019101610307565b5034610263578060031936011261026357604060035481519064ffffffffff90818116835260281c166020820152f35b5034610263578060031936011261026357608060065460ff604051918181168352818160081c166020840152818160101c16604084015260181c166060820152f35b503461026357602036600319011261026357602090600435815260028252604060018060a01b0391205416604051908152f35b50346102635780600319360112610263576040517f00000000000000000000000000000000000000000000000000000000000000006001600160a01b03168152602090f35b50346102635760a0366003190112610263573660231215610263576040516104e3816126c0565b60a48136821161038f576020926004905b83821061050d5784610505846131ca565b604051908152f35b813581529084019084016104f4565b5034610263578060031936011261026357546040516001600160a01b039091168152602090f35b503461026357608036600319011261026357602061050560405161056681612653565b61056f3661289f565b8152604435838201526064356040820152613b90565b503461026357806003193601126102635761059e6129ae565b600080546001600160a01b0319811682556001600160a01b03167f8be0079c531659141344cd1fd0a4f28419497f9722a3daafe3b4186f6b6457e08280a380f35b50346102635761014036600319011261026357608036602319011261038f576040519061060b8261266e565b60243560ff8116810361038f57825260443560ff8116810361038f57602083015260643560ff8116810361038f57604083015260843560ff8116810361038f57606083015260403660a319011261038f576040519161066983612622565b60a435835260c435602084015261067e61296b565b9261010435926001600160a01b038416840361038f57600261012435101561026357506106a9612b36565b506106b26129ae565b60015491600183016001556106cd825160208401519061304a565b15610a66576106e260ff604083015116612f66565b946106f360ff606084015116612f66565b6040519661070088612622565b8752602087015260ff606060018060a01b03600054169360206040519963b43c496960e01b8b5260043560048c0152805160248c0152015160448a01528281511660648a01528260208201511660848a01528260408201511660a48a015201511660c4870152825160e487015260208301516101048701523061012487015260018060a01b037f0000000000000000000000000000000000000000000000000000000000000000166101448701528161016487015260208661018481600060018060a01b037f0000000000000000000000000000000000000000000000000000000000000000165af1958615610a1857600096610a45575b50604051633634487360e01b81526001600160a01b03918216600482018190528683166024830152969091166044820181905260648201839052946108436084830161012435613027565b60208260a48160007f00000000000000000000000000000000000000000000000000000000000000006001600160a01b03165af1918215610a1857600092610a24575b5060405163431a717560e01b815260048101979097526001600160a01b03908116602488015260448701869052166064860181905260848601919091526108d360a4860161012435613027565b60208560c48160007f00000000000000000000000000000000000000000000000000000000000000006001600160a01b03165af1908115610a18576060956000926109e7575b508360005260026020526040600020856001600160601b0360a01b8254161790556040519461094786612653565b8552602085015260018060a01b031660408401527f5d44349ae326b87d465005978623860ad393d327ba73078f82a9331a7cc6b360608060208351930151936040519081526109ba60208201876040908160018060a01b0391828151168552826020820151166020860152015116910152565ba36040805182516001600160a01b0390811682526020808501518216908301529282015190921690820152f35b610a0a91925060203d602011610a11575b610a0281836126db565b810190613008565b9038610919565b503d6109f8565b6040513d6000823e3d90fd5b610a3e91925060203d602011610a1157610a0281836126db565b9038610886565b610a5f91965060203d602011610a1157610a0281836126db565b94386107f8565b6040516379fae7af60e01b8152600490fd5b50346102635780600319360112610263576020604051600a8152f35b5034610263578060031936011261026357602060405160ff7f0000000000000000000000000000000000000000000000000000000000000000168152f35b50346102635736600319016101008112610bf45760801361038f57604051610af98161266e565b60043560ff8116810361038f5781526024359060ff8216820361038f57602081019182526044359060ff8216820361038f57604081019182526064359260ff8416840361038f5760608201938452604036608319011261038f57604051610b5f81612622565b6084358152602081019160a435835260c4359560018060a01b039586881680980361038f5761ff0060ff610b9161296b565b97610b9a6129ae565b511663ff00000062ff00006006549651945160101b16945160181b169463ffffffff1916179160081b1617171760065551600755516008556001600160601b0360a01b928360095416176009551690600a541617600a5580f35b5080fd5b50346102635780600319360112610263576040517f00000000000000000000000000000000000000000000000000000000000000006001600160a01b03168152602090f35b5034610263576040366003190112610263576020610505610c5d366126fc565b6130e9565b5034610263576020610505610c7636612998565b60405191610c8383612622565b60403684378252838201526130e9565b50346102635760209081600319360112610263576004356001600160401b038111610bf45736602382011215610bf4578060040135610cd181612981565b91610cdf60405193846126db565b8183528483016024819360051b83010191368311610db25791869394916024879401905b828210610da057505050604051838101809251909590845b818110610d8757505050610d3d81610d4e94959603601f1981018352826126db565b60405192839283925192839161273d565b8101039060025afa1561039c577f30644e72e131a029b85045b68181585d2833e84879b9709143e1f593f0000001905106604051908152f35b8251885296860196899689965090920191600101610d1b565b81358152879450908501908501610d03565b8580fd5b50346102635760a0366003190112610263576004356001600160401b038111610bf457610de7903690600401612928565b906001600160401b0360243511611a3557366023602435011215611a35576001600160401b036024356004013511611a355736602480356004013560051b8135010111611a35576044356001600160401b038111611a3157610e4d903690600401612928565b919060026084351015611a2d57610e626129ae565b600154600954600a5460405192959294916001600160a01b039182169116610e898661266e565b60ff6006548181168852818160081c166020890152818160101c16604089015260181c16606087015260405191610ebf83612622565b60075483526008546020840152610ed4612b36565b50610edd6129ae565b60018801600155610ef4835160208501519061304a565b15610a6657610f0960ff604089015116612f66565b96610f1a60ff606083015116612f66565b60405198610f278a612622565b8952602089015260ff606060018060a01b03600054169260206040519b63b43c496960e01b8d528c60046064359101528c60248251910152015160448c01528281511660648c01528260208201511660848c01528260408201511660a48c015201511660c4890152835160e489015260208401516101048901523061012489015260018060a01b037f0000000000000000000000000000000000000000000000000000000000000000166101448901528061016489015260208861018481600060018060a01b037f0000000000000000000000000000000000000000000000000000000000000000165af1978815610a1857600098611a0c575b50604051633634487360e01b815260048101849052602481018390526001600160a01b0389166044820152606481018290529161106360848085019035613027565b60208360a48160007f00000000000000000000000000000000000000000000000000000000000000006001600160a01b03165af1928315610a18576000936119eb575b5060405163431a717560e01b8152600481019490945260248401526001600160a01b038881166044850152821660648401526084808401919091526110f09060a484019035613027565b60208260c48160007f00000000000000000000000000000000000000000000000000000000000000006001600160a01b03165af1918215610a18576000926119ca575b506000888152600260205260409081902080546001600160a01b0319166001600160a01b038a16179055519661116888612653565b6001600160a01b03908116885290811660208089019182529282166040808a0191825285519585015181518c81528b51861696810196909652925184169085015251909116606083015291907f5d44349ae326b87d465005978623860ad393d327ba73078f82a9331a7cc6b36090608090a360018060a01b038451168752600b6020528460408820556040519560208088015261122587611217604082016024356004013560248035016129fb565b03601f1981018952886126db565b61123160643542612a84565b966040519061123f82612689565b87825261124d3684866128c7565b602083015260408201526112623685876128c7565b60608201528560808201524260a08201528760c08201526024356004013560e082015261129460243560040135612981565b6112a160405191826126db565b602480356004810135835201602082015b602480356004013560051b8135010182106119845750506101008201526040516112db816126a5565b898152610120820152868952600560205260408920908051825560208101518051906001600160401b0382116118025781906113278261131e6001880154612a91565b60018801612ae2565b602090601f8311600114611915578d9261190a575b50508160011b916000199060031b1c19161760018301555b60408101518051906001600160401b0382116118025781906113868261137d6002880154612a91565b60028801612ae2565b602090601f831160011461189b578d92611890575b50508160011b916000199060031b1c19161760028301555b60608101518051906001600160401b0382116118025781906113e5826113dc6003880154612a91565b60038801612ae2565b602090601f8311600114611821578d92611816575b50508160011b916000199060031b1c19161760038301555b608081015180516004840180546001600160a01b03199081166001600160a01b039384161790915560208301516005860180548316918416919091179055604090920151600685018054909316911617905560a0810151600783015560c0810151600883015560e0810151600983015561010081015180519068010000000000000000821161180257600a84015482600a860155808310611787575b50602001600a84018c5260208c208c915b838310611692575050505061012001518051906001600160401b03821161167e576114fa826114f1600b860154612a91565b600b8601612ae2565b6020908b601f84116001146115e05793600b84611599957f7532e9985b123ef8bda3bc40b1a4296f34238889a58a41de23df560b8bfb9bc69c9b99956115c09b99956115b299926115d5575b50508160011b916000199060031b1c1916179101555b6040805189516001600160a01b0390811682526020808c0151821690830152998201519099169089015261010060608901526101008801916129da565b85810360808701526024356004013560248035016129fb565b9184830360a08601526129da565b934260c083015260e08201528033940390a380f35b015190503880611546565b5090600b84018c5260208c20918c5b601f1985168110611666575093600b6001857f7532e9985b123ef8bda3bc40b1a4296f34238889a58a41de23df560b8bfb9bc69c9b99956115c09b99956115b29961159999601f1981161061164d575b505050811b0191015561155c565b015160001960f88460031b161c1916905538808061163f565b919260206001819286850151815501940192016115ef565b634e487b7160e01b8b52604160045260248bfd5b80518051906001600160401b038211611772578f906116bb836116b58754612a91565b87612ae2565b602091601f8411600114611705579280602093600196938796926116fa575b5050600019600383901b1c191690841b1785555b019201920191906114bf565b0151905038806116da565b919085835260208320925b601f198516811061175a575083602093600196938796938794601f19811610611741575b505050811b0185556116ee565b015160001960f88460031b161c19169055388080611734565b91926020600181928685015181550194019201611710565b50634e487b7160e01b8f52604160045260248ffd5b600a85018d5260208d20908382018e5b82840182106117a8575050506114ae565b906001916117b68254612a91565b806117c5575b5050018e611797565b601f811184146117dd575050600081555b8f386117bc565b8282526117f8601f60208420920160051c8201858301612acb565b60008355556117d6565b634e487b7160e01b8c52604160045260248cfd5b0151905038806113fa565b9250600385018d5260208d20908d935b601f1984168510611875576001945083601f1981161061185c575b505050811b016003830155611412565b015160001960f88460031b161c1916905538808061184c565b81810151835560209485019460019093019290910190611831565b01519050388061139b565b9250600285018d5260208d20908d935b601f19841685106118ef576001945083601f198116106118d6575b505050811b0160028301556113b3565b015160001960f88460031b161c191690553880806118c6565b818101518355602094850194600190930192909101906118ab565b01519050388061133c565b9250600185018d5260208d20908d935b601f1984168510611969576001945083601f19811610611950575b505050811b016001830155611354565b015160001960f88460031b161c19169055388080611940565b81810151835560209485019460019093019290910190611925565b81356001600160401b0381116119c65760243501366043820112156119c6576020916119bb839236906044602482013591016128c7565b8152019101906112b2565b8c80fd5b6119e491925060203d602011610a1157610a0281836126db565b9038611133565b611a0591935060203d602011610a1157610a0281836126db565b91386110a6565b611a2691985060203d602011610a1157610a0281836126db565b9638611021565b8480fd5b8380fd5b8280fd5b5034610263576020366003190112610263576001600160a01b03611a5b612955565b16808252600b60205260408220546001541115611a88578160409160209352600b83522054604051908152f35b6024906040519063e64d908d60e01b82526004820152fd5b503461026357806003193601126102635764ffffffffff908160035460281c16906001809381945b611ad9575b6020610505868661326a565b90919360ff808216918584611aed85612f45565b161015611b1a57508114611b0657820193919081611ac8565b634e487b7160e01b85526011600452602485fd5b955050611acd565b503461026357608036600319011261026357366023121561026357604051611b498161266e565b60848136821161038f576020926004905b838210611b6b578461050584613162565b81358152908401908401611b5a565b50346102635780600319360112610263576040517f00000000000000000000000000000000000000000000000000000000000000006001600160a01b03168152602090f35b5034610263576040366003190112610263576004356001600160401b03602435818111611a3157611bf4903690600401612928565b9190611bfe6129ae565b6001918254851015611d415784865260209260058452600b6040882001918511611d2d57611c3685611c308454612a91565b84612ae2565b86601f8611600114611ca8579185807f2cd30b9efd64638f847bef681e87dfbb567e261d02660c8166a92f33729ab33e97969593611c97958b93611c9d575b501b906000198760031b1c19161790555b6040519383859485528401916129da565b0390a280f35b850135925038611c75565b82885284882090601f198716895b818110611d1857509187969593917f2cd30b9efd64638f847bef681e87dfbb567e261d02660c8166a92f33729ab33e98611c97969410611cfe575b505085811b019055611c86565b840135600019600389901b60f8161c191690553880611cf1565b86830135845592840192918701918701611cb6565b634e487b7160e01b87526041600452602487fd5b60405163a86ecdd560e01b815260048101869052602490fd5b503461026357608036600319011261026357611d753661289f565b6001600160401b0390604435828111611a3157611d9690369060040161290d565b91606435818111611a2d57611daf90369060040161290d565b9180518552602091600c835260408620938383019485518852845260ff958660408920541661215b5760035492611e07887f000000000000000000000000000000000000000000000000000000000000000016612f2a565b64ffffffffff809560281c16101561214957611e26855188519061304a565b15610a66576001600160a01b03918991907f0000000000000000000000000000000000000000000000000000000000000000841690813b15611a31578391611e859160405195868094819363125c7dfb60e11b83523360048401612fcf565b03925af1801561213e57612116575b5050611eb8918591604051808095819463b36543a960e01b83523360048401612fcf565b03917f0000000000000000000000000000000000000000000000000000000000000000165afa90811561210b5787916120de575b50611f0f604051611efc81612653565b8481528286820152426040820152613b90565b9560035496838860281c16906001988983018681116120c85769ffffffffff00000000009060281b169069ffffffffff000000000019161760035590888a917366556eD8C5423ee7540Dcf79383a67D75Aa987AC915b611fdb575b50505050507fd3c3cd829e4e37d5baaf10abace26b24e0046e20500c999380410f807edfcda06060611fa28460035460281c16612ff1565b8551938851956040519216825287820152426040820152a3518452600c8152604084209151845252604082209060ff1982541617905580f35b86611fe68285613231565b168c52600489528360408d20558b898c8316156120c15761204e9561201361200d85612ff1565b87613231565b908a6040519261202284612622565b168452600483526040842054825282820152604051809781926314d2f97b60e11b8352600483016130bb565b0381865af480156120b4578c9587929161207a575b5094938401169290811c647fffffffff1690611f65565b955050508884813d83116120ad575b61209381836126db565b8101031261038f57848b647fffffffff8196519150612063565b503d612089565b50604051903d90823e3d90fd5b5050611f6a565b634e487b7160e01b600052601160045260246000fd5b90508381813d8311612104575b6120f581836126db565b8101031261038f575138611eec565b503d6120eb565b6040513d89823e3d90fd5b819992991161212a57604052968185611e94565b634e487b7160e01b82526041600452602482fd5b6040513d8c823e3d90fd5b60405163b984588b60e01b8152600490fd5b604051632e13e04560e01b8152600490fd5b5034610263578060031936011261026357604060075460085482519182526020820152f35b50346102635780600319360112610263576009546040516001600160a01b039091168152602090f35b50346102635780600319360112610263576020600154604051908152f35b5034610263576060366003190112610263576044358015158103610bf45761220690602435600435612dd0565b60405190602092838301848452825180915260408401948060408360051b870101940192955b8287106122395785850386f35b909192938280612255600193603f198a82030186528851612785565b960192019601959291909261222c565b503461026357602036600319011261026357600435906001548210156122a357602091815260028252604060018060a01b0391205416604051908152f35b60405163a86ecdd560e01b815260048101839052602490fd5b50346102635736600319016101a08112610bf45761016013610263576040516122e481612622565b60043581523660431215610bf457604051916122ff83612689565b8261016493368511611a35576024905b85821061234e575050602083015260403661016319011261026357602061050584846040519161233e83612622565b3582526101843584830152613bcc565b813581526020918201910161230f565b5034610263578060031936011261026357600a546040516001600160a01b039091168152602090f35b5034610263578060031936011261026357602064ffffffffff60035460281c16604051908152f35b5034610263576020366003190112610263576004356123cc612b55565b50600154811015612406576040826123ee926124029452600560205220612c87565b604051918291602083526020830190612785565b0390f35b6024906040519063a86ecdd560e01b82526004820152fd5b50346102635780600319360112610263576040517f00000000000000000000000000000000000000000000000000000000000000006001600160a01b03168152602090f35b50346102635780600319360112610263576040517f00000000000000000000000000000000000000000000000000000000000000006001600160a01b03168152602090f35b5034610263576060366003190112610263576124c3366126fc565b604051906124d082612622565b828252604051916124e083612689565b6101409182368537602093848093015284826040516124fe81612622565b82815201526040519261251084612689565b3684378051835201518282015260405161252981612622565b7f171e826ad4a870fd925e0bf0e87884e70e080879c2205ef10114f28a3b6f6dd78152828101907f2bd407d897fbbca9f88adfd2d15252e69de8c1564eb4d3d27162e259172f1a1d82526040519361258085612622565b60443585528085019384526125958286613bcc565b60405195518652935195908086015b600a83106125ca575050506101c0945051610160840152516101808301526101a0820152f35b81806001928a518152019801920191966125a4565b905034610bf45781600319360112610bf4577f00000000000000000000000000000000000000000000000000000000000000006001600160a01b03168152602090f35b604081019081106001600160401b0382111761263d57604052565b634e487b7160e01b600052604160045260246000fd5b606081019081106001600160401b0382111761263d57604052565b608081019081106001600160401b0382111761263d57604052565b61014081019081106001600160401b0382111761263d57604052565b602081019081106001600160401b0382111761263d57604052565b60a081019081106001600160401b0382111761263d57604052565b90601f801991011681019081106001600160401b0382111761263d57604052565b806023121561038f576040519061271282612622565b81604491821161038f576004905b82821061272d5750505090565b8135815260209182019101612720565b60005b8381106127505750506000910152565b8181015183820152602001612740565b906020916127798151809281855285808601910161273d565b601f01601f1916010190565b9190825181526020906127cf6127bd6127ab848701516101808087870152850190612760565b60408701518482036040860152612760565b60608601518382036060850152612760565b60808086015180516001600160a01b03908116928501929092526020810151821660a0850152604001511660c08301529360a081015160e083015260c081015190610100918284015260e08101519161012092838501528101519383870361014085015284518088528188019180808360051b8b01019701926000905b83821061287257505050505061286f949550015190610160818403910152612760565b90565b909192939783806128906001938e601f199082030186528c51612760565b9a01920192019093929161284c565b604090600319011261038f57604051906128b882612622565b60043582526024356020830152565b9291926001600160401b03821161263d57604051916128f0601f8201601f1916602001846126db565b82948184528183011161038f578281602093846000960137010152565b9080601f8301121561038f5781602061286f933591016128c7565b9181601f8401121561038f578235916001600160401b03831161038f576020838186019501011161038f57565b600435906001600160a01b038216820361038f57565b60e435906001600160a01b038216820361038f57565b6001600160401b03811161263d5760051b60200190565b604090600319011261038f576004359060243590565b6000546001600160a01b031633036129c257565b60405163118cdaa760e01b8152336004820152602490fd5b908060209392818452848401376000828201840152601f01601f1916010190565b9082818152602080910193818360051b82010194846000925b858410612a25575050505050505090565b90919293949596601f198282030184528735601e198436030181121561038f5783018681019190356001600160401b03811161038f57803603831361038f57612a73889283926001956129da565b990194019401929594939190612a14565b919082018092116120c857565b90600182811c92168015612ac1575b6020831014612aab57565b634e487b7160e01b600052602260045260246000fd5b91607f1691612aa0565b818110612ad6575050565b60008155600101612acb565b9190601f8111612af157505050565b612b1d926000526020600020906020601f840160051c83019310612b1f575b601f0160051c0190612acb565b565b9091508190612b10565b919082039182116120c857565b60405190612b4382612653565b60006040838281528260208201520152565b60405190612b6282612689565b81600081526101206060918260208201528260408201528280820152612b86612b36565b6080820152600060a0820152600060c0820152600060e0820152826101008201520152565b60001981146120c85760010190565b805115612bc75760200190565b634e487b7160e01b600052603260045260246000fd5b8051821015612bc75760209160051b010190565b9060009291805491612c0283612a91565b918282526001938481169081600014612c645750600114612c24575b50505050565b90919394506000526020928360002092846000945b838610612c50575050505001019038808080612c1e565b805485870183015294019385908201612c39565b9294505050602093945060ff191683830152151560051b01019038808080612c1e565b90604091825190612c9782612689565b81938154835280516001612cb882612cb181848801612bf1565b03836126db565b602091828601528251612cd981612cd28160028901612bf1565b03826126db565b838601528251612cf081612cd28160038901612bf1565b60608601528251612d0081612653565b60048501546001600160a01b0390811682526005860154811684830152600686015416848201526080860152600784015460a0860152600884015460c0860152600984015460e0860152600a8401805490612d5a82612981565b93612d67865195866126db565b82855260009182528082208186015b848410612dae5750505050505061012092612da38593612daa93610100600b980152518096819301612bf1565b03846126db565b0152565b858381928a51612dc281612cd28189612bf1565b815201920193019290612d76565b600019939284820192909183116120c857808302928084048214901517156120c857612dfc9083612a84565b938085019485116120c85784916001549586851015612f1057861115612efe575b612e278484612b29565b90600182018092116120c857612e3c82612981565b92604092612e4c845195866126db565b808552612e5b601f1991612981565b0160005b818110612ee757505083976000965b86811115612e80575050505050505050565b808415612ecb575b90612ec6916000526005602052612ec08660002099612eaf612ea982612bab565b9b612c87565b612eb9828b612bdd565b5288612bdd565b50612bab565b612e6e565b50612ed68183612b29565b908382019182116120c85790612e88565b602090612ef2612b55565b82828901015201612e5f565b91508085018581116120c85791612e1d565b50505050509050604051612f23816126a5565b6000815290565b8015612f3f5760ff81116120c8576001901b90565b50600190565b8015612f3f5760ff81116120c8576001901b9064ffffffffff82116120c857565b8015612f3f57600190602081108216604e8210831617612fc75781906005925b808211612f9e575050816000190481116120c8570290565b9092806000190481116120c857818416612fbe575b800292811c90612f86565b80920291612fb3565b905060050a90565b6001600160a01b03909116815260406020820181905261286f92910190612760565b64ffffffffff90811660001901919082116120c857565b9081602091031261038f57516001600160a01b038116810361038f5790565b9060028210156130345752565b634e487b7160e01b600052602160045260246000fd5b907f30644e72e131a029b85045b68181585d2833e84879b9709143e1f593f0000001808080858196099380098180828187620292fc090894620292f809096001089080828111156130a8575b506000916130a391612b29565b081590565b90508281018091116120c8576000613096565b6040810192916000915b600283106130d257505050565b6001908251815260208091019201920191906130c5565b602061310991604051809381926314d2f97b60e11b8352600483016130bb565b03817366556eD8C5423ee7540Dcf79383a67D75Aa987AC5af4908115610a1857600091613134575090565b906020823d821161315a575b8161314d602093836126db565b8101031261026357505190565b3d9150613140565b60405163248f667760e01b81529060049060008284015b8382106131b3575050505060208160848173eac082F3ac67427585C208f0bdfCCB3b1c8621aa5af4908115610a1857600091613134575090565b600190835181526020809101930191019091613179565b604051630926f44b60e31b815290600090600483015b6005831061321a5750505060208160a48173702F4AF4523b410D474DBfCD5B436c14A4B10D715af4908115610a1857600091613134575090565b6001908251815260208091019201920191906131e0565b60ff1663ffffffff0264ffffffffff918282169182036120c8578216019081116120c85790565b60ff60019116019060ff82116120c857565b919060ff92838216916020908184116135a05764ffffffffff9182841691821561358f576132988891613258565b166132cf6132a582612981565b956040926132b5845198896126db565b8088526132c4601f1991612981565b013685890137612ff1565b90600194858084161560001461355a5750808316948186116120c857869560005260048552826000205461330289612bba565b52999592995b6000935b613327575b50505050505050613323929350612bdd565b5190565b86849a9998979a168881101561354f57858c8816613416576133819161335886519161335283612622565b8b612bdd565b518152613364876135b2565b828201528551809381926314d2f97b60e11b8352600483016130bb565b03817366556eD8C5423ee7540Dcf79383a67D75Aa987AC5af490811561340b576000916133de575b509986647fffffffff829d8a9b9c9d6133ce849c866133c78c613258565b1690612bdd565b525b821c16950116939a9661330c565b908682813d8311613404575b6133f481836126db565b81010312610263575051866133a9565b503d6133ea565b84513d6000823e3d90fd5b5082828c61342388613258565b161c1690647fffffffff8d891c1680921160001461347e57509986647fffffffff829d8561345d849c9d9e9f6134588b613258565b613231565b166000526004895286600020546134788d866133c78c613258565b526133d0565b6134dc91508690846134998f61349390612ff1565b89613231565b1660005260048083526134bf8760002054928851936134b785612622565b84528c612bdd565b518284015286516314d2f97b60e11b8152938492839283016130bb565b03817366556eD8C5423ee7540Dcf79383a67D75Aa987AC5af490811561340b57600091613522575b509986647fffffffff829d8a9b9c9d613478849c866133c78c613258565b908682813d8311613548575b61353881836126db565b8101031261026357505186613504565b503d61352e565b508697989950613311565b947f0ef71f46e11a513c599eed9dd03576c33439bcfb1cee155316f90541e41649ba61358589612bba565b5299959299613308565b94505050505061286f9192506135b2565b604051633e104c7760e01b8152600490fd5b60ff168015613b6b5760018114613b465760028114613b215760038114613afc5760048114613ad75760058114613ab25760068114613a8d5760078114613a685760088114613a435760098114613a1e57600a81146139f957600b81146139d457600c81146139af57600d811461398a57600e811461396557600f8114613940576010811461391b57601181146138f657601281146138d157601381146138ac57601481146138875760158114613862576016811461383d576017811461381857601881146137f357601981146137ce57601a81146137a957601b811461378457601c811461375f57601d811461373a57601e811461371557601f81146136f0576020146136cc576040516310a2ea0560e21b8152600490fd5b7f1d90601a0c76d2f39824f6dc198fb3b48cbd0231516c8f6208e56ea741c341f990565b507f216b9fa3ac3724cf1ec6caf5a66dd85cae3aee727e00d2a0a59f273df3401f1090565b507f2b59c2651b412c029efa38f835ac1b1b5bdaf89dcb2e4bc9219e7d77c65e776a90565b507f14b46e659dc4072fc64a18d44911c4a303b45f1296c3cb7dec77f269bee9b5df90565b507f0845dd838ca63b2f68775aac8513bd692d26f511698206f3c6ce2b4100dd8d8f90565b507f132e4ff3e4ba890f1610efd4d2f69700b825514d557b82663878a56e2acef41c90565b507f24cb019b59431c232413f66b041923214f7a8a7489caa05b66860f1c3c76d3b190565b507f1b6367322bac9f24889900d310e2feaa0021516fac77470aea078e89335d3fcf90565b507f19b336a1e0a933e2a8f97d97322dcee843a2d9a2401bece52a3a25ddd5bb6bc990565b507f1d71ada9e49baeb4a2cf26be37d3bc680554995ef6706105e93978ba71cacf9490565b507f2560496c1138c827f1efb407d0cdb9d6ec9539b0957dfb67de2776e6026d630f90565b507f2ce2c1fb109ad6574570826774ecfca3e04866bb5a3963962b873646db6641f390565b507f1713f3e3dc5e2393bd31ccc0cdd8601bdee3198cf34d566bb60cfab13e5a087390565b507f2c849a73ab21c9e88e1d711f221863e2a94eb58f3eb42dde575301451f3ec5c890565b507f1874217e8e1dbc51c571a2db1103bf47c3e66a59305ca48bbcee6ad1c8cc575190565b507f2b8342160822355808db759147a7d6f61de451bd5bb88f9db2eb406ea68b813890565b507f199cd1f5b757c285023767abbe9bbb318da4e1fd375b5a001b54a0f3901ea7d390565b507f128fb9ad5b2d8e694bec0888ff95609c15b2a96ae80a34946c953dc503e46fb690565b507f2ec047dd616221873c234f36461080c3e760644bb519ebdb49eb9645215e0edc90565b507f2582b5cdefe032d75373f0ede9171406137e93e7d44405a0b0a409c1c739138090565b507f1f336d6d45d293180c75964e99a7599d44cac2ad447c202c3e1973b0322cf99090565b507f05e0136534f74776d69646bd0bd94519e63af45734405f479382d8400514c1a690565b507f10f7b76489e9c36644736c33c600d1bcedd465fd0aff3027e67b02e13875272d90565b507f1e73f08f6e5e4bb9c2096cc4587526ebfd033c222f4a27e97119c867c36a0d3a90565b507f1ea63a974336db6c0423e719d3f0e11494266237dda3a40de3cb76104436635990565b507f0690bfb582c7502ff6d15d519740ecd73d652b7a14dc82bfd250613ee8e0407690565b507f30553f8216db90854953edd47602897f897104d5b0d65a5ce000981c51da32e090565b507f11dc55d21b17daf8e60253c2a43d519039ba968733cf7c9d5df6155939e1a6d890565b507f08e4b5d410c8de929132c214ea600b5f252fa14aabb97ea67cda5bb4e0ebeec890565b507f04265868d2e705f48d3ae49f7749e67a587dafdb569c1d7334675496046eaad690565b507f2a06fb0b739b402c34dc752d8417b9cd67b7f7cabe4b06b5d995053791fcede490565b507f06928e817d2804a3713efd102bae900c9ab3e8e0b0c6c20f8613bd3b0423a89190565b507f0ef71f46e11a513c599eed9dd03576c33439bcfb1cee155316f90541e41649ba90565b61286f906040805191613ba28361266e565b60803684378051518352602081510151602084015260208101518284015201516060820152613162565b906020808301916040805194613be1866126c0565b60a0368737845151865283855101518487015281855101518287015260608551015160608701526080855101516080870152610120825195613c22876126c0565b60a036883760a081510151875260c0815101518688015260e08151015184880152610100815101516060880152510151608086015281519460a086018681106001600160401b0382111761263d5761286f97613c8f93613c869286525188526131ca565b858701526131ca565b9084015280516060840152015160808201526131ca56fea26469706673582212205864356c91ba76fbd15bed5e8374c72dad952bf863958282bc2e8c671752856c64736f6c63430008140033",
  "deployedBytecode": "0x608080604052600436101561001357600080fd5b600090813560e01c908163055575eb146125df5750806306912d3c146124a8578063079410db146124635780630dd5a8881461241e5780631096c30e146123af578063122db1531461238757806313fb89321461235e578063167fd483146122bc5780631a8cbcaa146122655780631b6ef3c5146121d95780632b786571146121bb5780632b7ac3f31461219257806331e766a51461216d5780633364120a14611d5a5780633364c4c814611bbf578063343393b514611b7a5780633dfb88b214611b22578063423f3e1914611aa057806346e47f9a14611a395780634d5da86b14610db657806358bfc37914610c935780635bb9399514610c6257806362a361bb14610c3d57806362b31f1e14610bf857806364e0ece114610ad2578063652c76e414610a94578063683f3dc314610a785780636b4575e2146105df578063715018a6146105855780637d0a81c8146105435780638da5cb5b1461051c5780639cfced97146104bc578063aab4a67014610477578063ac2f007414610444578063ac98e5df14610402578063b6868720146103d2578063bea140b3146102d1578063c8cf9ab214610298578063d7a71b9a146102665763f2fde38b146101d957600080fd5b34610263576020366003190112610263576101f2612955565b6101fa6129ae565b6001600160a01b0390811690811561024a57600054826001600160601b0360a01b821617600055167f8be0079c531659141344cd1fd0a4f28419497f9722a3daafe3b4186f6b6457e0600080a380f35b604051631e4fbdf760e01b815260048101849052602490fd5b80fd5b50346102635760ff604060209261027c36612998565b908252600c855282822090825284522054166040519015158152f35b5034610263576020366003190112610263576020906040906001600160a01b036102c0612955565b168152600b83522054604051908152f35b503461026357606036600319011261026357366023121561026357604051906102f982612653565b60648236821161038f576004905b8282106103c25750506040516304b98e1d60e31b81529283908390600483015b600383106103a8575050506020918173__$fa059fb1da6d850ca47ea49359bfe89f78$__5af490811561039c5790610365575b602090604051908152f35b506020813d8211610394575b8161037e602093836126db565b8101031261038f576020905161035a565b600080fd5b3d9150610371565b604051903d90823e3d90fd5b815181528693506001929092019160209182019101610327565b8135815260209182019101610307565b5034610263578060031936011261026357604060035481519064ffffffffff90818116835260281c166020820152f35b5034610263578060031936011261026357608060065460ff604051918181168352818160081c166020840152818160101c16604084015260181c166060820152f35b503461026357602036600319011261026357602090600435815260028252604060018060a01b0391205416604051908152f35b50346102635780600319360112610263576040517f00000000000000000000000000000000000000000000000000000000000000006001600160a01b03168152602090f35b50346102635760a0366003190112610263573660231215610263576040516104e3816126c0565b60a48136821161038f576020926004905b83821061050d5784610505846131ca565b604051908152f35b813581529084019084016104f4565b5034610263578060031936011261026357546040516001600160a01b039091168152602090f35b503461026357608036600319011261026357602061050560405161056681612653565b61056f3661289f565b8152604435838201526064356040820152613b90565b503461026357806003193601126102635761059e6129ae565b600080546001600160a01b0319811682556001600160a01b03167f8be0079c531659141344cd1fd0a4f28419497f9722a3daafe3b4186f6b6457e08280a380f35b50346102635761014036600319011261026357608036602319011261038f576040519061060b8261266e565b60243560ff8116810361038f57825260443560ff8116810361038f57602083015260643560ff8116810361038f57604083015260843560ff8116810361038f57606083015260403660a319011261038f576040519161066983612622565b60a435835260c435602084015261067e61296b565b9261010435926001600160a01b038416840361038f57600261012435101561026357506106a9612b36565b506106b26129ae565b60015491600183016001556106cd825160208401519061304a565b15610a66576106e260ff604083015116612f66565b946106f360ff606084015116612f66565b6040519661070088612622565b8752602087015260ff606060018060a01b03600054169360206040519963b43c496960e01b8b5260043560048c0152805160248c0152015160448a01528281511660648a01528260208201511660848a01528260408201511660a48a015201511660c4870152825160e487015260208301516101048701523061012487015260018060a01b037f0000000000000000000000000000000000000000000000000000000000000000166101448701528161016487015260208661018481600060018060a01b037f0000000000000000000000000000000000000000000000000000000000000000165af1958615610a1857600096610a45575b50604051633634487360e01b81526001600160a01b03918216600482018190528683166024830152969091166044820181905260648201839052946108436084830161012435613027565b60208260a48160007f00000000000000000000000000000000000000000000000000000000000000006001600160a01b03165af1918215610a1857600092610a24575b5060405163431a717560e01b815260048101979097526001600160a01b03908116602488015260448701869052166064860181905260848601919091526108d360a4860161012435613027565b60208560c48160007f00000000000000000000000000000000000000000000000000000000000000006001600160a01b03165af1908115610a18576060956000926109e7575b508360005260026020526040600020856001600160601b0360a01b8254161790556040519461094786612653565b8552602085015260018060a01b031660408401527f5d44349ae326b87d465005978623860ad393d327ba73078f82a9331a7cc6b360608060208351930151936040519081526109ba60208201876040908160018060a01b0391828151168552826020820151166020860152015116910152565ba36040805182516001600160a01b0390811682526020808501518216908301529282015190921690820152f35b610a0a91925060203d602011610a11575b610a0281836126db565b810190613008565b9038610919565b503d6109f8565b6040513d6000823e3d90fd5b610a3e91925060203d602011610a1157610a0281836126db565b9038610886565b610a5f91965060203d602011610a1157610a0281836126db565b94386107f8565b6040516379fae7af60e01b8152600490fd5b50346102635780600319360112610263576020604051600a8152f35b5034610263578060031936011261026357602060405160ff7f0000000000000000000000000000000000000000000000000000000000000000168152f35b50346102635736600319016101008112610bf45760801361038f57604051610af98161266e565b60043560ff8116810361038f5781526024359060ff8216820361038f57602081019182526044359060ff8216820361038f57604081019182526064359260ff8416840361038f5760608201938452604036608319011261038f57604051610b5f81612622565b6084358152602081019160a435835260c4359560018060a01b039586881680980361038f5761ff0060ff610b9161296b565b97610b9a6129ae565b511663ff00000062ff00006006549651945160101b16945160181b169463ffffffff1916179160081b1617171760065551600755516008556001600160601b0360a01b928360095416176009551690600a541617600a5580f35b5080fd5b50346102635780600319360112610263576040517f00000000000000000000000000000000000000000000000000000000000000006001600160a01b03168152602090f35b5034610263576040366003190112610263576020610505610c5d366126fc565b6130e9565b5034610263576020610505610c7636612998565b60405191610c8383612622565b60403684378252838201526130e9565b50346102635760209081600319360112610263576004356001600160401b038111610bf45736602382011215610bf4578060040135610cd181612981565b91610cdf60405193846126db565b8183528483016024819360051b83010191368311610db25791869394916024879401905b828210610da057505050604051838101809251909590845b818110610d8757505050610d3d81610d4e94959603601f1981018352826126db565b60405192839283925192839161273d565b8101039060025afa1561039c577f30644e72e131a029b85045b68181585d2833e84879b9709143e1f593f0000001905106604051908152f35b8251885296860196899689965090920191600101610d1b565b81358152879450908501908501610d03565b8580fd5b50346102635760a0366003190112610263576004356001600160401b038111610bf457610de7903690600401612928565b906001600160401b0360243511611a3557366023602435011215611a35576001600160401b036024356004013511611a355736602480356004013560051b8135010111611a35576044356001600160401b038111611a3157610e4d903690600401612928565b919060026084351015611a2d57610e626129ae565b600154600954600a5460405192959294916001600160a01b039182169116610e898661266e565b60ff6006548181168852818160081c166020890152818160101c16604089015260181c16606087015260405191610ebf83612622565b60075483526008546020840152610ed4612b36565b50610edd6129ae565b60018801600155610ef4835160208501519061304a565b15610a6657610f0960ff604089015116612f66565b96610f1a60ff606083015116612f66565b60405198610f278a612622565b8952602089015260ff606060018060a01b03600054169260206040519b63b43c496960e01b8d528c60046064359101528c60248251910152015160448c01528281511660648c01528260208201511660848c01528260408201511660a48c015201511660c4890152835160e489015260208401516101048901523061012489015260018060a01b037f0000000000000000000000000000000000000000000000000000000000000000166101448901528061016489015260208861018481600060018060a01b037f0000000000000000000000000000000000000000000000000000000000000000165af1978815610a1857600098611a0c575b50604051633634487360e01b815260048101849052602481018390526001600160a01b0389166044820152606481018290529161106360848085019035613027565b60208360a48160007f00000000000000000000000000000000000000000000000000000000000000006001600160a01b03165af1928315610a18576000936119eb575b5060405163431a717560e01b8152600481019490945260248401526001600160a01b038881166044850152821660648401526084808401919091526110f09060a484019035613027565b60208260c48160007f00000000000000000000000000000000000000000000000000000000000000006001600160a01b03165af1918215610a18576000926119ca575b506000888152600260205260409081902080546001600160a01b0319166001600160a01b038a16179055519661116888612653565b6001600160a01b03908116885290811660208089019182529282166040808a0191825285519585015181518c81528b51861696810196909652925184169085015251909116606083015291907f5d44349ae326b87d465005978623860ad393d327ba73078f82a9331a7cc6b36090608090a360018060a01b038451168752600b6020528460408820556040519560208088015261122587611217604082016024356004013560248035016129fb565b03601f1981018952886126db565b61123160643542612a84565b966040519061123f82612689565b87825261124d3684866128c7565b602083015260408201526112623685876128c7565b60608201528560808201524260a08201528760c08201526024356004013560e082015261129460243560040135612981565b6112a160405191826126db565b602480356004810135835201602082015b602480356004013560051b8135010182106119845750506101008201526040516112db816126a5565b898152610120820152868952600560205260408920908051825560208101518051906001600160401b0382116118025781906113278261131e6001880154612a91565b60018801612ae2565b602090601f8311600114611915578d9261190a575b50508160011b916000199060031b1c19161760018301555b60408101518051906001600160401b0382116118025781906113868261137d6002880154612a91565b60028801612ae2565b602090601f831160011461189b578d92611890575b50508160011b916000199060031b1c19161760028301555b60608101518051906001600160401b0382116118025781906113e5826113dc6003880154612a91565b60038801612ae2565b602090601f8311600114611821578d92611816575b50508160011b916000199060031b1c19161760038301555b608081015180516004840180546001600160a01b03199081166001600160a01b039384161790915560208301516005860180548316918416919091179055604090920151600685018054909316911617905560a0810151600783015560c0810151600883015560e0810151600983015561010081015180519068010000000000000000821161180257600a84015482600a860155808310611787575b50602001600a84018c5260208c208c915b838310611692575050505061012001518051906001600160401b03821161167e576114fa826114f1600b860154612a91565b600b8601612ae2565b6020908b601f84116001146115e05793600b84611599957f7532e9985b123ef8bda3bc40b1a4296f34238889a58a41de23df560b8bfb9bc69c9b99956115c09b99956115b299926115d5575b50508160011b916000199060031b1c1916179101555b6040805189516001600160a01b0390811682526020808c0151821690830152998201519099169089015261010060608901526101008801916129da565b85810360808701526024356004013560248035016129fb565b9184830360a08601526129da565b934260c083015260e08201528033940390a380f35b015190503880611546565b5090600b84018c5260208c20918c5b601f1985168110611666575093600b6001857f7532e9985b123ef8bda3bc40b1a4296f34238889a58a41de23df560b8bfb9bc69c9b99956115c09b99956115b29961159999601f1981161061164d575b505050811b0191015561155c565b015160001960f88460031b161c1916905538808061163f565b919260206001819286850151815501940192016115ef565b634e487b7160e01b8b52604160045260248bfd5b80518051906001600160401b038211611772578f906116bb836116b58754612a91565b87612ae2565b602091601f8411600114611705579280602093600196938796926116fa575b5050600019600383901b1c191690841b1785555b019201920191906114bf565b0151905038806116da565b919085835260208320925b601f198516811061175a575083602093600196938796938794601f19811610611741575b505050811b0185556116ee565b015160001960f88460031b161c19169055388080611734565b91926020600181928685015181550194019201611710565b50634e487b7160e01b8f52604160045260248ffd5b600a85018d5260208d20908382018e5b82840182106117a8575050506114ae565b906001916117b68254612a91565b806117c5575b5050018e611797565b601f811184146117dd575050600081555b8f386117bc565b8282526117f8601f60208420920160051c8201858301612acb565b60008355556117d6565b634e487b7160e01b8c52604160045260248cfd5b0151905038806113fa565b9250600385018d5260208d20908d935b601f1984168510611875576001945083601f1981161061185c575b505050811b016003830155611412565b015160001960f88460031b161c1916905538808061184c565b81810151835560209485019460019093019290910190611831565b01519050388061139b565b9250600285018d5260208d20908d935b601f19841685106118ef576001945083601f198116106118d6575b505050811b0160028301556113b3565b015160001960f88460031b161c191690553880806118c6565b818101518355602094850194600190930192909101906118ab565b01519050388061133c565b9250600185018d5260208d20908d935b601f1984168510611969576001945083601f19811610611950575b505050811b016001830155611354565b015160001960f88460031b161c19169055388080611940565b81810151835560209485019460019093019290910190611925565b81356001600160401b0381116119c65760243501366043820112156119c6576020916119bb839236906044602482013591016128c7565b8152019101906112b2565b8c80fd5b6119e491925060203d602011610a1157610a0281836126db565b9038611133565b611a0591935060203d602011610a1157610a0281836126db565b91386110a6565b611a2691985060203d602011610a1157610a0281836126db565b9638611021565b8480fd5b8380fd5b8280fd5b5034610263576020366003190112610263576001600160a01b03611a5b612955565b16808252600b60205260408220546001541115611a88578160409160209352600b83522054604051908152f35b6024906040519063e64d908d60e01b82526004820152fd5b503461026357806003193601126102635764ffffffffff908160035460281c16906001809381945b611ad9575b6020610505868661326a565b90919360ff808216918584611aed85612f45565b161015611b1a57508114611b0657820193919081611ac8565b634e487b7160e01b85526011600452602485fd5b955050611acd565b503461026357608036600319011261026357366023121561026357604051611b498161266e565b60848136821161038f576020926004905b838210611b6b578461050584613162565b81358152908401908401611b5a565b50346102635780600319360112610263576040517f00000000000000000000000000000000000000000000000000000000000000006001600160a01b03168152602090f35b5034610263576040366003190112610263576004356001600160401b03602435818111611a3157611bf4903690600401612928565b9190611bfe6129ae565b6001918254851015611d415784865260209260058452600b6040882001918511611d2d57611c3685611c308454612a91565b84612ae2565b86601f8611600114611ca8579185807f2cd30b9efd64638f847bef681e87dfbb567e261d02660c8166a92f33729ab33e97969593611c97958b93611c9d575b501b906000198760031b1c19161790555b6040519383859485528401916129da565b0390a280f35b850135925038611c75565b82885284882090601f198716895b818110611d1857509187969593917f2cd30b9efd64638f847bef681e87dfbb567e261d02660c8166a92f33729ab33e98611c97969410611cfe575b505085811b019055611c86565b840135600019600389901b60f8161c191690553880611cf1565b86830135845592840192918701918701611cb6565b634e487b7160e01b87526041600452602487fd5b60405163a86ecdd560e01b815260048101869052602490fd5b503461026357608036600319011261026357611d753661289f565b6001600160401b0390604435828111611a3157611d9690369060040161290d565b91606435818111611a2d57611daf90369060040161290d565b9180518552602091600c835260408620938383019485518852845260ff958660408920541661215b5760035492611e07887f000000000000000000000000000000000000000000000000000000000000000016612f2a565b64ffffffffff809560281c16101561214957611e26855188519061304a565b15610a66576001600160a01b03918991907f0000000000000000000000000000000000000000000000000000000000000000841690813b15611a31578391611e859160405195868094819363125c7dfb60e11b83523360048401612fcf565b03925af1801561213e57612116575b5050611eb8918591604051808095819463b36543a960e01b83523360048401612fcf565b03917f0000000000000000000000000000000000000000000000000000000000000000165afa90811561210b5787916120de575b50611f0f604051611efc81612653565b8481528286820152426040820152613b90565b9560035496838860281c16906001988983018681116120c85769ffffffffff00000000009060281b169069ffffffffff000000000019161760035590888a9173__$1540826e134b1b69b7091c82576ee3aadd$__915b611fdb575b50505050507fd3c3cd829e4e37d5baaf10abace26b24e0046e20500c999380410f807edfcda06060611fa28460035460281c16612ff1565b8551938851956040519216825287820152426040820152a3518452600c8152604084209151845252604082209060ff1982541617905580f35b86611fe68285613231565b168c52600489528360408d20558b898c8316156120c15761204e9561201361200d85612ff1565b87613231565b908a6040519261202284612622565b168452600483526040842054825282820152604051809781926314d2f97b60e11b8352600483016130bb565b0381865af480156120b4578c9587929161207a575b5094938401169290811c647fffffffff1690611f65565b955050508884813d83116120ad575b61209381836126db565b8101031261038f57848b647fffffffff8196519150612063565b503d612089565b50604051903d90823e3d90fd5b5050611f6a565b634e487b7160e01b600052601160045260246000fd5b90508381813d8311612104575b6120f581836126db565b8101031261038f575138611eec565b503d6120eb565b6040513d89823e3d90fd5b819992991161212a57604052968185611e94565b634e487b7160e01b82526041600452602482fd5b6040513d8c823e3d90fd5b60405163b984588b60e01b8152600490fd5b604051632e13e04560e01b8152600490fd5b5034610263578060031936011261026357604060075460085482519182526020820152f35b50346102635780600319360112610263576009546040516001600160a01b039091168152602090f35b50346102635780600319360112610263576020600154604051908152f35b5034610263576060366003190112610263576044358015158103610bf45761220690602435600435612dd0565b60405190602092838301848452825180915260408401948060408360051b870101940192955b8287106122395785850386f35b909192938280612255600193603f198a82030186528851612785565b960192019601959291909261222c565b503461026357602036600319011261026357600435906001548210156122a357602091815260028252604060018060a01b0391205416604051908152f35b60405163a86ecdd560e01b815260048101839052602490fd5b50346102635736600319016101a08112610bf45761016013610263576040516122e481612622565b60043581523660431215610bf457604051916122ff83612689565b8261016493368511611a35576024905b85821061234e575050602083015260403661016319011261026357602061050584846040519161233e83612622565b3582526101843584830152613bcc565b813581526020918201910161230f565b5034610263578060031936011261026357600a546040516001600160a01b039091168152602090f35b5034610263578060031936011261026357602064ffffffffff60035460281c16604051908152f35b5034610263576020366003190112610263576004356123cc612b55565b50600154811015612406576040826123ee926124029452600560205220612c87565b604051918291602083526020830190612785565b0390f35b6024906040519063a86ecdd560e01b82526004820152fd5b50346102635780600319360112610263576040517f00000000000000000000000000000000000000000000000000000000000000006001600160a01b03168152602090f35b50346102635780600319360112610263576040517f00000000000000000000000000000000000000000000000000000000000000006001600160a01b03168152602090f35b5034610263576060366003190112610263576124c3366126fc565b604051906124d082612622565b828252604051916124e083612689565b6101409182368537602093848093015284826040516124fe81612622565b82815201526040519261251084612689565b3684378051835201518282015260405161252981612622565b7f171e826ad4a870fd925e0bf0e87884e70e080879c2205ef10114f28a3b6f6dd78152828101907f2bd407d897fbbca9f88adfd2d15252e69de8c1564eb4d3d27162e259172f1a1d82526040519361258085612622565b60443585528085019384526125958286613bcc565b60405195518652935195908086015b600a83106125ca575050506101c0945051610160840152516101808301526101a0820152f35b81806001928a518152019801920191966125a4565b905034610bf45781600319360112610bf4577f00000000000000000000000000000000000000000000000000000000000000006001600160a01b03168152602090f35b604081019081106001600160401b0382111761263d57604052565b634e487b7160e01b600052604160045260246000fd5b606081019081106001600160401b0382111761263d57604052565b608081019081106001600160401b0382111761263d57604052565b61014081019081106001600160401b0382111761263d57604052565b602081019081106001600160401b0382111761263d57604052565b60a081019081106001600160401b0382111761263d57604052565b90601f801991011681019081106001600160401b0382111761263d57604052565b806023121561038f576040519061271282612622565b81604491821161038f576004905b82821061272d5750505090565b8135815260209182019101612720565b60005b8381106127505750506000910152565b8181015183820152602001612740565b906020916127798151809281855285808601910161273d565b601f01601f1916010190565b9190825181526020906127cf6127bd6127ab848701516101808087870152850190612760565b60408701518482036040860152612760565b60608601518382036060850152612760565b60808086015180516001600160a01b03908116928501929092526020810151821660a0850152604001511660c08301529360a081015160e083015260c081015190610100918284015260e08101519161012092838501528101519383870361014085015284518088528188019180808360051b8b01019701926000905b83821061287257505050505061286f949550015190610160818403910152612760565b90565b909192939783806128906001938e601f199082030186528c51612760565b9a01920192019093929161284c565b604090600319011261038f57604051906128b882612622565b60043582526024356020830152565b9291926001600160401b03821161263d57604051916128f0601f8201601f1916602001846126db565b82948184528183011161038f578281602093846000960137010152565b9080601f8301121561038f5781602061286f933591016128c7565b9181601f8401121561038f578235916001600160401b03831161038f576020838186019501011161038f57565b600435906001600160a01b038216820361038f57565b60e435906001600160a01b038216820361038f57565b6001600160401b03811161263d5760051b60200190565b604090600319011261038f576004359060243590565b6000546001600160a01b031633036129c257565b60405163118cdaa760e01b8152336004820152602490fd5b908060209392818452848401376000828201840152601f01601f1916010190565b9082818152602080910193818360051b82010194846000925b858410612a25575050505050505090565b90919293949596601f198282030184528735601e198436030181121561038f5783018681019190356001600160401b03811161038f57803603831361038f57612a73889283926001956129da565b990194019401929594939190612a14565b919082018092116120c857565b90600182811c92168015612ac1575b6020831014612aab57565b634e487b7160e01b600052602260045260246000fd5b91607f1691612aa0565b818110612ad6575050565b60008155600101612acb565b9190601f8111612af157505050565b612b1d926000526020600020906020601f840160051c83019310612b1f575b601f0160051c0190612acb565b565b9091508190612b10565b919082039182116120c857565b60405190612b4382612653565b60006040838281528260208201520152565b60405190612b6282612689565b81600081526101206060918260208201528260408201528280820152612b86612b36565b6080820152600060a0820152600060c0820152600060e0820152826101008201520152565b60001981146120c85760010190565b805115612bc75760200190565b634e487b7160e01b600052603260045260246000fd5b8051821015612bc75760209160051b010190565b9060009291805491612c0283612a91565b918282526001938481169081600014612c645750600114612c24575b50505050565b90919394506000526020928360002092846000945b838610612c50575050505001019038808080612c1e565b805485870183015294019385908201612c39565b9294505050602093945060ff191683830152151560051b01019038808080612c1e565b90604091825190612c9782612689565b81938154835280516001612cb882612cb181848801612bf1565b03836126db565b602091828601528251612cd981612cd28160028901612bf1565b03826126db565b838601528251612cf081612cd28160038901612bf1565b60608601528251612d0081612653565b60048501546001600160a01b0390811682526005860154811684830152600686015416848201526080860152600784015460a0860152600884015460c0860152600984015460e0860152600a8401805490612d5a82612981565b93612d67865195866126db565b82855260009182528082208186015b848410612dae5750505050505061012092612da38593612daa93610100600b980152518096819301612bf1565b03846126db565b0152565b858381928a51612dc281612cd28189612bf1565b815201920193019290612d76565b600019939284820192909183116120c857808302928084048214901517156120c857612dfc9083612a84565b938085019485116120c85784916001549586851015612f1057861115612efe575b612e278484612b29565b90600182018092116120c857612e3c82612981565b92604092612e4c845195866126db565b808552612e5b601f1991612981565b0160005b818110612ee757505083976000965b86811115612e80575050505050505050565b808415612ecb575b90612ec6916000526005602052612ec08660002099612eaf612ea982612bab565b9b612c87565b612eb9828b612bdd565b5288612bdd565b50612bab565b612e6e565b50612ed68183612b29565b908382019182116120c85790612e88565b602090612ef2612b55565b82828901015201612e5f565b91508085018581116120c85791612e1d565b50505050509050604051612f23816126a5565b6000815290565b8015612f3f5760ff81116120c8576001901b90565b50600190565b8015612f3f5760ff81116120c8576001901b9064ffffffffff82116120c857565b8015612f3f57600190602081108216604e8210831617612fc75781906005925b808211612f9e575050816000190481116120c8570290565b9092806000190481116120c857818416612fbe575b800292811c90612f86565b80920291612fb3565b905060050a90565b6001600160a01b03909116815260406020820181905261286f92910190612760565b64ffffffffff90811660001901919082116120c857565b9081602091031261038f57516001600160a01b038116810361038f5790565b9060028210156130345752565b634e487b7160e01b600052602160045260246000fd5b907f30644e72e131a029b85045b68181585d2833e84879b9709143e1f593f0000001808080858196099380098180828187620292fc090894620292f809096001089080828111156130a8575b506000916130a391612b29565b081590565b90508281018091116120c8576000613096565b6040810192916000915b600283106130d257505050565b6001908251815260208091019201920191906130c5565b602061310991604051809381926314d2f97b60e11b8352600483016130bb565b038173__$1540826e134b1b69b7091c82576ee3aadd$__5af4908115610a1857600091613134575090565b906020823d821161315a575b8161314d602093836126db565b8101031261026357505190565b3d9150613140565b60405163248f667760e01b81529060049060008284015b8382106131b3575050505060208160848173__$e61c65d9562aef5fa6ab22c0f787cf1e30$__5af4908115610a1857600091613134575090565b600190835181526020809101930191019091613179565b604051630926f44b60e31b815290600090600483015b6005831061321a5750505060208160a48173__$46fbdf6658faf65265971bdad66851b86c$__5af4908115610a1857600091613134575090565b6001908251815260208091019201920191906131e0565b60ff1663ffffffff0264ffffffffff918282169182036120c8578216019081116120c85790565b60ff60019116019060ff82116120c857565b919060ff92838216916020908184116135a05764ffffffffff9182841691821561358f576132988891613258565b166132cf6132a582612981565b956040926132b5845198896126db565b8088526132c4601f1991612981565b013685890137612ff1565b90600194858084161560001461355a5750808316948186116120c857869560005260048552826000205461330289612bba565b52999592995b6000935b613327575b50505050505050613323929350612bdd565b5190565b86849a9998979a168881101561354f57858c8816613416576133819161335886519161335283612622565b8b612bdd565b518152613364876135b2565b828201528551809381926314d2f97b60e11b8352600483016130bb565b038173__$1540826e134b1b69b7091c82576ee3aadd$__5af490811561340b576000916133de575b509986647fffffffff829d8a9b9c9d6133ce849c866133c78c613258565b1690612bdd565b525b821c16950116939a9661330c565b908682813d8311613404575b6133f481836126db565b81010312610263575051866133a9565b503d6133ea565b84513d6000823e3d90fd5b5082828c61342388613258565b161c1690647fffffffff8d891c1680921160001461347e57509986647fffffffff829d8561345d849c9d9e9f6134588b613258565b613231565b166000526004895286600020546134788d866133c78c613258565b526133d0565b6134dc91508690846134998f61349390612ff1565b89613231565b1660005260048083526134bf8760002054928851936134b785612622565b84528c612bdd565b518284015286516314d2f97b60e11b8152938492839283016130bb565b038173__$1540826e134b1b69b7091c82576ee3aadd$__5af490811561340b57600091613522575b509986647fffffffff829d8a9b9c9d613478849c866133c78c613258565b908682813d8311613548575b61353881836126db565b8101031261026357505186613504565b503d61352e565b508697989950613311565b947f0ef71f46e11a513c599eed9dd03576c33439bcfb1cee155316f90541e41649ba61358589612bba565b5299959299613308565b94505050505061286f9192506135b2565b604051633e104c7760e01b8152600490fd5b60ff168015613b6b5760018114613b465760028114613b215760038114613afc5760048114613ad75760058114613ab25760068114613a8d5760078114613a685760088114613a435760098114613a1e57600a81146139f957600b81146139d457600c81146139af57600d811461398a57600e811461396557600f8114613940576010811461391b57601181146138f657601281146138d157601381146138ac57601481146138875760158114613862576016811461383d576017811461381857601881146137f357601981146137ce57601a81146137a957601b811461378457601c811461375f57601d811461373a57601e811461371557601f81146136f0576020146136cc576040516310a2ea0560e21b8152600490fd5b7f1d90601a0c76d2f39824f6dc198fb3b48cbd0231516c8f6208e56ea741c341f990565b507f216b9fa3ac3724cf1ec6caf5a66dd85cae3aee727e00d2a0a59f273df3401f1090565b507f2b59c2651b412c029efa38f835ac1b1b5bdaf89dcb2e4bc9219e7d77c65e776a90565b507f14b46e659dc4072fc64a18d44911c4a303b45f1296c3cb7dec77f269bee9b5df90565b507f0845dd838ca63b2f68775aac8513bd692d26f511698206f3c6ce2b4100dd8d8f90565b507f132e4ff3e4ba890f1610efd4d2f69700b825514d557b82663878a56e2acef41c90565b507f24cb019b59431c232413f66b041923214f7a8a7489caa05b66860f1c3c76d3b190565b507f1b6367322bac9f24889900d310e2feaa0021516fac77470aea078e89335d3fcf90565b507f19b336a1e0a933e2a8f97d97322dcee843a2d9a2401bece52a3a25ddd5bb6bc990565b507f1d71ada9e49baeb4a2cf26be37d3bc680554995ef6706105e93978ba71cacf9490565b507f2560496c1138c827f1efb407d0cdb9d6ec9539b0957dfb67de2776e6026d630f90565b507f2ce2c1fb109ad6574570826774ecfca3e04866bb5a3963962b873646db6641f390565b507f1713f3e3dc5e2393bd31ccc0cdd8601bdee3198cf34d566bb60cfab13e5a087390565b507f2c849a73ab21c9e88e1d711f221863e2a94eb58f3eb42dde575301451f3ec5c890565b507f1874217e8e1dbc51c571a2db1103bf47c3e66a59305ca48bbcee6ad1c8cc575190565b507f2b8342160822355808db759147a7d6f61de451bd5bb88f9db2eb406ea68b813890565b507f199cd1f5b757c285023767abbe9bbb318da4e1fd375b5a001b54a0f3901ea7d390565b507f128fb9ad5b2d8e694bec0888ff95609c15b2a96ae80a34946c953dc503e46fb690565b507f2ec047dd616221873c234f36461080c3e760644bb519ebdb49eb9645215e0edc90565b507f2582b5cdefe032d75373f0ede9171406137e93e7d44405a0b0a409c1c739138090565b507f1f336d6d45d293180c75964e99a7599d44cac2ad447c202c3e1973b0322cf99090565b507f05e0136534f74776d69646bd0bd94519e63af45734405f479382d8400514c1a690565b507f10f7b76489e9c36644736c33c600d1bcedd465fd0aff3027e67b02e13875272d90565b507f1e73f08f6e5e4bb9c2096cc4587526ebfd033c222f4a27e97119c867c36a0d3a90565b507f1ea63a974336db6c0423e719d3f0e11494266237dda3a40de3cb76104436635990565b507f0690bfb582c7502ff6d15d519740ecd73d652b7a14dc82bfd250613ee8e0407690565b507f30553f8216db90854953edd47602897f897104d5b0d65a5ce000981c51da32e090565b507f11dc55d21b17daf8e60253c2a43d519039ba968733cf7c9d5df6155939e1a6d890565b507f08e4b5d410c8de929132c214ea600b5f252fa14aabb97ea67cda5bb4e0ebeec890565b507f04265868d2e705f48d3ae49f7749e67a587dafdb569c1d7334675496046eaad690565b507f2a06fb0b739b402c34dc752d8417b9cd67b7f7cabe4b06b5d995053791fcede490565b507f06928e817d2804a3713efd102bae900c9ab3e8e0b0c6c20f8613bd3b0423a89190565b507f0ef71f46e11a513c599eed9dd03576c33439bcfb1cee155316f90541e41649ba90565b61286f906040805191613ba28361266e565b60803684378051518352602081510151602084015260208101518284015201516060820152613162565b906020808301916040805194613be1866126c0565b60a0368737845151865283855101518487015281855101518287015260608551015160608701526080855101516080870152610120825195613c22876126c0565b60a036883760a081510151875260c0815101518688015260e08151015184880152610100815101516060880152510151608086015281519460a086018681106001600160401b0382111761263d5761286f97613c8f93613c869286525188526131ca565b858701526131ca565b9084015280516060840152015160808201526131ca56fea26469706673582212205864356c91ba76fbd15bed5e8374c72dad952bf863958282bc2e8c671752856c64736f6c63430008140033",
  "libraries": {
    "PoseidonT3": "0x66556eD8C5423ee7540Dcf79383a67D75Aa987AC",
    "PoseidonT4": "0x2FbEDbe38f011a6a9D9146d2A94a0873F5D21986",
    "PoseidonT5": "0xeac082F3ac67427585C208f0bdfCCB3b1c8621aa",
    "PoseidonT6": "0x702F4AF4523b410D474DBfCD5B436c14A4B10D71"
  },
  "devdoc": {
    "errors": {
      "OwnableInvalidOwner(address)": [
        {
          "details": "The owner is not a valid owner account. (eg. `address(0)`)"
        }
      ],
      "OwnableUnauthorizedAccount(address)": [
        {
          "details": "The caller account is not authorized to perform an operation."
        }
      ]
    },
    "kind": "dev",
    "methods": {
      "deployPoll(uint256,(uint8,uint8,uint8,uint8),(uint256,uint256),address,address,uint8)": {
        "params": {
          "_coordinatorPubKey": "The coordinator's public key",
          "_duration": "How long should the Poll last for",
          "_mode": "Voting mode",
          "_treeDepths": "The depth of the Merkle trees",
          "_verifier": "The Verifier Contract",
          "_vkRegistry": "The VkRegistry Contract"
        },
        "returns": {
          "pollAddr": "a new Poll contract address"
        }
      },
      "getPoll(uint256)": {
        "params": {
          "_pollId": "The identifier of the Poll to retrieve"
        },
        "returns": {
          "poll": "The Poll contract object"
        }
      },
      "getStateTreeRoot()": {
        "returns": {
          "root": "The Merkle root"
        }
      },
      "hash2(uint256[2])": {
        "params": {
          "array": "An array of two uint256 elements."
        },
        "returns": {
          "result": "The Poseidon hash of the two elements."
        }
      },
      "hash3(uint256[3])": {
        "params": {
          "array": "An array of three uint256 elements."
        },
        "returns": {
          "result": "The Poseidon hash of the three elements."
        }
      },
      "hash4(uint256[4])": {
        "params": {
          "array": "An array of four uint256 elements."
        },
        "returns": {
          "result": "The Poseidon hash of the four elements."
        }
      },
      "hash5(uint256[5])": {
        "params": {
          "array": "An array of five uint256 elements."
        },
        "returns": {
          "result": "The Poseidon hash of the five elements."
        }
      },
      "hashLeftRight(uint256,uint256)": {
        "params": {
          "left": "the first element to hash.",
          "right": "the second element to hash."
        },
        "returns": {
          "result": "The Poseidon hash of the two elements."
        }
      },
      "hashMessageAndEncPubKey((uint256,uint256[10]),(uint256,uint256))": {
        "params": {
          "_encPubKey": "the encryption public key to be hashed",
          "_message": "the message to be hashed"
        },
        "returns": {
          "msgHash": "The hash of the message and the encryption public key"
        }
      },
      "hashStateLeaf(((uint256,uint256),uint256,uint256))": {
        "params": {
          "_stateLeaf": "the state leaf to be hashed"
        },
        "returns": {
          "ciphertext": "The hash of the state leaf"
        }
      },
      "numSignUps()": {
        "returns": {
          "signUps": "numsignUps The number of signups"
        }
      },
      "owner()": {
        "details": "Returns the address of the current owner."
      },
      "padAndHashMessage(uint256[2],uint256)": {
        "params": {
          "dataToPad": "the data to be padded",
          "msgType": "the type of the message"
        },
        "returns": {
          "message": "The padded message",
          "msgHash": "The hash of the padded message and encryption key",
          "padKey": "The padding public key"
        }
      },
      "renounceOwnership()": {
        "details": "Leaves the contract without owner. It will not be possible to call `onlyOwner` functions. Can only be called by the current owner. NOTE: Renouncing ownership will leave the contract without an owner, thereby disabling any functionality that is only available to the owner."
      },
      "sha256Hash(uint256[])": {
        "params": {
          "array": "The array of uint256 elements."
        },
        "returns": {
          "result": "The SHA256 hash of the array."
        }
      },
      "signUp((uint256,uint256),bytes,bytes)": {
        "params": {
          "_initialVoiceCreditProxyData": "Data to pass to the     InitialVoiceCreditProxy, which allows it to determine how many voice     credits this user should have.",
          "_pubKey": "The user's desired public key.",
          "_signUpGatekeeperData": "Data to pass to the sign-up gatekeeper's     register() function. For instance, the POAPGatekeeper or     SignUpTokenGatekeeper requires this value to be the ABI-encoded     token ID."
        }
      },
      "transferOwnership(address)": {
        "details": "Transfers ownership of the contract to a new account (`newOwner`). Can only be called by the current owner."
      }
    },
    "title": "MACI - Minimum Anti-Collusion Infrastructure Version 1",
    "version": 1
  },
  "userdoc": {
    "errors": {
      "CallerMustBePoll(address)": [
        {
          "notice": "custom errors"
        }
      ],
      "DefaultZeroBadIndex()": [
        {
          "notice": "Custom errors"
        }
      ],
      "InvalidMessage()": [
        {
          "notice": "custom errors"
        }
      ]
    },
    "kind": "user",
    "methods": {
      "MESSAGE_DATA_LENGTH()": {
        "notice": "the length of a MACI message"
      },
      "deployPoll(uint256,(uint8,uint8,uint8,uint8),(uint256,uint256),address,address,uint8)": {
        "notice": "Deploy a new Poll contract."
      },
      "getPoll(uint256)": {
        "notice": "Get the Poll details"
      },
      "getStateTreeRoot()": {
        "notice": "Return the main root of the StateAq contract"
      },
      "hash2(uint256[2])": {
        "notice": "Computes the Poseidon hash of two uint256 elements."
      },
      "hash3(uint256[3])": {
        "notice": "Computes the Poseidon hash of three uint256 elements."
      },
      "hash4(uint256[4])": {
        "notice": "Computes the Poseidon hash of four uint256 elements."
      },
      "hash5(uint256[5])": {
        "notice": "Computes the Poseidon hash of five uint256 elements."
      },
      "hashLeftRight(uint256,uint256)": {
        "notice": "Computes the Poseidon hash of two uint256 elements."
      },
      "hashMessageAndEncPubKey((uint256,uint256[10]),(uint256,uint256))": {
        "notice": "An utility function used to hash a MACI message and an encryption public key"
      },
      "hashStateLeaf(((uint256,uint256),uint256,uint256))": {
        "notice": "An utility function used to hash a state leaf"
      },
      "initialVoiceCreditProxy()": {
        "notice": "The contract which provides the values of the initial voice credit balance per user"
      },
      "lazyIMTData()": {
        "notice": "The state tree. Represents a mapping between each user's public key and their voice credit balance."
      },
      "messageProcessorFactory()": {
        "notice": "Factory contract that deploy a MessageProcessor contract"
      },
      "nextPollId()": {
        "notice": "Each poll has an incrementing ID"
      },
      "numSignUps()": {
        "notice": "Get the number of signups"
      },
      "padAndHashMessage(uint256[2],uint256)": {
        "notice": "An utility function used to pad and hash a MACI message"
      },
      "pollFactory()": {
        "notice": "Factory contract that deploy a Poll contract"
      },
      "polls(uint256)": {
        "notice": "A mapping of poll IDs to Poll contracts."
      },
      "sha256Hash(uint256[])": {
        "notice": "Computes the SHA256 hash of an array of uint256 elements."
      },
      "signUp((uint256,uint256),bytes,bytes)": {
        "notice": "Allows any eligible user sign up. The sign-up gatekeeper should prevent double sign-ups or ineligible users from doing so.  This function will only succeed if the sign-up deadline has not passed. It also enqueues a fresh state leaf into the state AccQueue."
      },
      "signUpGatekeeper()": {
        "notice": "Address of the SignUpGatekeeper, a contract which determines whether a user may sign up to vote"
      },
      "stateTreeDepth()": {
        "notice": "The state tree depth is fixed. As such it should be as large as feasible so that there can be as many users as possible.  i.e. 5 ** 10 = 9765625 this should also match the parameter of the circom circuits."
      },
      "tallyFactory()": {
        "notice": "Factory contract that deploy a Tally contract"
      },
      "topupCredit()": {
        "notice": "ERC20 contract that hold topup credits"
      }
    },
    "notice": "A contract which allows users to sign up, and deploy new polls",
    "version": 1
  },
  "storageLayout": {
    "storage": [
      {
        "astId": 8,
        "contract": "contracts/maci-contracts/MACIWrapper.sol:MACIWrapper",
        "label": "_owner",
        "offset": 0,
        "slot": "0",
        "type": "t_address"
      },
      {
        "astId": 1481,
        "contract": "contracts/maci-contracts/MACIWrapper.sol:MACIWrapper",
        "label": "nextPollId",
        "offset": 0,
        "slot": "1",
        "type": "t_uint256"
      },
      {
        "astId": 1486,
        "contract": "contracts/maci-contracts/MACIWrapper.sol:MACIWrapper",
        "label": "polls",
        "offset": 0,
        "slot": "2",
        "type": "t_mapping(t_uint256,t_address)"
      },
      {
        "astId": 1506,
        "contract": "contracts/maci-contracts/MACIWrapper.sol:MACIWrapper",
        "label": "lazyIMTData",
        "offset": 0,
        "slot": "3",
        "type": "t_struct(LazyIMTData)3790_storage"
      },
      {
        "astId": 980,
        "contract": "contracts/maci-contracts/MACIWrapper.sol:MACIWrapper",
        "label": "_polls",
        "offset": 0,
        "slot": "5",
        "type": "t_mapping(t_uint256,t_struct(PollData)975_storage)"
      },
      {
        "astId": 983,
        "contract": "contracts/maci-contracts/MACIWrapper.sol:MACIWrapper",
        "label": "treeDepths",
        "offset": 0,
        "slot": "6",
        "type": "t_struct(TreeDepths)4581_storage"
      },
      {
        "astId": 986,
        "contract": "contracts/maci-contracts/MACIWrapper.sol:MACIWrapper",
        "label": "coordinatorPubKey",
        "offset": 0,
        "slot": "7",
        "type": "t_struct(PubKey)4552_storage"
      },
      {
        "astId": 988,
        "contract": "contracts/maci-contracts/MACIWrapper.sol:MACIWrapper",
        "label": "verifier",
        "offset": 0,
        "slot": "9",
        "type": "t_address"
      },
      {
        "astId": 990,
        "contract": "contracts/maci-contracts/MACIWrapper.sol:MACIWrapper",
        "label": "vkRegistry",
        "offset": 0,
        "slot": "10",
        "type": "t_address"
      },
      {
        "astId": 994,
        "contract": "contracts/maci-contracts/MACIWrapper.sol:MACIWrapper",
        "label": "pollIds",
        "offset": 0,
        "slot": "11",
        "type": "t_mapping(t_address,t_uint256)"
      },
      {
        "astId": 1026,
        "contract": "contracts/maci-contracts/MACIWrapper.sol:MACIWrapper",
        "label": "isPublicKeyRegistered",
        "offset": 0,
        "slot": "12",
        "type": "t_mapping(t_uint256,t_mapping(t_uint256,t_bool))"
      }
    ],
    "types": {
      "t_address": {
        "encoding": "inplace",
        "label": "address",
        "numberOfBytes": "20"
      },
      "t_array(t_string_storage)dyn_storage": {
        "base": "t_string_storage",
        "encoding": "dynamic_array",
        "label": "string[]",
        "numberOfBytes": "32"
      },
      "t_bool": {
        "encoding": "inplace",
        "label": "bool",
        "numberOfBytes": "1"
      },
      "t_bytes_storage": {
        "encoding": "bytes",
        "label": "bytes",
        "numberOfBytes": "32"
      },
      "t_mapping(t_address,t_uint256)": {
        "encoding": "mapping",
        "key": "t_address",
        "label": "mapping(address => uint256)",
        "numberOfBytes": "32",
        "value": "t_uint256"
      },
      "t_mapping(t_uint256,t_address)": {
        "encoding": "mapping",
        "key": "t_uint256",
        "label": "mapping(uint256 => address)",
        "numberOfBytes": "32",
        "value": "t_address"
      },
      "t_mapping(t_uint256,t_bool)": {
        "encoding": "mapping",
        "key": "t_uint256",
        "label": "mapping(uint256 => bool)",
        "numberOfBytes": "32",
        "value": "t_bool"
      },
      "t_mapping(t_uint256,t_mapping(t_uint256,t_bool))": {
        "encoding": "mapping",
        "key": "t_uint256",
        "label": "mapping(uint256 => mapping(uint256 => bool))",
        "numberOfBytes": "32",
        "value": "t_mapping(t_uint256,t_bool)"
      },
      "t_mapping(t_uint256,t_struct(PollData)975_storage)": {
        "encoding": "mapping",
        "key": "t_uint256",
        "label": "mapping(uint256 => struct MACIWrapper.PollData)",
        "numberOfBytes": "32",
        "value": "t_struct(PollData)975_storage"
      },
      "t_mapping(t_uint256,t_uint256)": {
        "encoding": "mapping",
        "key": "t_uint256",
        "label": "mapping(uint256 => uint256)",
        "numberOfBytes": "32",
        "value": "t_uint256"
      },
      "t_string_storage": {
        "encoding": "bytes",
        "label": "string",
        "numberOfBytes": "32"
      },
      "t_struct(LazyIMTData)3790_storage": {
        "encoding": "inplace",
        "label": "struct LazyIMTData",
        "members": [
          {
            "astId": 3783,
            "contract": "contracts/maci-contracts/MACIWrapper.sol:MACIWrapper",
            "label": "maxIndex",
            "offset": 0,
            "slot": "0",
            "type": "t_uint40"
          },
          {
            "astId": 3785,
            "contract": "contracts/maci-contracts/MACIWrapper.sol:MACIWrapper",
            "label": "numberOfLeaves",
            "offset": 5,
            "slot": "0",
            "type": "t_uint40"
          },
          {
            "astId": 3789,
            "contract": "contracts/maci-contracts/MACIWrapper.sol:MACIWrapper",
            "label": "elements",
            "offset": 0,
            "slot": "1",
            "type": "t_mapping(t_uint256,t_uint256)"
          }
        ],
        "numberOfBytes": "64"
      },
      "t_struct(PollContracts)1522_storage": {
        "encoding": "inplace",
        "label": "struct MACI.PollContracts",
        "members": [
          {
            "astId": 1517,
            "contract": "contracts/maci-contracts/MACIWrapper.sol:MACIWrapper",
            "label": "poll",
            "offset": 0,
            "slot": "0",
            "type": "t_address"
          },
          {
            "astId": 1519,
            "contract": "contracts/maci-contracts/MACIWrapper.sol:MACIWrapper",
            "label": "messageProcessor",
            "offset": 0,
            "slot": "1",
            "type": "t_address"
          },
          {
            "astId": 1521,
            "contract": "contracts/maci-contracts/MACIWrapper.sol:MACIWrapper",
            "label": "tally",
            "offset": 0,
            "slot": "2",
            "type": "t_address"
          }
        ],
        "numberOfBytes": "96"
      },
      "t_struct(PollData)975_storage": {
        "encoding": "inplace",
        "label": "struct MACIWrapper.PollData",
        "members": [
          {
            "astId": 954,
            "contract": "contracts/maci-contracts/MACIWrapper.sol:MACIWrapper",
            "label": "id",
            "offset": 0,
            "slot": "0",
            "type": "t_uint256"
          },
          {
            "astId": 956,
            "contract": "contracts/maci-contracts/MACIWrapper.sol:MACIWrapper",
            "label": "name",
            "offset": 0,
            "slot": "1",
            "type": "t_string_storage"
          },
          {
            "astId": 958,
            "contract": "contracts/maci-contracts/MACIWrapper.sol:MACIWrapper",
            "label": "encodedOptions",
            "offset": 0,
            "slot": "2",
            "type": "t_bytes_storage"
          },
          {
            "astId": 960,
            "contract": "contracts/maci-contracts/MACIWrapper.sol:MACIWrapper",
            "label": "metadata",
            "offset": 0,
            "slot": "3",
            "type": "t_string_storage"
          },
          {
            "astId": 963,
            "contract": "contracts/maci-contracts/MACIWrapper.sol:MACIWrapper",
            "label": "pollContracts",
            "offset": 0,
            "slot": "4",
            "type": "t_struct(PollContracts)1522_storage"
          },
          {
            "astId": 965,
            "contract": "contracts/maci-contracts/MACIWrapper.sol:MACIWrapper",
            "label": "startTime",
            "offset": 0,
            "slot": "7",
            "type": "t_uint256"
          },
          {
            "astId": 967,
            "contract": "contracts/maci-contracts/MACIWrapper.sol:MACIWrapper",
            "label": "endTime",
            "offset": 0,
            "slot": "8",
            "type": "t_uint256"
          },
          {
            "astId": 969,
            "contract": "contracts/maci-contracts/MACIWrapper.sol:MACIWrapper",
            "label": "numOfOptions",
            "offset": 0,
            "slot": "9",
            "type": "t_uint256"
          },
          {
            "astId": 972,
            "contract": "contracts/maci-contracts/MACIWrapper.sol:MACIWrapper",
            "label": "options",
            "offset": 0,
            "slot": "10",
            "type": "t_array(t_string_storage)dyn_storage"
          },
          {
            "astId": 974,
            "contract": "contracts/maci-contracts/MACIWrapper.sol:MACIWrapper",
            "label": "tallyJsonCID",
            "offset": 0,
            "slot": "11",
            "type": "t_string_storage"
          }
        ],
        "numberOfBytes": "384"
      },
      "t_struct(PubKey)4552_storage": {
        "encoding": "inplace",
        "label": "struct DomainObjs.PubKey",
        "members": [
          {
            "astId": 4549,
            "contract": "contracts/maci-contracts/MACIWrapper.sol:MACIWrapper",
            "label": "x",
            "offset": 0,
            "slot": "0",
            "type": "t_uint256"
          },
          {
            "astId": 4551,
            "contract": "contracts/maci-contracts/MACIWrapper.sol:MACIWrapper",
            "label": "y",
            "offset": 0,
            "slot": "1",
            "type": "t_uint256"
          }
        ],
        "numberOfBytes": "64"
      },
      "t_struct(TreeDepths)4581_storage": {
        "encoding": "inplace",
        "label": "struct Params.TreeDepths",
        "members": [
          {
            "astId": 4574,
            "contract": "contracts/maci-contracts/MACIWrapper.sol:MACIWrapper",
            "label": "intStateTreeDepth",
            "offset": 0,
            "slot": "0",
            "type": "t_uint8"
          },
          {
            "astId": 4576,
            "contract": "contracts/maci-contracts/MACIWrapper.sol:MACIWrapper",
            "label": "messageTreeSubDepth",
            "offset": 1,
            "slot": "0",
            "type": "t_uint8"
          },
          {
            "astId": 4578,
            "contract": "contracts/maci-contracts/MACIWrapper.sol:MACIWrapper",
            "label": "messageTreeDepth",
            "offset": 2,
            "slot": "0",
            "type": "t_uint8"
          },
          {
            "astId": 4580,
            "contract": "contracts/maci-contracts/MACIWrapper.sol:MACIWrapper",
            "label": "voteOptionTreeDepth",
            "offset": 3,
            "slot": "0",
            "type": "t_uint8"
          }
        ],
        "numberOfBytes": "32"
      },
      "t_uint256": {
        "encoding": "inplace",
        "label": "uint256",
        "numberOfBytes": "32"
      },
      "t_uint40": {
        "encoding": "inplace",
        "label": "uint40",
        "numberOfBytes": "5"
      },
      "t_uint8": {
        "encoding": "inplace",
        "label": "uint8",
        "numberOfBytes": "1"
      }
    }
  }
}