{
  "address": "0x12015de45D61073E1A355386aAaF5FF270063A52",
  "abi": [
    {
      "inputs": [],
      "name": "MESSAGE_DATA_LENGTH",
      "outputs": [
        {
          "internalType": "uint8",
          "name": "",
          "type": "uint8"
        }
      ],
      "stateMutability": "view",
      "type": "function"
    },
    {
      "inputs": [
        {
          "internalType": "address",
          "name": "_verifier",
          "type": "address"
        },
        {
          "internalType": "address",
          "name": "_vkRegistry",
          "type": "address"
        },
        {
          "internalType": "address",
          "name": "_poll",
          "type": "address"
        },
        {
          "internalType": "address",
          "name": "_messageProcessor",
          "type": "address"
        },
        {
          "internalType": "address",
          "name": "_owner",
          "type": "address"
        },
        {
          "internalType": "enum DomainObjs.Mode",
          "name": "_mode",
          "type": "uint8"
        }
      ],
      "name": "deploy",
      "outputs": [
        {
          "internalType": "address",
          "name": "tallyAddr",
          "type": "address"
        }
      ],
      "stateMutability": "nonpayable",
      "type": "function"
    }
  ],
  "transactionHash": "0x34694dbc5e588d4aa04a5723563875471c50db7df72a805a3c9e4fcef97c2104",
  "args": [],
  "numDeployments": 1,
  "bytecode": "0x608060405234801561001057600080fd5b506125c9806100206000396000f3fe608060405234801561001057600080fd5b50600436106100365760003560e01c8063431a71751461003b578063683f3dc31461006b575b600080fd5b61004e610049366004610158565b610085565b6040516001600160a01b0390911681526020015b60405180910390f35b610073600a81565b60405160ff9091168152602001610062565b60008087878787866040516100999061012f565b6100a79594939291906101d4565b604051809103906000f0801580156100c3573d6000803e3d6000fd5b5060405163f2fde38b60e01b81526001600160a01b0386811660048301529192509082169063f2fde38b90602401600060405180830381600087803b15801561010b57600080fd5b505af115801561011f573d6000803e3d6000fd5b50929a9950505050505050505050565b6123698061022b83390190565b80356001600160a01b038116811461015357600080fd5b919050565b60008060008060008060c0878903121561017157600080fd5b61017a8761013c565b95506101886020880161013c565b94506101966040880161013c565b93506101a46060880161013c565b92506101b26080880161013c565b915060a0870135600281106101c657600080fd5b809150509295509295509295565b6001600160a01b038681168252858116602083015284811660408301528316606082015260a081016002831061021a57634e487b7160e01b600052602160045260246000fd5b826080830152969550505050505056fe6101206040526040516200236938038062002369833981016040819052620000279162000122565b33806200004e57604051631e4fbdf760e01b81526000600482015260240160405180910390fd5b6200005981620000b5565b506001600160a01b0380861660805284811660a05283811660c052821660e0528060018111156200008e576200008e62000199565b610100816001811115620000a657620000a662000199565b815250505050505050620001af565b600080546001600160a01b038381166001600160a01b0319831681178455604051919092169283917f8be0079c531659141344cd1fd0a4f28419497f9722a3daafe3b4186f6b6457e09190a35050565b80516001600160a01b03811681146200011d57600080fd5b919050565b600080600080600060a086880312156200013b57600080fd5b620001468662000105565b9450620001566020870162000105565b9350620001666040870162000105565b9250620001766060870162000105565b91506080860151600281106200018b57600080fd5b809150509295509295909350565b634e487b7160e01b600052602160045260246000fd5b60805160a05160c05160e051610100516120fe6200026b600039600081816102370152818161044a01528181610496015281816107f701528181610c9801528181610e1e0152610e8e0152600081816103dd015281816104ec015261059501526000818161037401528181610628015281816106580152818161072701528181610af301528181610b7d01528181610fbd01526110460152600081816101db0152610c0501526000818161026b0152610d4501526120fe6000f3fe608060405234801561001057600080fd5b50600436106101a95760003560e01c80636b148b60116100f9578063afb93bd311610097578063d0380fe211610071578063d0380fe2146103d8578063d13181b8146103ff578063e3ff760614610408578063f2fde38b1461041057600080fd5b8063afb93bd3146103a9578063b03698f2146103b2578063bea140b3146103c557600080fd5b80638da5cb5b116100d35780638da5cb5b1461034b5780639cfced971461035c578063a11752791461036f578063a21fb5111461039657600080fd5b80636b148b601461031d578063715018a6146103305780637485dba11461033857600080fd5b80632d966bf4116101665780635bb93995116101405780635bb93995146102d457806361750293146102e757806362a361bb146102f0578063683f3dc31461030357600080fd5b80632d966bf41461028d5780633dfb88b2146102a057806358bfc379146102c157600080fd5b806310bc5f51146101ae57806313fb8932146101d657806316425eeb1461021557806323e3feb11461021f578063295a5212146102325780632b7ac3f314610266575b600080fd5b6101c16101bc366004611444565b610423565b60405190151581526020015b60405180910390f35b6101fd7f000000000000000000000000000000000000000000000000000000000000000081565b6040516001600160a01b0390911681526020016101cd565b61021d6104e2565b005b61021d61022d366004611488565b61061b565b6102597f000000000000000000000000000000000000000000000000000000000000000081565b6040516101cd91906114ee565b6101fd7f000000000000000000000000000000000000000000000000000000000000000081565b6101c161029b36600461151b565b6107f2565b6102b36102ae366004611664565b610893565b6040519081526020016101cd565b6102b36102cf366004611706565b610914565b6102b36102e2366004611791565b6109ae565b6102b360015481565b6102b36102fe3660046117b3565b6109d3565b61030b600a81565b60405160ff90911681526020016101cd565b6102b361032b366004611444565b610a0d565b61021d610ada565b6101c1610346366004611813565b610aec565b6000546001600160a01b03166101fd565b6102b361036a36600461185b565b610dce565b6101fd7f000000000000000000000000000000000000000000000000000000000000000081565b6101c16103a436600461151b565b610e08565b6102b360025481565b6102b36103c0366004611896565b610ef7565b6102b36103d33660046118c2565b610f7e565b6101fd7f000000000000000000000000000000000000000000000000000000000000000081565b6102b360035481565b6101c1610fb8565b61021d61041e366004611930565b6110ea565b600061042d6113ea565b83815261043a86866109ae565b60208201526040810183905260007f0000000000000000000000000000000000000000000000000000000000000000600181111561047a5761047a6114b6565b036104925761048b8686868661112d565b91506104d9565b60017f000000000000000000000000000000000000000000000000000000000000000060018111156104c6576104c66114b6565b036104d9576104d6868686611167565b91505b50949350505050565b6104ea611199565b7f00000000000000000000000000000000000000000000000000000000000000006001600160a01b0316638763d0c46040518163ffffffff1660e01b8152600401602060405180830381865afa158015610548573d6000803e3d6000fd5b505050506040513d601f19601f8201168201806040525081019061056c919061196a565b6105895760405163f13e1b8560e01b815260040160405180910390fd5b600354600003610619577f00000000000000000000000000000000000000000000000000000000000000006001600160a01b031663d13181b86040518163ffffffff1660e01b8152600401602060405180830381865afa1580156105f1573d6000803e3d6000fd5b505050506040513d601f19601f82011682018060405250810190610615919061198c565b6003555b565b610623611199565b61064c7f00000000000000000000000000000000000000000000000000000000000000006111c6565b6106546104e2565b60007f00000000000000000000000000000000000000000000000000000000000000006001600160a01b031663ac98e5df6040518163ffffffff1660e01b8152600401608060405180830381865afa1580156106b4573d6000803e3d6000fd5b505050506040513d601f19601f820116820180604052508101906106d891906119a5565b505050905060008160026106ec9190611afe565b90506000816002546106fe9190611b0d565b60028054600101905560408051634f367f0f60e01b815281519293506000926001600160a01b037f00000000000000000000000000000000000000000000000000000000000000001692634f367f0f92600480820193918290030181865afa15801561076e573d6000803e3d6000fd5b505050506040513d601f19601f820116820180604052508101906107929190611b24565b5090508082106107b55760405163b3f8c18960e01b815260040160405180910390fd5b60006107c4868385878b610aec565b9050806107e4576040516341acf34d60e01b815260040160405180910390fd5b505050600193909355505050565b6000807f00000000000000000000000000000000000000000000000000000000000000006001811115610827576108276114b6565b1461084557604051630280e1e560e61b815260040160405180910390fd5b6000610854858b8b8b8b611263565b905061085e6113ea565b8381526020810185905261087282886109ae565b604082015260015461088382610f7e565b149b9a5050505050505050505050565b60405163248f667760e01b815260009073eac082F3ac67427585C208f0bdfCCB3b1c8621aa9063248f6677906108cd908590600401611b48565b602060405180830381865af41580156108ea573d6000803e3d6000fd5b505050506040513d601f19601f8201168201806040525081019061090e919061198c565b92915050565b60007f30644e72e131a029b85045b68181585d2833e84879b9709143e1f593f000000160028360405160200161094a9190611b79565b60408051601f198184030181529082905261096491611baf565b602060405180830381855afa158015610981573d6000803e3d6000fd5b5050506040513d601f19601f820116820180604052508101906109a4919061198c565b61090e9190611bf4565b60006109b8611408565b838152602081018390526109cb816109d3565b949350505050565b6040516314d2f97b60e11b81526000907366556eD8C5423ee7540Dcf79383a67D75Aa987AC906329a5f2f6906108cd908590600401611c08565b600080610a1b868686610ef7565b60408051600480825260a0820190925291925060009190602082016080803683370190505090508181600081518110610a5657610a56611954565b60200260200101818152505060035481600181518110610a7857610a78611954565b60200260200101818152505060015481600281518110610a9a57610a9a611954565b6020026020010181815250508381600381518110610aba57610aba611954565b602002602001018181525050610acf81610914565b979650505050505050565b610ae2611199565b610619600061139a565b60008060007f00000000000000000000000000000000000000000000000000000000000000006001600160a01b031663ac98e5df6040518163ffffffff1660e01b8152600401608060405180830381865afa158015610b4f573d6000803e3d6000fd5b505050506040513d601f19601f82011682018060405250810190610b7391906119a5565b93505050915060007f00000000000000000000000000000000000000000000000000000000000000006001600160a01b031663bc14ee2b6040518163ffffffff1660e01b8152600401606060405180830381865afa158015610bd9573d6000803e3d6000fd5b505050506040513d601f19601f82011682018060405250810190610bfd9190611c30565b5050905060007f00000000000000000000000000000000000000000000000000000000000000006001600160a01b03166310b37e4d836001600160a01b031663652c76e46040518163ffffffff1660e01b8152600401602060405180830381865afa158015610c70573d6000803e3d6000fd5b505050506040513d601f19601f82011682018060405250810190610c949190611c7d565b86867f00000000000000000000000000000000000000000000000000000000000000006040518563ffffffff1660e01b8152600401610cd69493929190611c9a565b600060405180830381865afa158015610cf3573d6000803e3d6000fd5b505050506040513d6000823e601f3d908101601f19168201604052610d1b9190810190611d7f565b90506000610d2b8a8a8a8a610a0d565b6040516308adcb2560e21b81529091506001600160a01b037f000000000000000000000000000000000000000000000000000000000000000016906322b72c9490610d7e908e9086908690600401611edd565b602060405180830381865afa158015610d9b573d6000803e3d6000fd5b505050506040513d601f19601f82011682018060405250810190610dbf919061196a565b9b9a5050505050505050505050565b604051630926f44b60e31b815260009073702F4AF4523b410D474DBfCD5B436c14A4B10D7190634937a258906108cd908590600401611fb5565b600080610e18858b8b8b8b611263565b905060007f00000000000000000000000000000000000000000000000000000000000000006001811115610e4e57610e4e6114b6565b03610e8a57610e5b6113ea565b610e6582886109ae565b81526020810185905260408101849052600154610e8182610f7e565b14925050610eea565b60017f00000000000000000000000000000000000000000000000000000000000000006001811115610ebe57610ebe6114b6565b03610eea57610ecb611408565b610ed582886109ae565b815260208101859052600154610883826109d3565b5098975050505050505050565b6000600160321b8410610f1d57604051631805864f60e21b815260040160405180910390fd5b600160321b8310610f41576040516334dd29a960e21b815260040160405180910390fd5b600160321b8210610f655760405163cdc3c16b60e01b815260040160405180910390fd5b603284901b610f748385611fdd565b6109cb9190611ff1565b6040516304b98e1d60e31b8152600090732FbEDbe38f011a6a9D9146d2A94a0873F5D21986906325cc70e8906108cd908590600401612004565b6000807f00000000000000000000000000000000000000000000000000000000000000006001600160a01b031663ac98e5df6040518163ffffffff1660e01b8152600401608060405180830381865afa158015611019573d6000803e3d6000fd5b505050506040513d601f19601f8201168201806040525081019061103d91906119a5565b505050905060007f00000000000000000000000000000000000000000000000000000000000000006001600160a01b0316634f367f0f6040518163ffffffff1660e01b81526004016040805180830381865afa1580156110a1573d6000803e3d6000fd5b505050506040513d601f19601f820116820180604052508101906110c59190611b24565b509050806110d4836002611afe565b6002546110e19190611b0d565b10159250505090565b6110f2611199565b6001600160a01b03811661112157604051631e4fbdf760e01b8152600060048201526024015b60405180910390fd5b61112a8161139a565b50565b60006111376113ea565b83815261114486866109ae565b60208201526040810183905260015461115c82610f7e565b149695505050505050565b6000611171611408565b82815261117e85856109ae565b602082015260015461118f826109d3565b1495945050505050565b6000546001600160a01b031633146106195760405163118cdaa760e01b8152336004820152602401611118565b600080826001600160a01b0316634909229f6040518163ffffffff1660e01b81526004016040805180830381865afa158015611206573d6000803e3d6000fd5b505050506040513d601f19601f8201168201806040525081019061122a9190611b24565b9092509050600061123b834261202c565b905081811161125d57604051635c3017c560e11b815260040160405180910390fd5b50505050565b600080611271600587611bf4565b90508491506000611280611426565b60005b8960ff168160ff16101561138d5760005b60058160ff16101561135757848160ff16036112ca5785838260ff16600581106112c0576112c0611954565b6020020152611347565b848160ff1611156112e7576112e060018261203f565b93506112eb565b8093505b87878360ff1681811061130057611300611954565b90506020028101906113129190612058565b8560ff1681811061132557611325611954565b90506020020135838260ff166005811061134157611341611954565b60200201525b611350816120a9565b9050611294565b5061136360058a611fdd565b985061137060058a611bf4565b935061137b82610dce565b9450611386816120a9565b9050611283565b5050505095945050505050565b600080546001600160a01b038381166001600160a01b0319831681178455604051919092169283917f8be0079c531659141344cd1fd0a4f28419497f9722a3daafe3b4186f6b6457e09190a35050565b60405180606001604052806003906020820280368337509192915050565b60405180604001604052806002906020820280368337509192915050565b6040518060a001604052806005906020820280368337509192915050565b6000806000806080858703121561145a57600080fd5b5050823594602084013594506040840135936060013592509050565b80610100810183101561090e57600080fd5b600080610120838503121561149c57600080fd5b823591506114ad8460208501611476565b90509250929050565b634e487b7160e01b600052602160045260246000fd5b600281106114ea57634e487b7160e01b600052602160045260246000fd5b9052565b6020810161090e82846114cc565b60ff8116811461112a57600080fd5b8035611516816114fc565b919050565b60008060008060008060008060e0898b03121561153757600080fd5b8835975060208901359650604089013567ffffffffffffffff8082111561155d57600080fd5b818b0191508b601f83011261157157600080fd5b81358181111561158057600080fd5b8c60208260051b850101111561159557600080fd5b602083019850809750505050606089013593506115b460808a0161150b565b925060a0890135915060c089013590509295985092959890939650565b634e487b7160e01b600052604160045260246000fd5b6040805190810167ffffffffffffffff8111828210171561160a5761160a6115d1565b60405290565b60405160a0810167ffffffffffffffff8111828210171561160a5761160a6115d1565b604051601f8201601f1916810167ffffffffffffffff8111828210171561165c5761165c6115d1565b604052919050565b60006080828403121561167657600080fd5b82601f83011261168557600080fd5b6040516080810181811067ffffffffffffffff821117156116a8576116a86115d1565b6040528060808401858111156116bd57600080fd5b845b818110156116d75780358352602092830192016116bf565b509195945050505050565b600067ffffffffffffffff8211156116fc576116fc6115d1565b5060051b60200190565b6000602080838503121561171957600080fd5b823567ffffffffffffffff81111561173057600080fd5b8301601f8101851361174157600080fd5b803561175461174f826116e2565b611633565b81815260059190911b8201830190838101908783111561177357600080fd5b928401925b82841015610acf57833582529284019290840190611778565b600080604083850312156117a457600080fd5b50508035926020909101359150565b6000604082840312156117c557600080fd5b82601f8301126117d457600080fd5b6117dc6115e7565b8060408401858111156117ee57600080fd5b845b818110156118085780358452602093840193016117f0565b509095945050505050565b6000806000806000610180868803121561182c57600080fd5b6118368787611476565b9761010087013597506101208701359661014081013596506101600135945092505050565b600060a0828403121561186d57600080fd5b82601f83011261187c57600080fd5b611884611610565b8060a08401858111156117ee57600080fd5b6000806000606084860312156118ab57600080fd5b505081359360208301359350604090920135919050565b6000606082840312156118d457600080fd5b82601f8301126118e357600080fd5b6040516060810181811067ffffffffffffffff82111715611906576119066115d1565b6040528060608401858111156116bd57600080fd5b6001600160a01b038116811461112a57600080fd5b60006020828403121561194257600080fd5b813561194d8161191b565b9392505050565b634e487b7160e01b600052603260045260246000fd5b60006020828403121561197c57600080fd5b8151801515811461194d57600080fd5b60006020828403121561199e57600080fd5b5051919050565b600080600080608085870312156119bb57600080fd5b84516119c6816114fc565b60208601519094506119d7816114fc565b60408601519093506119e8816114fc565b60608601519092506119f9816114fc565b939692955090935050565b634e487b7160e01b600052601160045260246000fd5b600181815b80851115611a55578160001904821115611a3b57611a3b611a04565b80851615611a4857918102915b93841c9390800290611a1f565b509250929050565b600082611a6c5750600161090e565b81611a795750600061090e565b8160018114611a8f5760028114611a9957611ab5565b600191505061090e565b60ff841115611aaa57611aaa611a04565b50506001821b61090e565b5060208310610133831016604e8410600b8410161715611ad8575081810a61090e565b611ae28383611a1a565b8060001904821115611af657611af6611a04565b029392505050565b600061194d60ff841683611a5d565b808202811582820484141761090e5761090e611a04565b60008060408385031215611b3757600080fd5b505080516020909101519092909150565b60808101818360005b6004811015611b70578151835260209283019290910190600101611b51565b50505092915050565b815160009082906020808601845b83811015611ba357815185529382019390820190600101611b87565b50929695505050505050565b6000825160005b81811015611bd05760208186018101518583015201611bb6565b506000920191825250919050565b634e487b7160e01b600052601260045260246000fd5b600082611c0357611c03611bde565b500690565b60408101818360005b6002811015611b70578151835260209283019290910190600101611c11565b600080600060608486031215611c4557600080fd5b8351611c508161191b565b6020850151909350611c618161191b565b6040850151909250611c728161191b565b809150509250925092565b600060208284031215611c8f57600080fd5b815161194d816114fc565b60ff858116825284811660208301528316604082015260808101611cc160608301846114cc565b95945050505050565b600060408284031215611cdc57600080fd5b611ce46115e7565b9050815181526020820151602082015292915050565b600082601f830112611d0b57600080fd5b611d136115e7565b806040840185811115611d2557600080fd5b845b81811015611808578051845260209384019301611d27565b600060808284031215611d5157600080fd5b611d596115e7565b9050611d658383611cfa565b8152611d748360408401611cfa565b602082015292915050565b60006020808385031215611d9257600080fd5b825167ffffffffffffffff80821115611daa57600080fd5b908401906101e08287031215611dbf57600080fd5b611dc7611610565b611dd18784611cca565b81526040611de188828601611d3f565b85830152611df28860c08601611d3f565b81830152611e04886101408601611d3f565b60608301526101c084015183811115611e1c57600080fd5b80850194505087601f850112611e3157600080fd5b83519250611e4161174f846116e2565b83815260069390931b84018501928581019089851115611e6057600080fd5b948601945b84861015611e8657611e778a87611cca565b82529482019490860190611e65565b60808401525090979650505050505050565b8060005b600281101561125d578151845260209384019390910190600101611e9c565b611ec6828251611e98565b6020810151611ed86040840182611e98565b505050565b6000610140610100808785378181850152506103208301611f0b828501875180518252602090810151910152565b6020915081860151611f21610180860182611ebb565b50604080870151611f36610200870182611ebb565b506060870151611f4a610280870182611ebb565b5060808701516101e06103008701528051928390528301916000906103408701905b80831015611f9d57611f8982865180518252602090810151910152565b938501936001929092019190830190611f6c565b50809550505050505082610120830152949350505050565b60a08101818360005b6005811015611b70578151835260209283019290910190600101611fbe565b600082611fec57611fec611bde565b500490565b8082018082111561090e5761090e611a04565b60608101818360005b6003811015611b7057815183526020928301929091019060010161200d565b8181038181111561090e5761090e611a04565b60ff828116828216039081111561090e5761090e611a04565b6000808335601e1984360301811261206f57600080fd5b83018035915067ffffffffffffffff82111561208a57600080fd5b6020019150600581901b36038213156120a257600080fd5b9250929050565b600060ff821660ff81036120bf576120bf611a04565b6001019291505056fea2646970667358221220be0c73ca235cbd6840c45b7e1d3d51aecf865a367faa6a30e175bc86423ac22964736f6c63430008140033a2646970667358221220440f82af9b40bf3bbe96a9643afc933d9e5fc535237af06631e7c16237b2bb7564736f6c63430008140033",
  "deployedBytecode": "0x608060405234801561001057600080fd5b50600436106100365760003560e01c8063431a71751461003b578063683f3dc31461006b575b600080fd5b61004e610049366004610158565b610085565b6040516001600160a01b0390911681526020015b60405180910390f35b610073600a81565b60405160ff9091168152602001610062565b60008087878787866040516100999061012f565b6100a79594939291906101d4565b604051809103906000f0801580156100c3573d6000803e3d6000fd5b5060405163f2fde38b60e01b81526001600160a01b0386811660048301529192509082169063f2fde38b90602401600060405180830381600087803b15801561010b57600080fd5b505af115801561011f573d6000803e3d6000fd5b50929a9950505050505050505050565b6123698061022b83390190565b80356001600160a01b038116811461015357600080fd5b919050565b60008060008060008060c0878903121561017157600080fd5b61017a8761013c565b95506101886020880161013c565b94506101966040880161013c565b93506101a46060880161013c565b92506101b26080880161013c565b915060a0870135600281106101c657600080fd5b809150509295509295509295565b6001600160a01b038681168252858116602083015284811660408301528316606082015260a081016002831061021a57634e487b7160e01b600052602160045260246000fd5b826080830152969550505050505056fe6101206040526040516200236938038062002369833981016040819052620000279162000122565b33806200004e57604051631e4fbdf760e01b81526000600482015260240160405180910390fd5b6200005981620000b5565b506001600160a01b0380861660805284811660a05283811660c052821660e0528060018111156200008e576200008e62000199565b610100816001811115620000a657620000a662000199565b815250505050505050620001af565b600080546001600160a01b038381166001600160a01b0319831681178455604051919092169283917f8be0079c531659141344cd1fd0a4f28419497f9722a3daafe3b4186f6b6457e09190a35050565b80516001600160a01b03811681146200011d57600080fd5b919050565b600080600080600060a086880312156200013b57600080fd5b620001468662000105565b9450620001566020870162000105565b9350620001666040870162000105565b9250620001766060870162000105565b91506080860151600281106200018b57600080fd5b809150509295509295909350565b634e487b7160e01b600052602160045260246000fd5b60805160a05160c05160e051610100516120fe6200026b600039600081816102370152818161044a01528181610496015281816107f701528181610c9801528181610e1e0152610e8e0152600081816103dd015281816104ec015261059501526000818161037401528181610628015281816106580152818161072701528181610af301528181610b7d01528181610fbd01526110460152600081816101db0152610c0501526000818161026b0152610d4501526120fe6000f3fe608060405234801561001057600080fd5b50600436106101a95760003560e01c80636b148b60116100f9578063afb93bd311610097578063d0380fe211610071578063d0380fe2146103d8578063d13181b8146103ff578063e3ff760614610408578063f2fde38b1461041057600080fd5b8063afb93bd3146103a9578063b03698f2146103b2578063bea140b3146103c557600080fd5b80638da5cb5b116100d35780638da5cb5b1461034b5780639cfced971461035c578063a11752791461036f578063a21fb5111461039657600080fd5b80636b148b601461031d578063715018a6146103305780637485dba11461033857600080fd5b80632d966bf4116101665780635bb93995116101405780635bb93995146102d457806361750293146102e757806362a361bb146102f0578063683f3dc31461030357600080fd5b80632d966bf41461028d5780633dfb88b2146102a057806358bfc379146102c157600080fd5b806310bc5f51146101ae57806313fb8932146101d657806316425eeb1461021557806323e3feb11461021f578063295a5212146102325780632b7ac3f314610266575b600080fd5b6101c16101bc366004611444565b610423565b60405190151581526020015b60405180910390f35b6101fd7f000000000000000000000000000000000000000000000000000000000000000081565b6040516001600160a01b0390911681526020016101cd565b61021d6104e2565b005b61021d61022d366004611488565b61061b565b6102597f000000000000000000000000000000000000000000000000000000000000000081565b6040516101cd91906114ee565b6101fd7f000000000000000000000000000000000000000000000000000000000000000081565b6101c161029b36600461151b565b6107f2565b6102b36102ae366004611664565b610893565b6040519081526020016101cd565b6102b36102cf366004611706565b610914565b6102b36102e2366004611791565b6109ae565b6102b360015481565b6102b36102fe3660046117b3565b6109d3565b61030b600a81565b60405160ff90911681526020016101cd565b6102b361032b366004611444565b610a0d565b61021d610ada565b6101c1610346366004611813565b610aec565b6000546001600160a01b03166101fd565b6102b361036a36600461185b565b610dce565b6101fd7f000000000000000000000000000000000000000000000000000000000000000081565b6101c16103a436600461151b565b610e08565b6102b360025481565b6102b36103c0366004611896565b610ef7565b6102b36103d33660046118c2565b610f7e565b6101fd7f000000000000000000000000000000000000000000000000000000000000000081565b6102b360035481565b6101c1610fb8565b61021d61041e366004611930565b6110ea565b600061042d6113ea565b83815261043a86866109ae565b60208201526040810183905260007f0000000000000000000000000000000000000000000000000000000000000000600181111561047a5761047a6114b6565b036104925761048b8686868661112d565b91506104d9565b60017f000000000000000000000000000000000000000000000000000000000000000060018111156104c6576104c66114b6565b036104d9576104d6868686611167565b91505b50949350505050565b6104ea611199565b7f00000000000000000000000000000000000000000000000000000000000000006001600160a01b0316638763d0c46040518163ffffffff1660e01b8152600401602060405180830381865afa158015610548573d6000803e3d6000fd5b505050506040513d601f19601f8201168201806040525081019061056c919061196a565b6105895760405163f13e1b8560e01b815260040160405180910390fd5b600354600003610619577f00000000000000000000000000000000000000000000000000000000000000006001600160a01b031663d13181b86040518163ffffffff1660e01b8152600401602060405180830381865afa1580156105f1573d6000803e3d6000fd5b505050506040513d601f19601f82011682018060405250810190610615919061198c565b6003555b565b610623611199565b61064c7f00000000000000000000000000000000000000000000000000000000000000006111c6565b6106546104e2565b60007f00000000000000000000000000000000000000000000000000000000000000006001600160a01b031663ac98e5df6040518163ffffffff1660e01b8152600401608060405180830381865afa1580156106b4573d6000803e3d6000fd5b505050506040513d601f19601f820116820180604052508101906106d891906119a5565b505050905060008160026106ec9190611afe565b90506000816002546106fe9190611b0d565b60028054600101905560408051634f367f0f60e01b815281519293506000926001600160a01b037f00000000000000000000000000000000000000000000000000000000000000001692634f367f0f92600480820193918290030181865afa15801561076e573d6000803e3d6000fd5b505050506040513d601f19601f820116820180604052508101906107929190611b24565b5090508082106107b55760405163b3f8c18960e01b815260040160405180910390fd5b60006107c4868385878b610aec565b9050806107e4576040516341acf34d60e01b815260040160405180910390fd5b505050600193909355505050565b6000807f00000000000000000000000000000000000000000000000000000000000000006001811115610827576108276114b6565b1461084557604051630280e1e560e61b815260040160405180910390fd5b6000610854858b8b8b8b611263565b905061085e6113ea565b8381526020810185905261087282886109ae565b604082015260015461088382610f7e565b149b9a5050505050505050505050565b60405163248f667760e01b815260009073__$ce9c2c925f157047e54fa833ec4e61409f$__9063248f6677906108cd908590600401611b48565b602060405180830381865af41580156108ea573d6000803e3d6000fd5b505050506040513d601f19601f8201168201806040525081019061090e919061198c565b92915050565b60007f30644e72e131a029b85045b68181585d2833e84879b9709143e1f593f000000160028360405160200161094a9190611b79565b60408051601f198184030181529082905261096491611baf565b602060405180830381855afa158015610981573d6000803e3d6000fd5b5050506040513d601f19601f820116820180604052508101906109a4919061198c565b61090e9190611bf4565b60006109b8611408565b838152602081018390526109cb816109d3565b949350505050565b6040516314d2f97b60e11b815260009073__$6574937f64fc1d7710ec0e28b7a36713bb$__906329a5f2f6906108cd908590600401611c08565b600080610a1b868686610ef7565b60408051600480825260a0820190925291925060009190602082016080803683370190505090508181600081518110610a5657610a56611954565b60200260200101818152505060035481600181518110610a7857610a78611954565b60200260200101818152505060015481600281518110610a9a57610a9a611954565b6020026020010181815250508381600381518110610aba57610aba611954565b602002602001018181525050610acf81610914565b979650505050505050565b610ae2611199565b610619600061139a565b60008060007f00000000000000000000000000000000000000000000000000000000000000006001600160a01b031663ac98e5df6040518163ffffffff1660e01b8152600401608060405180830381865afa158015610b4f573d6000803e3d6000fd5b505050506040513d601f19601f82011682018060405250810190610b7391906119a5565b93505050915060007f00000000000000000000000000000000000000000000000000000000000000006001600160a01b031663bc14ee2b6040518163ffffffff1660e01b8152600401606060405180830381865afa158015610bd9573d6000803e3d6000fd5b505050506040513d601f19601f82011682018060405250810190610bfd9190611c30565b5050905060007f00000000000000000000000000000000000000000000000000000000000000006001600160a01b03166310b37e4d836001600160a01b031663652c76e46040518163ffffffff1660e01b8152600401602060405180830381865afa158015610c70573d6000803e3d6000fd5b505050506040513d601f19601f82011682018060405250810190610c949190611c7d565b86867f00000000000000000000000000000000000000000000000000000000000000006040518563ffffffff1660e01b8152600401610cd69493929190611c9a565b600060405180830381865afa158015610cf3573d6000803e3d6000fd5b505050506040513d6000823e601f3d908101601f19168201604052610d1b9190810190611d7f565b90506000610d2b8a8a8a8a610a0d565b6040516308adcb2560e21b81529091506001600160a01b037f000000000000000000000000000000000000000000000000000000000000000016906322b72c9490610d7e908e9086908690600401611edd565b602060405180830381865afa158015610d9b573d6000803e3d6000fd5b505050506040513d601f19601f82011682018060405250810190610dbf919061196a565b9b9a5050505050505050505050565b604051630926f44b60e31b815260009073__$20527677031d76601747626a9845039fe4$__90634937a258906108cd908590600401611fb5565b600080610e18858b8b8b8b611263565b905060007f00000000000000000000000000000000000000000000000000000000000000006001811115610e4e57610e4e6114b6565b03610e8a57610e5b6113ea565b610e6582886109ae565b81526020810185905260408101849052600154610e8182610f7e565b14925050610eea565b60017f00000000000000000000000000000000000000000000000000000000000000006001811115610ebe57610ebe6114b6565b03610eea57610ecb611408565b610ed582886109ae565b815260208101859052600154610883826109d3565b5098975050505050505050565b6000600160321b8410610f1d57604051631805864f60e21b815260040160405180910390fd5b600160321b8310610f41576040516334dd29a960e21b815260040160405180910390fd5b600160321b8210610f655760405163cdc3c16b60e01b815260040160405180910390fd5b603284901b610f748385611fdd565b6109cb9190611ff1565b6040516304b98e1d60e31b815260009073__$dc01a9744591ab014bc46a3b7671cdaefb$__906325cc70e8906108cd908590600401612004565b6000807f00000000000000000000000000000000000000000000000000000000000000006001600160a01b031663ac98e5df6040518163ffffffff1660e01b8152600401608060405180830381865afa158015611019573d6000803e3d6000fd5b505050506040513d601f19601f8201168201806040525081019061103d91906119a5565b505050905060007f00000000000000000000000000000000000000000000000000000000000000006001600160a01b0316634f367f0f6040518163ffffffff1660e01b81526004016040805180830381865afa1580156110a1573d6000803e3d6000fd5b505050506040513d601f19601f820116820180604052508101906110c59190611b24565b509050806110d4836002611afe565b6002546110e19190611b0d565b10159250505090565b6110f2611199565b6001600160a01b03811661112157604051631e4fbdf760e01b8152600060048201526024015b60405180910390fd5b61112a8161139a565b50565b60006111376113ea565b83815261114486866109ae565b60208201526040810183905260015461115c82610f7e565b149695505050505050565b6000611171611408565b82815261117e85856109ae565b602082015260015461118f826109d3565b1495945050505050565b6000546001600160a01b031633146106195760405163118cdaa760e01b8152336004820152602401611118565b600080826001600160a01b0316634909229f6040518163ffffffff1660e01b81526004016040805180830381865afa158015611206573d6000803e3d6000fd5b505050506040513d601f19601f8201168201806040525081019061122a9190611b24565b9092509050600061123b834261202c565b905081811161125d57604051635c3017c560e11b815260040160405180910390fd5b50505050565b600080611271600587611bf4565b90508491506000611280611426565b60005b8960ff168160ff16101561138d5760005b60058160ff16101561135757848160ff16036112ca5785838260ff16600581106112c0576112c0611954565b6020020152611347565b848160ff1611156112e7576112e060018261203f565b93506112eb565b8093505b87878360ff1681811061130057611300611954565b90506020028101906113129190612058565b8560ff1681811061132557611325611954565b90506020020135838260ff166005811061134157611341611954565b60200201525b611350816120a9565b9050611294565b5061136360058a611fdd565b985061137060058a611bf4565b935061137b82610dce565b9450611386816120a9565b9050611283565b5050505095945050505050565b600080546001600160a01b038381166001600160a01b0319831681178455604051919092169283917f8be0079c531659141344cd1fd0a4f28419497f9722a3daafe3b4186f6b6457e09190a35050565b60405180606001604052806003906020820280368337509192915050565b60405180604001604052806002906020820280368337509192915050565b6040518060a001604052806005906020820280368337509192915050565b6000806000806080858703121561145a57600080fd5b5050823594602084013594506040840135936060013592509050565b80610100810183101561090e57600080fd5b600080610120838503121561149c57600080fd5b823591506114ad8460208501611476565b90509250929050565b634e487b7160e01b600052602160045260246000fd5b600281106114ea57634e487b7160e01b600052602160045260246000fd5b9052565b6020810161090e82846114cc565b60ff8116811461112a57600080fd5b8035611516816114fc565b919050565b60008060008060008060008060e0898b03121561153757600080fd5b8835975060208901359650604089013567ffffffffffffffff8082111561155d57600080fd5b818b0191508b601f83011261157157600080fd5b81358181111561158057600080fd5b8c60208260051b850101111561159557600080fd5b602083019850809750505050606089013593506115b460808a0161150b565b925060a0890135915060c089013590509295985092959890939650565b634e487b7160e01b600052604160045260246000fd5b6040805190810167ffffffffffffffff8111828210171561160a5761160a6115d1565b60405290565b60405160a0810167ffffffffffffffff8111828210171561160a5761160a6115d1565b604051601f8201601f1916810167ffffffffffffffff8111828210171561165c5761165c6115d1565b604052919050565b60006080828403121561167657600080fd5b82601f83011261168557600080fd5b6040516080810181811067ffffffffffffffff821117156116a8576116a86115d1565b6040528060808401858111156116bd57600080fd5b845b818110156116d75780358352602092830192016116bf565b509195945050505050565b600067ffffffffffffffff8211156116fc576116fc6115d1565b5060051b60200190565b6000602080838503121561171957600080fd5b823567ffffffffffffffff81111561173057600080fd5b8301601f8101851361174157600080fd5b803561175461174f826116e2565b611633565b81815260059190911b8201830190838101908783111561177357600080fd5b928401925b82841015610acf57833582529284019290840190611778565b600080604083850312156117a457600080fd5b50508035926020909101359150565b6000604082840312156117c557600080fd5b82601f8301126117d457600080fd5b6117dc6115e7565b8060408401858111156117ee57600080fd5b845b818110156118085780358452602093840193016117f0565b509095945050505050565b6000806000806000610180868803121561182c57600080fd5b6118368787611476565b9761010087013597506101208701359661014081013596506101600135945092505050565b600060a0828403121561186d57600080fd5b82601f83011261187c57600080fd5b611884611610565b8060a08401858111156117ee57600080fd5b6000806000606084860312156118ab57600080fd5b505081359360208301359350604090920135919050565b6000606082840312156118d457600080fd5b82601f8301126118e357600080fd5b6040516060810181811067ffffffffffffffff82111715611906576119066115d1565b6040528060608401858111156116bd57600080fd5b6001600160a01b038116811461112a57600080fd5b60006020828403121561194257600080fd5b813561194d8161191b565b9392505050565b634e487b7160e01b600052603260045260246000fd5b60006020828403121561197c57600080fd5b8151801515811461194d57600080fd5b60006020828403121561199e57600080fd5b5051919050565b600080600080608085870312156119bb57600080fd5b84516119c6816114fc565b60208601519094506119d7816114fc565b60408601519093506119e8816114fc565b60608601519092506119f9816114fc565b939692955090935050565b634e487b7160e01b600052601160045260246000fd5b600181815b80851115611a55578160001904821115611a3b57611a3b611a04565b80851615611a4857918102915b93841c9390800290611a1f565b509250929050565b600082611a6c5750600161090e565b81611a795750600061090e565b8160018114611a8f5760028114611a9957611ab5565b600191505061090e565b60ff841115611aaa57611aaa611a04565b50506001821b61090e565b5060208310610133831016604e8410600b8410161715611ad8575081810a61090e565b611ae28383611a1a565b8060001904821115611af657611af6611a04565b029392505050565b600061194d60ff841683611a5d565b808202811582820484141761090e5761090e611a04565b60008060408385031215611b3757600080fd5b505080516020909101519092909150565b60808101818360005b6004811015611b70578151835260209283019290910190600101611b51565b50505092915050565b815160009082906020808601845b83811015611ba357815185529382019390820190600101611b87565b50929695505050505050565b6000825160005b81811015611bd05760208186018101518583015201611bb6565b506000920191825250919050565b634e487b7160e01b600052601260045260246000fd5b600082611c0357611c03611bde565b500690565b60408101818360005b6002811015611b70578151835260209283019290910190600101611c11565b600080600060608486031215611c4557600080fd5b8351611c508161191b565b6020850151909350611c618161191b565b6040850151909250611c728161191b565b809150509250925092565b600060208284031215611c8f57600080fd5b815161194d816114fc565b60ff858116825284811660208301528316604082015260808101611cc160608301846114cc565b95945050505050565b600060408284031215611cdc57600080fd5b611ce46115e7565b9050815181526020820151602082015292915050565b600082601f830112611d0b57600080fd5b611d136115e7565b806040840185811115611d2557600080fd5b845b81811015611808578051845260209384019301611d27565b600060808284031215611d5157600080fd5b611d596115e7565b9050611d658383611cfa565b8152611d748360408401611cfa565b602082015292915050565b60006020808385031215611d9257600080fd5b825167ffffffffffffffff80821115611daa57600080fd5b908401906101e08287031215611dbf57600080fd5b611dc7611610565b611dd18784611cca565b81526040611de188828601611d3f565b85830152611df28860c08601611d3f565b81830152611e04886101408601611d3f565b60608301526101c084015183811115611e1c57600080fd5b80850194505087601f850112611e3157600080fd5b83519250611e4161174f846116e2565b83815260069390931b84018501928581019089851115611e6057600080fd5b948601945b84861015611e8657611e778a87611cca565b82529482019490860190611e65565b60808401525090979650505050505050565b8060005b600281101561125d578151845260209384019390910190600101611e9c565b611ec6828251611e98565b6020810151611ed86040840182611e98565b505050565b6000610140610100808785378181850152506103208301611f0b828501875180518252602090810151910152565b6020915081860151611f21610180860182611ebb565b50604080870151611f36610200870182611ebb565b506060870151611f4a610280870182611ebb565b5060808701516101e06103008701528051928390528301916000906103408701905b80831015611f9d57611f8982865180518252602090810151910152565b938501936001929092019190830190611f6c565b50809550505050505082610120830152949350505050565b60a08101818360005b6005811015611b70578151835260209283019290910190600101611fbe565b600082611fec57611fec611bde565b500490565b8082018082111561090e5761090e611a04565b60608101818360005b6003811015611b7057815183526020928301929091019060010161200d565b8181038181111561090e5761090e611a04565b60ff828116828216039081111561090e5761090e611a04565b6000808335601e1984360301811261206f57600080fd5b83018035915067ffffffffffffffff82111561208a57600080fd5b6020019150600581901b36038213156120a257600080fd5b9250929050565b600060ff821660ff81036120bf576120bf611a04565b6001019291505056fea2646970667358221220be0c73ca235cbd6840c45b7e1d3d51aecf865a367faa6a30e175bc86423ac22964736f6c63430008140033a2646970667358221220440f82af9b40bf3bbe96a9643afc933d9e5fc535237af06631e7c16237b2bb7564736f6c63430008140033",
  "libraries": {
    "PoseidonT3": "0x66556eD8C5423ee7540Dcf79383a67D75Aa987AC",
    "PoseidonT4": "0x2FbEDbe38f011a6a9D9146d2A94a0873F5D21986",
    "PoseidonT5": "0xeac082F3ac67427585C208f0bdfCCB3b1c8621aa",
    "PoseidonT6": "0x702F4AF4523b410D474DBfCD5B436c14A4B10D71"
  }
}